{
  "_format": "hh-sol-artifact-1",
  "contractName": "FlarePayProof",
  "sourceName": "contracts/FlarePayProof.sol",
  "abi": [
    {
      "inputs": [
        {
          "internalType": "address",
          "name": "_fdcHub",
          "type": "address"
        }
      ],
      "stateMutability": "nonpayable",
      "type": "constructor"
    },
    {
      "inputs": [
        {
          "internalType": "address",
          "name": "owner",
          "type": "address"
        }
      ],
      "name": "OwnableInvalidOwner",
      "type": "error"
    },
    {
      "inputs": [
        {
          "internalType": "address",
          "name": "account",
          "type": "address"
        }
      ],
      "name": "OwnableUnauthorizedAccount",
      "type": "error"
    },
    {
      "inputs": [],
      "name": "ReentrancyGuardReentrantCall",
      "type": "error"
    },
    {
      "anonymous": false,
      "inputs": [
        {
          "indexed": true,
          "internalType": "address",
          "name": "previousOwner",
          "type": "address"
        },
        {
          "indexed": true,
          "internalType": "address",
          "name": "newOwner",
          "type": "address"
        }
      ],
      "name": "OwnershipTransferred",
      "type": "event"
    },
    {
      "anonymous": false,
      "inputs": [
        {
          "indexed": true,
          "internalType": "bytes32",
          "name": "requestId",
          "type": "bytes32"
        },
        {
          "indexed": true,
          "internalType": "address",
          "name": "creator",
          "type": "address"
        },
        {
          "indexed": false,
          "internalType": "address",
          "name": "recipient",
          "type": "address"
        },
        {
          "indexed": false,
          "internalType": "uint256",
          "name": "amount",
          "type": "uint256"
        },
        {
          "indexed": false,
          "internalType": "uint256",
          "name": "expiresAt",
          "type": "uint256"
        }
      ],
      "name": "PaymentRequestCreated",
      "type": "event"
    },
    {
      "anonymous": false,
      "inputs": [
        {
          "indexed": true,
          "internalType": "bytes32",
          "name": "requestId",
          "type": "bytes32"
        },
        {
          "indexed": true,
          "internalType": "bytes32",
          "name": "proofId",
          "type": "bytes32"
        },
        {
          "indexed": true,
          "internalType": "address",
          "name": "payer",
          "type": "address"
        }
      ],
      "name": "PaymentRequestFulfilled",
      "type": "event"
    },
    {
      "anonymous": false,
      "inputs": [
        {
          "indexed": true,
          "internalType": "bytes32",
          "name": "proofId",
          "type": "bytes32"
        },
        {
          "indexed": true,
          "internalType": "bytes32",
          "name": "txHash",
          "type": "bytes32"
        },
        {
          "indexed": true,
          "internalType": "address",
          "name": "sender",
          "type": "address"
        },
        {
          "indexed": false,
          "internalType": "address",
          "name": "recipient",
          "type": "address"
        },
        {
          "indexed": false,
          "internalType": "uint256",
          "name": "amount",
          "type": "uint256"
        },
        {
          "indexed": false,
          "internalType": "string",
          "name": "tokenSymbol",
          "type": "string"
        }
      ],
      "name": "ProofCreated",
      "type": "event"
    },
    {
      "anonymous": false,
      "inputs": [
        {
          "indexed": true,
          "internalType": "bytes32",
          "name": "proofId",
          "type": "bytes32"
        },
        {
          "indexed": false,
          "internalType": "enum FlarePayProof.VerificationStatus",
          "name": "status",
          "type": "uint8"
        },
        {
          "indexed": false,
          "internalType": "uint256",
          "name": "fdcRoundId",
          "type": "uint256"
        },
        {
          "indexed": false,
          "internalType": "bytes32",
          "name": "merkleRoot",
          "type": "bytes32"
        }
      ],
      "name": "ProofVerified",
      "type": "event"
    },
    {
      "inputs": [
        {
          "internalType": "address",
          "name": "_recipient",
          "type": "address"
        },
        {
          "internalType": "address",
          "name": "_tokenContract",
          "type": "address"
        },
        {
          "internalType": "uint256",
          "name": "_amount",
          "type": "uint256"
        },
        {
          "internalType": "string",
          "name": "_memo",
          "type": "string"
        },
        {
          "internalType": "uint256",
          "name": "_expiresIn",
          "type": "uint256"
        }
      ],
      "name": "createPaymentRequest",
      "outputs": [
        {
          "internalType": "bytes32",
          "name": "requestId",
          "type": "bytes32"
        }
      ],
      "stateMutability": "nonpayable",
      "type": "function"
    },
    {
      "inputs": [
        {
          "internalType": "bytes32",
          "name": "_txHash",
          "type": "bytes32"
        },
        {
          "internalType": "address",
          "name": "_recipient",
          "type": "address"
        },
        {
          "internalType": "address",
          "name": "_tokenContract",
          "type": "address"
        },
        {
          "internalType": "uint256",
          "name": "_amount",
          "type": "uint256"
        },
        {
          "internalType": "uint8",
          "name": "_decimals",
          "type": "uint8"
        },
        {
          "internalType": "string",
          "name": "_tokenSymbol",
          "type": "string"
        },
        {
          "internalType": "string",
          "name": "_memo",
          "type": "string"
        }
      ],
      "name": "createProof",
      "outputs": [
        {
          "internalType": "bytes32",
          "name": "proofId",
          "type": "bytes32"
        }
      ],
      "stateMutability": "payable",
      "type": "function"
    },
    {
      "inputs": [],
      "name": "fdcHub",
      "outputs": [
        {
          "internalType": "address",
          "name": "",
          "type": "address"
        }
      ],
      "stateMutability": "view",
      "type": "function"
    },
    {
      "inputs": [
        {
          "internalType": "bytes32",
          "name": "_requestId",
          "type": "bytes32"
        },
        {
          "internalType": "bytes32",
          "name": "_proofId",
          "type": "bytes32"
        }
      ],
      "name": "fulfillPaymentRequest",
      "outputs": [],
      "stateMutability": "nonpayable",
      "type": "function"
    },
    {
      "inputs": [
        {
          "internalType": "bytes32",
          "name": "_proofId",
          "type": "bytes32"
        }
      ],
      "name": "getISO20022MessageId",
      "outputs": [
        {
          "internalType": "string",
          "name": "",
          "type": "string"
        }
      ],
      "stateMutability": "view",
      "type": "function"
    },
    {
      "inputs": [
        {
          "internalType": "bytes32",
          "name": "_requestId",
          "type": "bytes32"
        }
      ],
      "name": "getPaymentRequest",
      "outputs": [
        {
          "components": [
            {
              "internalType": "bytes32",
              "name": "requestId",
              "type": "bytes32"
            },
            {
              "internalType": "address",
              "name": "creator",
              "type": "address"
            },
            {
              "internalType": "address",
              "name": "recipient",
              "type": "address"
            },
            {
              "internalType": "address",
              "name": "tokenContract",
              "type": "address"
            },
            {
              "internalType": "uint256",
              "name": "amount",
              "type": "uint256"
            },
            {
              "internalType": "string",
              "name": "memo",
              "type": "string"
            },
            {
              "internalType": "uint256",
              "name": "createdAt",
              "type": "uint256"
            },
            {
              "internalType": "uint256",
              "name": "expiresAt",
              "type": "uint256"
            },
            {
              "internalType": "bool",
              "name": "fulfilled",
              "type": "bool"
            },
            {
              "internalType": "bytes32",
              "name": "proofId",
              "type": "bytes32"
            }
          ],
          "internalType": "struct FlarePayProof.PaymentRequest",
          "name": "",
          "type": "tuple"
        }
      ],
      "stateMutability": "view",
      "type": "function"
    },
    {
      "inputs": [
        {
          "internalType": "bytes32",
          "name": "_proofId",
          "type": "bytes32"
        }
      ],
      "name": "getProof",
      "outputs": [
        {
          "components": [
            {
              "internalType": "bytes32",
              "name": "proofId",
              "type": "bytes32"
            },
            {
              "internalType": "string",
              "name": "messageType",
              "type": "string"
            },
            {
              "internalType": "bytes32",
              "name": "txHash",
              "type": "bytes32"
            },
            {
              "internalType": "uint256",
              "name": "blockNumber",
              "type": "uint256"
            },
            {
              "internalType": "uint256",
              "name": "timestamp",
              "type": "uint256"
            },
            {
              "internalType": "address",
              "name": "sender",
              "type": "address"
            },
            {
              "internalType": "address",
              "name": "recipient",
              "type": "address"
            },
            {
              "internalType": "address",
              "name": "tokenContract",
              "type": "address"
            },
            {
              "internalType": "uint256",
              "name": "amount",
              "type": "uint256"
            },
            {
              "internalType": "uint8",
              "name": "decimals",
              "type": "uint8"
            },
            {
              "internalType": "string",
              "name": "tokenSymbol",
              "type": "string"
            },
            {
              "internalType": "string",
              "name": "memo",
              "type": "string"
            },
            {
              "internalType": "uint256",
              "name": "fdcRoundId",
              "type": "uint256"
            },
            {
              "internalType": "bytes32",
              "name": "merkleRoot",
              "type": "bytes32"
            },
            {
              "internalType": "enum FlarePayProof.VerificationStatus",
              "name": "status",
              "type": "uint8"
            },
            {
              "internalType": "uint256",
              "name": "proofCreatedAt",
              "type": "uint256"
            }
          ],
          "internalType": "struct FlarePayProof.PaymentProof",
          "name": "",
          "type": "tuple"
        }
      ],
      "stateMutability": "view",
      "type": "function"
    },
    {
      "inputs": [
        {
          "internalType": "bytes32",
          "name": "_txHash",
          "type": "bytes32"
        }
      ],
      "name": "getProofByTxHash",
      "outputs": [
        {
          "internalType": "bytes32",
          "name": "",
          "type": "bytes32"
        }
      ],
      "stateMutability": "view",
      "type": "function"
    },
    {
      "inputs": [
        {
          "internalType": "address",
          "name": "_user",
          "type": "address"
        }
      ],
      "name": "getUserPaymentRequests",
      "outputs": [
        {
          "internalType": "bytes32[]",
          "name": "",
          "type": "bytes32[]"
        }
      ],
      "stateMutability": "view",
      "type": "function"
    },
    {
      "inputs": [
        {
          "internalType": "address",
          "name": "_user",
          "type": "address"
        }
      ],
      "name": "getUserProofs",
      "outputs": [
        {
          "internalType": "bytes32[]",
          "name": "",
          "type": "bytes32[]"
        }
      ],
      "stateMutability": "view",
      "type": "function"
    },
    {
      "inputs": [
        {
          "internalType": "bytes32",
          "name": "_proofId",
          "type": "bytes32"
        }
      ],
      "name": "isFDCVerified",
      "outputs": [
        {
          "internalType": "bool",
          "name": "",
          "type": "bool"
        }
      ],
      "stateMutability": "view",
      "type": "function"
    },
    {
      "inputs": [],
      "name": "owner",
      "outputs": [
        {
          "internalType": "address",
          "name": "",
          "type": "address"
        }
      ],
      "stateMutability": "view",
      "type": "function"
    },
    {
      "inputs": [
        {
          "internalType": "bytes32",
          "name": "",
          "type": "bytes32"
        }
      ],
      "name": "paymentRequests",
      "outputs": [
        {
          "internalType": "bytes32",
          "name": "requestId",
          "type": "bytes32"
        },
        {
          "internalType": "address",
          "name": "creator",
          "type": "address"
        },
        {
          "internalType": "address",
          "name": "recipient",
          "type": "address"
        },
        {
          "internalType": "address",
          "name": "tokenContract",
          "type": "address"
        },
        {
          "internalType": "uint256",
          "name": "amount",
          "type": "uint256"
        },
        {
          "internalType": "string",
          "name": "memo",
          "type": "string"
        },
        {
          "internalType": "uint256",
          "name": "createdAt",
          "type": "uint256"
        },
        {
          "internalType": "uint256",
          "name": "expiresAt",
          "type": "uint256"
        },
        {
          "internalType": "bool",
          "name": "fulfilled",
          "type": "bool"
        },
        {
          "internalType": "bytes32",
          "name": "proofId",
          "type": "bytes32"
        }
      ],
      "stateMutability": "view",
      "type": "function"
    },
    {
      "inputs": [],
      "name": "proofFee",
      "outputs": [
        {
          "internalType": "uint256",
          "name": "",
          "type": "uint256"
        }
      ],
      "stateMutability": "view",
      "type": "function"
    },
    {
      "inputs": [
        {
          "internalType": "bytes32",
          "name": "",
          "type": "bytes32"
        }
      ],
      "name": "proofs",
      "outputs": [
        {
          "internalType": "bytes32",
          "name": "proofId",
          "type": "bytes32"
        },
        {
          "internalType": "string",
          "name": "messageType",
          "type": "string"
        },
        {
          "internalType": "bytes32",
          "name": "txHash",
          "type": "bytes32"
        },
        {
          "internalType": "uint256",
          "name": "blockNumber",
          "type": "uint256"
        },
        {
          "internalType": "uint256",
          "name": "timestamp",
          "type": "uint256"
        },
        {
          "internalType": "address",
          "name": "sender",
          "type": "address"
        },
        {
          "internalType": "address",
          "name": "recipient",
          "type": "address"
        },
        {
          "internalType": "address",
          "name": "tokenContract",
          "type": "address"
        },
        {
          "internalType": "uint256",
          "name": "amount",
          "type": "uint256"
        },
        {
          "internalType": "uint8",
          "name": "decimals",
          "type": "uint8"
        },
        {
          "internalType": "string",
          "name": "tokenSymbol",
          "type": "string"
        },
        {
          "internalType": "string",
          "name": "memo",
          "type": "string"
        },
        {
          "internalType": "uint256",
          "name": "fdcRoundId",
          "type": "uint256"
        },
        {
          "internalType": "bytes32",
          "name": "merkleRoot",
          "type": "bytes32"
        },
        {
          "internalType": "enum FlarePayProof.VerificationStatus",
          "name": "status",
          "type": "uint8"
        },
        {
          "internalType": "uint256",
          "name": "proofCreatedAt",
          "type": "uint256"
        }
      ],
      "stateMutability": "view",
      "type": "function"
    },
    {
      "inputs": [],
      "name": "renounceOwnership",
      "outputs": [],
      "stateMutability": "nonpayable",
      "type": "function"
    },
    {
      "inputs": [
        {
          "internalType": "address",
          "name": "_fdcHub",
          "type": "address"
        }
      ],
      "name": "setFDCHub",
      "outputs": [],
      "stateMutability": "nonpayable",
      "type": "function"
    },
    {
      "inputs": [
        {
          "internalType": "uint256",
          "name": "_fee",
          "type": "uint256"
        }
      ],
      "name": "setProofFee",
      "outputs": [],
      "stateMutability": "nonpayable",
      "type": "function"
    },
    {
      "inputs": [],
      "name": "totalProofs",
      "outputs": [
        {
          "internalType": "uint256",
          "name": "",
          "type": "uint256"
        }
      ],
      "stateMutability": "view",
      "type": "function"
    },
    {
      "inputs": [],
      "name": "totalRequests",
      "outputs": [
        {
          "internalType": "uint256",
          "name": "",
          "type": "uint256"
        }
      ],
      "stateMutability": "view",
      "type": "function"
    },
    {
      "inputs": [
        {
          "internalType": "address",
          "name": "newOwner",
          "type": "address"
        }
      ],
      "name": "transferOwnership",
      "outputs": [],
      "stateMutability": "nonpayable",
      "type": "function"
    },
    {
      "inputs": [
        {
          "internalType": "bytes32",
          "name": "",
          "type": "bytes32"
        }
      ],
      "name": "txHashToProofId",
      "outputs": [
        {
          "internalType": "bytes32",
          "name": "",
          "type": "bytes32"
        }
      ],
      "stateMutability": "view",
      "type": "function"
    },
    {
      "inputs": [
        {
          "internalType": "address",
          "name": "",
          "type": "address"
        },
        {
          "internalType": "uint256",
          "name": "",
          "type": "uint256"
        }
      ],
      "name": "userPaymentRequests",
      "outputs": [
        {
          "internalType": "bytes32",
          "name": "",
          "type": "bytes32"
        }
      ],
      "stateMutability": "view",
      "type": "function"
    },
    {
      "inputs": [
        {
          "internalType": "address",
          "name": "",
          "type": "address"
        },
        {
          "internalType": "uint256",
          "name": "",
          "type": "uint256"
        }
      ],
      "name": "userProofs",
      "outputs": [
        {
          "internalType": "bytes32",
          "name": "",
          "type": "bytes32"
        }
      ],
      "stateMutability": "view",
      "type": "function"
    },
    {
      "inputs": [
        {
          "internalType": "bytes32",
          "name": "_proofId",
          "type": "bytes32"
        },
        {
          "internalType": "uint256",
          "name": "_fdcRoundId",
          "type": "uint256"
        },
        {
          "internalType": "bytes32",
          "name": "_merkleRoot",
          "type": "bytes32"
        }
      ],
      "name": "verifyProofWithFDC",
      "outputs": [],
      "stateMutability": "nonpayable",
      "type": "function"
    },
    {
      "inputs": [],
      "name": "withdrawFees",
      "outputs": [],
      "stateMutability": "nonpayable",
      "type": "function"
    },
    {
      "stateMutability": "payable",
      "type": "receive"
    }
  ],
  "bytecode": "0x6080346100cf57601f611dd938819003918201601f19168301916001600160401b038311848410176100d4578084926020946040528339810103126100cf57516001600160a01b0390818116908190036100cf5733156100b65760005460018060a01b0319903382821617600055604051933391167f8be0079c531659141344cd1fd0a4f28419497f9722a3daafe3b4186f6b6457e0600080a36001805560095416176009556000600a55611cee90816100eb8239f35b604051631e4fbdf760e01b815260006004820152602490fd5b600080fd5b634e487b7160e01b600052604160045260246000fdfe60a0604052600436101561001b575b361561001957600080fd5b005b60003560e01c8063074f686f1461181f5780630d7a55ba146117645780630f1447aa146104095780631b80bb3a146114e05780632ded3568146114c2578063373b58e61461147857806339be894b14611400578063438aa2f8146113df578063444d95b0146112815780634574b361146110f657806346bdfb8014611072578063476343ee14610fd4578063515a51b014610ee6578063651dcd15146109c9578063715018a6146109705780638010fcaf146109475780638aea61dc146109295780638cbefd5d146107a25780638d23508e1461074a5780638da5cb5b14610721578063cd1e330a14610703578063cdeca746146106ae578063d6a9738f14610435578063e4afb47d14610409578063eccd34b1146101cc5763f2fde38b0361000e57346101c75760203660031901126101c757610157611862565b61015f611abc565b6001600160a01b039081169081156101ae57600054826001600160601b0360a01b821617600055167f8be0079c531659141344cd1fd0a4f28419497f9722a3daafe3b4186f6b6457e0600080a3005b604051631e4fbdf760e01b815260006004820152602490fd5b600080fd5b346101c75760403660031901126101c7576004356024803590826000526020600581526040600020918254156103d257600883019182549160ff831661039b5760078501548015908115610390575b501561035b578560005260028252604060002061023a81541515611b8d565b600681015460028701546001600160a01b0392918316908316036103225760088101546004880154116102e8576007829101541690600387015416036102b457505060ff1916600117905560090181905533917f61a586c08d9cbd77b55d7a08ce93b88697849248ed3d58eacf8e67e6b00fa9bc600080a4005b90600e6064926040519262461bcd60e51b845260048401528201526d0a8ded6cadc40dad2e6dac2e8c6d60931b6044820152fd5b60405162461bcd60e51b81526004810185905260138185015272105b5bdd5b9d081a5b9cdd59999a58da595b9d606a1b6044820152606490fd5b60405162461bcd60e51b815260048101859052601281850152710a4cac6d2e0d2cadce840dad2e6dac2e8c6d60731b6044820152606490fd5b90600f6064926040519262461bcd60e51b845260048401528201526e14995c5d595cdd08195e1c1a5c9959608a1b6044820152fd5b90504211158861021b565b9060116064926040519262461bcd60e51b8452600484015282015270105b1c9958591e48199d5b199a5b1b1959607a1b6044820152fd5b9060116064926040519262461bcd60e51b845260048401528201527014995c5d595cdd081b9bdd08199bdd5b99607a1b6044820152fd5b346101c75760203660031901126101c75760043560005260036020526020604060002054604051908152f35b346101c75760a03660031901126101c75761044e611862565b610456611878565b9067ffffffffffffffff906044356064358381116101c75761047c903690600401611a8e565b9490936084359060085460405197602098898101903360601b825260018060a01b0393848a16996001600160601b03199060601b16603483015288604883015242606883015260888201526088815260c081018181108682111761069857604052519020978860005260058a52604060002095898755600193848801906001600160601b0360a01b913383825416179055600289018b8382541617905560038901921690825416179055866004870155600586019382116106985761054b82610545865461188e565b86611aff565b600090601f831160011461063357928293918392600094610628575b50501b916000199060031b1c19161790555b426006830155801561061d57420180421161060757600890915b600781019283550160ff19815416905533600052600685526105b9846040600020611b44565b6105c4600854611b7e565b6008555490604051928352848301526040820152817fd18e36e1183945e7f8d5d03c4df5d432e0639778df0e95a6477008ad46f683d760603393a3604051908152f35b634e487b7160e01b600052601160045260246000fd5b506008600091610593565b013592508b80610567565b601f1983169185600052838c600020938d6000905b888383106106805750505010610666575b505050811b019055610579565b0135600019600384901b60f8161c19169055898080610659565b8587013588559096019593840193879350018e610648565b634e487b7160e01b600052604160045260246000fd5b346101c75760203660031901126101c757600435600052600260205260ff600e604060002001541660058110156106ed57602090600260405191148152f35b634e487b7160e01b600052602160045260246000fd5b346101c75760003660031901126101c7576020600a54604051908152f35b346101c75760003660031901126101c7576000546040516001600160a01b039091168152602090f35b346101c75760403660031901126101c757610763611862565b6001600160a01b03166000908152600660205260409020805460243591908210156101c75760209161079491611a3b565b90546040519160031b1c8152f35b346101c7576020806003193601126101c7576004356000526002908181526040600020916107e060048454946107d9861515611b8d565b0154611bf8565b926040516107ed81611902565b601081526f181899199a1a9b1b9c1cb0b131b232b360811b848201526040519161081683611902565b60088352848301938536863760005b600481106108945761086d8761087c60258b8a8a60405196879364464c41524560d81b8886015261085e815180928a89890191016119e6565b840191518093868401906119e6565b0103600581018552018361191e565b610890604051928284938452830190611a09565b0390f35b868110156109135782811a90600f6001600160f81b0319806108bc600486901c841689611be7565b511660019284841b95858704881486151715610607576108eb9260001a6108e3888d611be7565b531688611be7565b51169281018091116106075761090861090e9360001a9188611be7565b53611b7e565b610825565b634e487b7160e01b600052603260045260246000fd5b346101c75760003660031901126101c7576020600854604051908152f35b346101c75760003660031901126101c7576009546040516001600160a01b039091168152602090f35b346101c75760003660031901126101c757610989611abc565b600080546001600160a01b0319811682556001600160a01b03167f8be0079c531659141344cd1fd0a4f28419497f9722a3daafe3b4186f6b6457e08280a3005b60e03660031901126101c7576109dd611878565b604435906001600160a01b03821682036101c7576084359060ff821682036101c75760a43567ffffffffffffffff81116101c757610a1f903690600401611a8e565b909360c43567ffffffffffffffff81116101c757610a41903690600401611a8e565b959091600260015414610ed4576002600155600a543410610e9c5760043515610e65576004356000526003602052604060002054610e29576007546040519060043560208301523360601b60408301524260548301526074820152607481528060a081011067ffffffffffffffff60a0830111176106985760a081016040526020815191012095866000526002602052604060002091878355610ae7600184015461188e565b601f8111610e04575b50601e6e0e0c2c6e65c6060705c6060625c607608b1b0160018401556004356002840155436003840155426004840155600583016001600160601b0360a01b9033828254161790556006840160018060a01b03891682825416179055600784019160018060a01b031690825416179055606435600883015560ff60098301911660ff1982541617905567ffffffffffffffff841161069857610ba284610b99600a84015461188e565b600a8401611aff565b836000601f8211600114610d9657600091610d8b575b508460011b906000198660031b1c191617600a8201555b67ffffffffffffffff871161069857868493610bfd602099610bf4600b86015461188e565b600b8601611aff565b600090601f8311600114610d14576000919083610d09575b50508160011b916000199060031b1c191617600b8201555b600e8101600160ff19825416179055600f4291015560043560005260038652846040600020553360005260048652610c69856040600020611b44565b60018060a01b03841660005260048652610c87856040600020611b44565b610c92600754611b7e565b6007556040519360018060a01b0316845260643586850152606060408501528160608501526080840137600060808284010152827f13601eebf7f2449ff850075dec019bb04854e2b69b7e42f2ac1c90c299c84cd8339360808160043595601f80199101168101030190a460018055604051908152f35b013590508980610c15565b600b8493929695940160005289600020906000965b601f1984168810610d71576001949596975083601f19811610610d57575b505050811b01600b820155610c2d565b0135600019600384901b60f8161c19169055898080610d47565b818101358355968b01968896506001909201918b01610d29565b905082013588610bb8565b9050600a820160005260206000209060005b601f1987168110610dec575085601f19811610610dd2575b5050600184811b01600a820155610bcf565b830135600019600387901b60f8161c191690558780610dc0565b90916020600181928588013581550193019101610da8565b610e239060018501600052601f6020600020910160051c810190611ae8565b89610af0565b60405162461bcd60e51b815260206004820152601460248201527350726f6f6620616c72656164792065786973747360601b6044820152606490fd5b60405162461bcd60e51b815260206004820152600f60248201526e092dcecc2d8d2c840e8f040d0c2e6d608b1b6044820152606490fd5b60405162461bcd60e51b815260206004820152601060248201526f496e73756666696369656e742066656560801b6044820152606490fd5b604051633ee5aeb560e01b8152600490fd5b346101c75760603660031901126101c75760043560243560443590826000526002602052604060002090610f1c82541515611b8d565b6005820154336001600160a01b0391821614908115610fc6575b5015610f90577f815076fd0ccd822c644cd979b0bc798f01234326593872471849163b0a85af7192600e8383600c606096015582600d82015501600260ff19825416179055604051916002835260208301526040820152a2005b60405162461bcd60e51b815260206004820152600e60248201526d139bdd08185d5d1a1bdc9a5e995960921b6044820152606490fd5b905060005416331485610f36565b346101c75760003660031901126101c757610fed611abc565b6000805481908190819047906001600160a01b03165af13d1561106d573d61101481611bcb565b90611022604051928361191e565b8152600060203d92013e5b1561103457005b60405162461bcd60e51b815260206004820152601160248201527015da5d1a191c985dd85b0819985a5b1959607a1b6044820152606490fd5b61102d565b346101c7576020806003193601126101c7576001600160a01b03611094611862565b1660005260048152604060002090604051908181845491828152019360005281600020916000905b8282106110df57610890856110d38189038261191e565b60405191829182611a53565b8354865294850194600193840193909101906110bc565b346101c75760203660031901126101c7576000610120604051611118816118e5565b828152826020820152826040820152826060820152826080820152606060a08201528260c08201528260e08201528261010082015201526004356000526005602052604060002060096040519161116e836118e5565b8054835260018101546001600160a01b0390811660208501526002820154811660408501526003820154166060840152600481015460808401526111b460058201611940565b60a0840152600681015460c0840152600781015460e084015260ff600882015416151561010084015201546101208201526040518091602082528051602083015260018060a01b03602082015116604083015260018060a01b03604082015116606083015260018060a01b036060820151166080830152608081015160a083015260a0810151610120611255610140928360c0870152610160860190611a09565b9260c081015160e086015260e08101516101008601526101008101511515828601520151908301520390f35b346101c75760203660031901126101c757600435600052600260205260406000208054600182016112b190611940565b91600281015492600382015493600483015490600160a01b600190039081600586015416918060068701541690600787015416600887015490600988015460ff1692600a890161130090611940565b9561130d600b8b01611940565b97600c8b01549c600d8c01549a600e8d015460ff169c600f01549d604051806080525261020080608051602001526080510161134891611a09565b9760805160400152608051606001526080516080015260805160a0015260805160c0015260805160e001526080516101000152608051610120015260805180820390610140015261139891611a09565b6080518082039061016001526113ad91611a09565b9360805161018001526080516101a001526080516101c0016113ce91611a2e565b6080516101e0015260805180910390f35b346101c75760203660031901126101c7576113f8611abc565b600435600a55005b346101c7576020806003193601126101c7576001600160a01b03611422611862565b1660005260068152604060002090604051908181845491828152019360005281600020916000905b82821061146157610890856110d38189038261191e565b83548652948501946001938401939091019061144a565b346101c75760403660031901126101c757611491611862565b6001600160a01b03166000908152600460205260409020805460243591908210156101c75760209161079491611a3b565b346101c75760003660031901126101c7576020600754604051908152f35b346101c75760203660031901126101c75760006101e0604051611502816118c8565b828152606060208201528260408201528260608201528260808201528260a08201528260c08201528260e082015282610100820152826101208201526060610140820152606061016082015282610180820152826101a0820152826101c082015201526004356000526002602052604060002060405190611582826118c8565b8054825261159260018201611940565b602083015260028101546040830152600381015460608301526004810154608083015260058101546001600160a01b0390811660a08401526006820154811660c084015260078201541660e08301526008810154610100830152600981015460ff16610120830152611606600a8201611940565b610140830152611618600b8201611940565b610160830152600c810154610180830152600d8101546101a083015260ff600e820154169060058210156106ed57600f916101c084015201546101e0820152604051809160208252805160208301526101e061172d61168860208401516102006040870152610220860190611a09565b6040840151606086015260608401516080860152608084015160a086015260018060a01b0360a08501511660c086015260018060a01b0360c08501511660e086015260018060a01b0360e08501511661010086015261010084015161012086015260ff6101208501511661014086015261171661014085015191601f19928388830301610160890152611a09565b906101608501519086830301610180870152611a09565b916101808101516101a08501526101a08101516101c08501526117586101c082015183860190611a2e565b01516102008301520390f35b346101c75760203660031901126101c75760043560005260056020526040600020805460018060a01b039182600182015416928060028301541690600383015416916004810154926118026117bb60058401611940565b600684015495600785015493600960ff600888015416960154966040519a8b9a8b5260208b015260408a0152606089015260808801526101408060a0890152870190611a09565b9360c086015260e085015215156101008401526101208301520390f35b346101c75760203660031901126101c757611838611862565b611840611abc565b600980546001600160a01b0319166001600160a01b0392909216919091179055005b600435906001600160a01b03821682036101c757565b602435906001600160a01b03821682036101c757565b90600182811c921680156118be575b60208310146118a857565b634e487b7160e01b600052602260045260246000fd5b91607f169161189d565b610200810190811067ffffffffffffffff82111761069857604052565b610140810190811067ffffffffffffffff82111761069857604052565b6040810190811067ffffffffffffffff82111761069857604052565b90601f8019910116810190811067ffffffffffffffff82111761069857604052565b90604051918260008254926119548461188e565b9081845260019485811690816000146119c35750600114611980575b505061197e9250038361191e565b565b9093915060005260209081600020936000915b8183106119ab57505061197e93508201013880611970565b85548884018501529485019487945091830191611993565b91505061197e94506020925060ff191682840152151560051b8201013880611970565b60005b8381106119f95750506000910152565b81810151838201526020016119e9565b90602091611a22815180928185528580860191016119e6565b601f01601f1916010190565b9060058210156106ed5752565b80548210156109135760005260206000200190600090565b6020908160408183019282815285518094520193019160005b828110611a7a575050505090565b835185529381019392810192600101611a6c565b9181601f840112156101c75782359167ffffffffffffffff83116101c757602083818601950101116101c757565b6000546001600160a01b03163303611ad057565b60405163118cdaa760e01b8152336004820152602490fd5b818110611af3575050565b60008155600101611ae8565b9190601f8111611b0e57505050565b61197e926000526020600020906020601f840160051c83019310611b3a575b601f0160051c0190611ae8565b9091508190611b2d565b80546801000000000000000081101561069857611b6691600182018155611a3b565b819291549060031b91821b91600019901b1916179055565b60001981146106075760010190565b15611b9457565b60405162461bcd60e51b815260206004820152600f60248201526e141c9bdbd9881b9bdd08199bdd5b99608a1b6044820152606490fd5b67ffffffffffffffff811161069857601f01601f191660200190565b908151811015610913570160200190565b8015611c9a5780816000925b611c845750611c1282611bcb565b91611c20604051938461191e565b80835281601f19611c3083611bcb565b013660208601375b611c4157505090565b6000198101908111610607578091600a91603083830681018091116106075760f81b6001600160f81b03191660001a90611c7b9086611be7565b53049081611c38565b9091611c91600a91611b7e565b92910480611c04565b50604051611ca781611902565b60018152600360fc1b60208201529056fea2646970667358221220c7c688bc55a27c7817111e73a3b2ffd88deda5b9a45cf3be34d8d91413dc562264736f6c63430008140033",
  "linkReferences": {},
  "deployedLinkReferences": {}
}