{"contracts/FlarePayProof.sol":{"FlarePayProof":{"abi":[{"inputs":[{"internalType":"address","name":"_fdcHub","type":"address"}],"stateMutability":"nonpayable","type":"constructor"},{"inputs":[{"internalType":"address","name":"owner","type":"address"}],"name":"OwnableInvalidOwner","type":"error"},{"inputs":[{"internalType":"address","name":"account","type":"address"}],"name":"OwnableUnauthorizedAccount","type":"error"},{"inputs":[],"name":"ReentrancyGuardReentrantCall","type":"error"},{"anonymous":false,"inputs":[{"indexed":true,"internalType":"address","name":"previousOwner","type":"address"},{"indexed":true,"internalType":"address","name":"newOwner","type":"address"}],"name":"OwnershipTransferred","type":"event"},{"anonymous":false,"inputs":[{"indexed":true,"internalType":"bytes32","name":"requestId","type":"bytes32"},{"indexed":true,"internalType":"address","name":"creator","type":"address"},{"indexed":false,"internalType":"address","name":"recipient","type":"address"},{"indexed":false,"internalType":"uint256","name":"amount","type":"uint256"},{"indexed":false,"internalType":"uint256","name":"expiresAt","type":"uint256"}],"name":"PaymentRequestCreated","type":"event"},{"anonymous":false,"inputs":[{"indexed":true,"internalType":"bytes32","name":"requestId","type":"bytes32"},{"indexed":true,"internalType":"bytes32","name":"proofId","type":"bytes32"},{"indexed":true,"internalType":"address","name":"payer","type":"address"}],"name":"PaymentRequestFulfilled","type":"event"},{"anonymous":false,"inputs":[{"indexed":true,"internalType":"bytes32","name":"proofId","type":"bytes32"},{"indexed":true,"internalType":"bytes32","name":"txHash","type":"bytes32"},{"indexed":true,"internalType":"address","name":"sender","type":"address"},{"indexed":false,"internalType":"address","name":"recipient","type":"address"},{"indexed":false,"internalType":"uint256","name":"amount","type":"uint256"},{"indexed":false,"internalType":"string","name":"tokenSymbol","type":"string"}],"name":"ProofCreated","type":"event"},{"anonymous":false,"inputs":[{"indexed":true,"internalType":"bytes32","name":"proofId","type":"bytes32"},{"indexed":false,"internalType":"enum FlarePayProof.VerificationStatus","name":"status","type":"uint8"},{"indexed":false,"internalType":"uint256","name":"fdcRoundId","type":"uint256"},{"indexed":false,"internalType":"bytes32","name":"merkleRoot","type":"bytes32"}],"name":"ProofVerified","type":"event"},{"inputs":[{"internalType":"address","name":"_recipient","type":"address"},{"internalType":"address","name":"_tokenContract","type":"address"},{"internalType":"uint256","name":"_amount","type":"uint256"},{"internalType":"string","name":"_memo","type":"string"},{"internalType":"uint256","name":"_expiresIn","type":"uint256"}],"name":"createPaymentRequest","outputs":[{"internalType":"bytes32","name":"requestId","type":"bytes32"}],"stateMutability":"nonpayable","type":"function"},{"inputs":[{"internalType":"bytes32","name":"_txHash","type":"bytes32"},{"internalType":"address","name":"_recipient","type":"address"},{"internalType":"address","name":"_tokenContract","type":"address"},{"internalType":"uint256","name":"_amount","type":"uint256"},{"internalType":"uint8","name":"_decimals","type":"uint8"},{"internalType":"string","name":"_tokenSymbol","type":"string"},{"internalType":"string","name":"_memo","type":"string"}],"name":"createProof","outputs":[{"internalType":"bytes32","name":"proofId","type":"bytes32"}],"stateMutability":"payable","type":"function"},{"inputs":[],"name":"fdcHub","outputs":[{"internalType":"address","name":"","type":"address"}],"stateMutability":"view","type":"function"},{"inputs":[{"internalType":"bytes32","name":"_requestId","type":"bytes32"},{"internalType":"bytes32","name":"_proofId","type":"bytes32"}],"name":"fulfillPaymentRequest","outputs":[],"stateMutability":"nonpayable","type":"function"},{"inputs":[{"internalType":"bytes32","name":"_proofId","type":"bytes32"}],"name":"getISO20022MessageId","outputs":[{"internalType":"string","name":"","type":"string"}],"stateMutability":"view","type":"function"},{"inputs":[{"internalType":"bytes32","name":"_requestId","type":"bytes32"}],"name":"getPaymentRequest","outputs":[{"components":[{"internalType":"bytes32","name":"requestId","type":"bytes32"},{"internalType":"address","name":"creator","type":"address"},{"internalType":"address","name":"recipient","type":"address"},{"internalType":"address","name":"tokenContract","type":"address"},{"internalType":"uint256","name":"amount","type":"uint256"},{"internalType":"string","name":"memo","type":"string"},{"internalType":"uint256","name":"createdAt","type":"uint256"},{"internalType":"uint256","name":"expiresAt","type":"uint256"},{"internalType":"bool","name":"fulfilled","type":"bool"},{"internalType":"bytes32","name":"proofId","type":"bytes32"}],"internalType":"struct FlarePayProof.PaymentRequest","name":"","type":"tuple"}],"stateMutability":"view","type":"function"},{"inputs":[{"internalType":"bytes32","name":"_proofId","type":"bytes32"}],"name":"getProof","outputs":[{"components":[{"internalType":"bytes32","name":"proofId","type":"bytes32"},{"internalType":"string","name":"messageType","type":"string"},{"internalType":"bytes32","name":"txHash","type":"bytes32"},{"internalType":"uint256","name":"blockNumber","type":"uint256"},{"internalType":"uint256","name":"timestamp","type":"uint256"},{"internalType":"address","name":"sender","type":"address"},{"internalType":"address","name":"recipient","type":"address"},{"internalType":"address","name":"tokenContract","type":"address"},{"internalType":"uint256","name":"amount","type":"uint256"},{"internalType":"uint8","name":"decimals","type":"uint8"},{"internalType":"string","name":"tokenSymbol","type":"string"},{"internalType":"string","name":"memo","type":"string"},{"internalType":"uint256","name":"fdcRoundId","type":"uint256"},{"internalType":"bytes32","name":"merkleRoot","type":"bytes32"},{"internalType":"enum FlarePayProof.VerificationStatus","name":"status","type":"uint8"},{"internalType":"uint256","name":"proofCreatedAt","type":"uint256"}],"internalType":"struct FlarePayProof.PaymentProof","name":"","type":"tuple"}],"stateMutability":"view","type":"function"},{"inputs":[{"internalType":"bytes32","name":"_txHash","type":"bytes32"}],"name":"getProofByTxHash","outputs":[{"internalType":"bytes32","name":"","type":"bytes32"}],"stateMutability":"view","type":"function"},{"inputs":[{"internalType":"address","name":"_user","type":"address"}],"name":"getUserPaymentRequests","outputs":[{"internalType":"bytes32[]","name":"","type":"bytes32[]"}],"stateMutability":"view","type":"function"},{"inputs":[{"internalType":"address","name":"_user","type":"address"}],"name":"getUserProofs","outputs":[{"internalType":"bytes32[]","name":"","type":"bytes32[]"}],"stateMutability":"view","type":"function"},{"inputs":[{"internalType":"bytes32","name":"_proofId","type":"bytes32"}],"name":"isFDCVerified","outputs":[{"internalType":"bool","name":"","type":"bool"}],"stateMutability":"view","type":"function"},{"inputs":[],"name":"owner","outputs":[{"internalType":"address","name":"","type":"address"}],"stateMutability":"view","type":"function"},{"inputs":[{"internalType":"bytes32","name":"","type":"bytes32"}],"name":"paymentRequests","outputs":[{"internalType":"bytes32","name":"requestId","type":"bytes32"},{"internalType":"address","name":"creator","type":"address"},{"internalType":"address","name":"recipient","type":"address"},{"internalType":"address","name":"tokenContract","type":"address"},{"internalType":"uint256","name":"amount","type":"uint256"},{"internalType":"string","name":"memo","type":"string"},{"internalType":"uint256","name":"createdAt","type":"uint256"},{"internalType":"uint256","name":"expiresAt","type":"uint256"},{"internalType":"bool","name":"fulfilled","type":"bool"},{"internalType":"bytes32","name":"proofId","type":"bytes32"}],"stateMutability":"view","type":"function"},{"inputs":[],"name":"proofFee","outputs":[{"internalType":"uint256","name":"","type":"uint256"}],"stateMutability":"view","type":"function"},{"inputs":[{"internalType":"bytes32","name":"","type":"bytes32"}],"name":"proofs","outputs":[{"internalType":"bytes32","name":"proofId","type":"bytes32"},{"internalType":"string","name":"messageType","type":"string"},{"internalType":"bytes32","name":"txHash","type":"bytes32"},{"internalType":"uint256","name":"blockNumber","type":"uint256"},{"internalType":"uint256","name":"timestamp","type":"uint256"},{"internalType":"address","name":"sender","type":"address"},{"internalType":"address","name":"recipient","type":"address"},{"internalType":"address","name":"tokenContract","type":"address"},{"internalType":"uint256","name":"amount","type":"uint256"},{"internalType":"uint8","name":"decimals","type":"uint8"},{"internalType":"string","name":"tokenSymbol","type":"string"},{"internalType":"string","name":"memo","type":"string"},{"internalType":"uint256","name":"fdcRoundId","type":"uint256"},{"internalType":"bytes32","name":"merkleRoot","type":"bytes32"},{"internalType":"enum FlarePayProof.VerificationStatus","name":"status","type":"uint8"},{"internalType":"uint256","name":"proofCreatedAt","type":"uint256"}],"stateMutability":"view","type":"function"},{"inputs":[],"name":"renounceOwnership","outputs":[],"stateMutability":"nonpayable","type":"function"},{"inputs":[{"internalType":"address","name":"_fdcHub","type":"address"}],"name":"setFDCHub","outputs":[],"stateMutability":"nonpayable","type":"function"},{"inputs":[{"internalType":"uint256","name":"_fee","type":"uint256"}],"name":"setProofFee","outputs":[],"stateMutability":"nonpayable","type":"function"},{"inputs":[],"name":"totalProofs","outputs":[{"internalType":"uint256","name":"","type":"uint256"}],"stateMutability":"view","type":"function"},{"inputs":[],"name":"totalRequests","outputs":[{"internalType":"uint256","name":"","type":"uint256"}],"stateMutability":"view","type":"function"},{"inputs":[{"internalType":"address","name":"newOwner","type":"address"}],"name":"transferOwnership","outputs":[],"stateMutability":"nonpayable","type":"function"},{"inputs":[{"internalType":"bytes32","name":"","type":"bytes32"}],"name":"txHashToProofId","outputs":[{"internalType":"bytes32","name":"","type":"bytes32"}],"stateMutability":"view","type":"function"},{"inputs":[{"internalType":"address","name":"","type":"address"},{"internalType":"uint256","name":"","type":"uint256"}],"name":"userPaymentRequests","outputs":[{"internalType":"bytes32","name":"","type":"bytes32"}],"stateMutability":"view","type":"function"},{"inputs":[{"internalType":"address","name":"","type":"address"},{"internalType":"uint256","name":"","type":"uint256"}],"name":"userProofs","outputs":[{"internalType":"bytes32","name":"","type":"bytes32"}],"stateMutability":"view","type":"function"},{"inputs":[{"internalType":"bytes32","name":"_proofId","type":"bytes32"},{"internalType":"uint256","name":"_fdcRoundId","type":"uint256"},{"internalType":"bytes32","name":"_merkleRoot","type":"bytes32"}],"name":"verifyProofWithFDC","outputs":[],"stateMutability":"nonpayable","type":"function"},{"inputs":[],"name":"withdrawFees","outputs":[],"stateMutability":"nonpayable","type":"function"},{"stateMutability":"payable","type":"receive"}],"evm":{"bytecode":{"linkReferences":{},"object":"6080346100cf57601f611dd938819003918201601f19168301916001600160401b038311848410176100d4578084926020946040528339810103126100cf57516001600160a01b0390818116908190036100cf5733156100b65760005460018060a01b0319903382821617600055604051933391167f8be0079c531659141344cd1fd0a4f28419497f9722a3daafe3b4186f6b6457e0600080a36001805560095416176009556000600a55611cee90816100eb8239f35b604051631e4fbdf760e01b815260006004820152602490fd5b600080fd5b634e487b7160e01b600052604160045260246000fdfe60a0604052600436101561001b575b361561001957600080fd5b005b60003560e01c8063074f686f1461181f5780630d7a55ba146117645780630f1447aa146104095780631b80bb3a146114e05780632ded3568146114c2578063373b58e61461147857806339be894b14611400578063438aa2f8146113df578063444d95b0146112815780634574b361146110f657806346bdfb8014611072578063476343ee14610fd4578063515a51b014610ee6578063651dcd15146109c9578063715018a6146109705780638010fcaf146109475780638aea61dc146109295780638cbefd5d146107a25780638d23508e1461074a5780638da5cb5b14610721578063cd1e330a14610703578063cdeca746146106ae578063d6a9738f14610435578063e4afb47d14610409578063eccd34b1146101cc5763f2fde38b0361000e57346101c75760203660031901126101c757610157611862565b61015f611abc565b6001600160a01b039081169081156101ae57600054826001600160601b0360a01b821617600055167f8be0079c531659141344cd1fd0a4f28419497f9722a3daafe3b4186f6b6457e0600080a3005b604051631e4fbdf760e01b815260006004820152602490fd5b600080fd5b346101c75760403660031901126101c7576004356024803590826000526020600581526040600020918254156103d257600883019182549160ff831661039b5760078501548015908115610390575b501561035b578560005260028252604060002061023a81541515611b8d565b600681015460028701546001600160a01b0392918316908316036103225760088101546004880154116102e8576007829101541690600387015416036102b457505060ff1916600117905560090181905533917f61a586c08d9cbd77b55d7a08ce93b88697849248ed3d58eacf8e67e6b00fa9bc600080a4005b90600e6064926040519262461bcd60e51b845260048401528201526d0a8ded6cadc40dad2e6dac2e8c6d60931b6044820152fd5b60405162461bcd60e51b81526004810185905260138185015272105b5bdd5b9d081a5b9cdd59999a58da595b9d606a1b6044820152606490fd5b60405162461bcd60e51b815260048101859052601281850152710a4cac6d2e0d2cadce840dad2e6dac2e8c6d60731b6044820152606490fd5b90600f6064926040519262461bcd60e51b845260048401528201526e14995c5d595cdd08195e1c1a5c9959608a1b6044820152fd5b90504211158861021b565b9060116064926040519262461bcd60e51b8452600484015282015270105b1c9958591e48199d5b199a5b1b1959607a1b6044820152fd5b9060116064926040519262461bcd60e51b845260048401528201527014995c5d595cdd081b9bdd08199bdd5b99607a1b6044820152fd5b346101c75760203660031901126101c75760043560005260036020526020604060002054604051908152f35b346101c75760a03660031901126101c75761044e611862565b610456611878565b9067ffffffffffffffff906044356064358381116101c75761047c903690600401611a8e565b9490936084359060085460405197602098898101903360601b825260018060a01b0393848a16996001600160601b03199060601b16603483015288604883015242606883015260888201526088815260c081018181108682111761069857604052519020978860005260058a52604060002095898755600193848801906001600160601b0360a01b913383825416179055600289018b8382541617905560038901921690825416179055866004870155600586019382116106985761054b82610545865461188e565b86611aff565b600090601f831160011461063357928293918392600094610628575b50501b916000199060031b1c19161790555b426006830155801561061d57420180421161060757600890915b600781019283550160ff19815416905533600052600685526105b9846040600020611b44565b6105c4600854611b7e565b6008555490604051928352848301526040820152817fd18e36e1183945e7f8d5d03c4df5d432e0639778df0e95a6477008ad46f683d760603393a3604051908152f35b634e487b7160e01b600052601160045260246000fd5b506008600091610593565b013592508b80610567565b601f1983169185600052838c600020938d6000905b888383106106805750505010610666575b505050811b019055610579565b0135600019600384901b60f8161c19169055898080610659565b8587013588559096019593840193879350018e610648565b634e487b7160e01b600052604160045260246000fd5b346101c75760203660031901126101c757600435600052600260205260ff600e604060002001541660058110156106ed57602090600260405191148152f35b634e487b7160e01b600052602160045260246000fd5b346101c75760003660031901126101c7576020600a54604051908152f35b346101c75760003660031901126101c7576000546040516001600160a01b039091168152602090f35b346101c75760403660031901126101c757610763611862565b6001600160a01b03166000908152600660205260409020805460243591908210156101c75760209161079491611a3b565b90546040519160031b1c8152f35b346101c7576020806003193601126101c7576004356000526002908181526040600020916107e060048454946107d9861515611b8d565b0154611bf8565b926040516107ed81611902565b601081526f181899199a1a9b1b9c1cb0b131b232b360811b848201526040519161081683611902565b60088352848301938536863760005b600481106108945761086d8761087c60258b8a8a60405196879364464c41524560d81b8886015261085e815180928a89890191016119e6565b840191518093868401906119e6565b0103600581018552018361191e565b610890604051928284938452830190611a09565b0390f35b868110156109135782811a90600f6001600160f81b0319806108bc600486901c841689611be7565b511660019284841b95858704881486151715610607576108eb9260001a6108e3888d611be7565b531688611be7565b51169281018091116106075761090861090e9360001a9188611be7565b53611b7e565b610825565b634e487b7160e01b600052603260045260246000fd5b346101c75760003660031901126101c7576020600854604051908152f35b346101c75760003660031901126101c7576009546040516001600160a01b039091168152602090f35b346101c75760003660031901126101c757610989611abc565b600080546001600160a01b0319811682556001600160a01b03167f8be0079c531659141344cd1fd0a4f28419497f9722a3daafe3b4186f6b6457e08280a3005b60e03660031901126101c7576109dd611878565b604435906001600160a01b03821682036101c7576084359060ff821682036101c75760a43567ffffffffffffffff81116101c757610a1f903690600401611a8e565b909360c43567ffffffffffffffff81116101c757610a41903690600401611a8e565b959091600260015414610ed4576002600155600a543410610e9c5760043515610e65576004356000526003602052604060002054610e29576007546040519060043560208301523360601b60408301524260548301526074820152607481528060a081011067ffffffffffffffff60a0830111176106985760a081016040526020815191012095866000526002602052604060002091878355610ae7600184015461188e565b601f8111610e04575b50601e6e0e0c2c6e65c6060705c6060625c607608b1b0160018401556004356002840155436003840155426004840155600583016001600160601b0360a01b9033828254161790556006840160018060a01b03891682825416179055600784019160018060a01b031690825416179055606435600883015560ff60098301911660ff1982541617905567ffffffffffffffff841161069857610ba284610b99600a84015461188e565b600a8401611aff565b836000601f8211600114610d9657600091610d8b575b508460011b906000198660031b1c191617600a8201555b67ffffffffffffffff871161069857868493610bfd602099610bf4600b86015461188e565b600b8601611aff565b600090601f8311600114610d14576000919083610d09575b50508160011b916000199060031b1c191617600b8201555b600e8101600160ff19825416179055600f4291015560043560005260038652846040600020553360005260048652610c69856040600020611b44565b60018060a01b03841660005260048652610c87856040600020611b44565b610c92600754611b7e565b6007556040519360018060a01b0316845260643586850152606060408501528160608501526080840137600060808284010152827f13601eebf7f2449ff850075dec019bb04854e2b69b7e42f2ac1c90c299c84cd8339360808160043595601f80199101168101030190a460018055604051908152f35b013590508980610c15565b600b8493929695940160005289600020906000965b601f1984168810610d71576001949596975083601f19811610610d57575b505050811b01600b820155610c2d565b0135600019600384901b60f8161c19169055898080610d47565b818101358355968b01968896506001909201918b01610d29565b905082013588610bb8565b9050600a820160005260206000209060005b601f1987168110610dec575085601f19811610610dd2575b5050600184811b01600a820155610bcf565b830135600019600387901b60f8161c191690558780610dc0565b90916020600181928588013581550193019101610da8565b610e239060018501600052601f6020600020910160051c810190611ae8565b89610af0565b60405162461bcd60e51b815260206004820152601460248201527350726f6f6620616c72656164792065786973747360601b6044820152606490fd5b60405162461bcd60e51b815260206004820152600f60248201526e092dcecc2d8d2c840e8f040d0c2e6d608b1b6044820152606490fd5b60405162461bcd60e51b815260206004820152601060248201526f496e73756666696369656e742066656560801b6044820152606490fd5b604051633ee5aeb560e01b8152600490fd5b346101c75760603660031901126101c75760043560243560443590826000526002602052604060002090610f1c82541515611b8d565b6005820154336001600160a01b0391821614908115610fc6575b5015610f90577f815076fd0ccd822c644cd979b0bc798f01234326593872471849163b0a85af7192600e8383600c606096015582600d82015501600260ff19825416179055604051916002835260208301526040820152a2005b60405162461bcd60e51b815260206004820152600e60248201526d139bdd08185d5d1a1bdc9a5e995960921b6044820152606490fd5b905060005416331485610f36565b346101c75760003660031901126101c757610fed611abc565b6000805481908190819047906001600160a01b03165af13d1561106d573d61101481611bcb565b90611022604051928361191e565b8152600060203d92013e5b1561103457005b60405162461bcd60e51b815260206004820152601160248201527015da5d1a191c985dd85b0819985a5b1959607a1b6044820152606490fd5b61102d565b346101c7576020806003193601126101c7576001600160a01b03611094611862565b1660005260048152604060002090604051908181845491828152019360005281600020916000905b8282106110df57610890856110d38189038261191e565b60405191829182611a53565b8354865294850194600193840193909101906110bc565b346101c75760203660031901126101c7576000610120604051611118816118e5565b828152826020820152826040820152826060820152826080820152606060a08201528260c08201528260e08201528261010082015201526004356000526005602052604060002060096040519161116e836118e5565b8054835260018101546001600160a01b0390811660208501526002820154811660408501526003820154166060840152600481015460808401526111b460058201611940565b60a0840152600681015460c0840152600781015460e084015260ff600882015416151561010084015201546101208201526040518091602082528051602083015260018060a01b03602082015116604083015260018060a01b03604082015116606083015260018060a01b036060820151166080830152608081015160a083015260a0810151610120611255610140928360c0870152610160860190611a09565b9260c081015160e086015260e08101516101008601526101008101511515828601520151908301520390f35b346101c75760203660031901126101c757600435600052600260205260406000208054600182016112b190611940565b91600281015492600382015493600483015490600160a01b600190039081600586015416918060068701541690600787015416600887015490600988015460ff1692600a890161130090611940565b9561130d600b8b01611940565b97600c8b01549c600d8c01549a600e8d015460ff169c600f01549d604051806080525261020080608051602001526080510161134891611a09565b9760805160400152608051606001526080516080015260805160a0015260805160c0015260805160e001526080516101000152608051610120015260805180820390610140015261139891611a09565b6080518082039061016001526113ad91611a09565b9360805161018001526080516101a001526080516101c0016113ce91611a2e565b6080516101e0015260805180910390f35b346101c75760203660031901126101c7576113f8611abc565b600435600a55005b346101c7576020806003193601126101c7576001600160a01b03611422611862565b1660005260068152604060002090604051908181845491828152019360005281600020916000905b82821061146157610890856110d38189038261191e565b83548652948501946001938401939091019061144a565b346101c75760403660031901126101c757611491611862565b6001600160a01b03166000908152600460205260409020805460243591908210156101c75760209161079491611a3b565b346101c75760003660031901126101c7576020600754604051908152f35b346101c75760203660031901126101c75760006101e0604051611502816118c8565b828152606060208201528260408201528260608201528260808201528260a08201528260c08201528260e082015282610100820152826101208201526060610140820152606061016082015282610180820152826101a0820152826101c082015201526004356000526002602052604060002060405190611582826118c8565b8054825261159260018201611940565b602083015260028101546040830152600381015460608301526004810154608083015260058101546001600160a01b0390811660a08401526006820154811660c084015260078201541660e08301526008810154610100830152600981015460ff16610120830152611606600a8201611940565b610140830152611618600b8201611940565b610160830152600c810154610180830152600d8101546101a083015260ff600e820154169060058210156106ed57600f916101c084015201546101e0820152604051809160208252805160208301526101e061172d61168860208401516102006040870152610220860190611a09565b6040840151606086015260608401516080860152608084015160a086015260018060a01b0360a08501511660c086015260018060a01b0360c08501511660e086015260018060a01b0360e08501511661010086015261010084015161012086015260ff6101208501511661014086015261171661014085015191601f19928388830301610160890152611a09565b906101608501519086830301610180870152611a09565b916101808101516101a08501526101a08101516101c08501526117586101c082015183860190611a2e565b01516102008301520390f35b346101c75760203660031901126101c75760043560005260056020526040600020805460018060a01b039182600182015416928060028301541690600383015416916004810154926118026117bb60058401611940565b600684015495600785015493600960ff600888015416960154966040519a8b9a8b5260208b015260408a0152606089015260808801526101408060a0890152870190611a09565b9360c086015260e085015215156101008401526101208301520390f35b346101c75760203660031901126101c757611838611862565b611840611abc565b600980546001600160a01b0319166001600160a01b0392909216919091179055005b600435906001600160a01b03821682036101c757565b602435906001600160a01b03821682036101c757565b90600182811c921680156118be575b60208310146118a857565b634e487b7160e01b600052602260045260246000fd5b91607f169161189d565b610200810190811067ffffffffffffffff82111761069857604052565b610140810190811067ffffffffffffffff82111761069857604052565b6040810190811067ffffffffffffffff82111761069857604052565b90601f8019910116810190811067ffffffffffffffff82111761069857604052565b90604051918260008254926119548461188e565b9081845260019485811690816000146119c35750600114611980575b505061197e9250038361191e565b565b9093915060005260209081600020936000915b8183106119ab57505061197e93508201013880611970565b85548884018501529485019487945091830191611993565b91505061197e94506020925060ff191682840152151560051b8201013880611970565b60005b8381106119f95750506000910152565b81810151838201526020016119e9565b90602091611a22815180928185528580860191016119e6565b601f01601f1916010190565b9060058210156106ed5752565b80548210156109135760005260206000200190600090565b6020908160408183019282815285518094520193019160005b828110611a7a575050505090565b835185529381019392810192600101611a6c565b9181601f840112156101c75782359167ffffffffffffffff83116101c757602083818601950101116101c757565b6000546001600160a01b03163303611ad057565b60405163118cdaa760e01b8152336004820152602490fd5b818110611af3575050565b60008155600101611ae8565b9190601f8111611b0e57505050565b61197e926000526020600020906020601f840160051c83019310611b3a575b601f0160051c0190611ae8565b9091508190611b2d565b80546801000000000000000081101561069857611b6691600182018155611a3b565b819291549060031b91821b91600019901b1916179055565b60001981146106075760010190565b15611b9457565b60405162461bcd60e51b815260206004820152600f60248201526e141c9bdbd9881b9bdd08199bdd5b99608a1b6044820152606490fd5b67ffffffffffffffff811161069857601f01601f191660200190565b908151811015610913570160200190565b8015611c9a5780816000925b611c845750611c1282611bcb565b91611c20604051938461191e565b80835281601f19611c3083611bcb565b013660208601375b611c4157505090565b6000198101908111610607578091600a91603083830681018091116106075760f81b6001600160f81b03191660001a90611c7b9086611be7565b53049081611c38565b9091611c91600a91611b7e565b92910480611c04565b50604051611ca781611902565b60018152600360fc1b60208201529056fea2646970667358221220c7c688bc55a27c7817111e73a3b2ffd88deda5b9a45cf3be34d8d91413dc562264736f6c63430008140033","opcodes":"PUSH1 0x80 CALLVALUE PUSH2 0xCF JUMPI PUSH1 0x1F PUSH2 0x1DD9 CODESIZE DUP2 SWAP1 SUB SWAP2 DUP3 ADD PUSH1 0x1F NOT AND DUP4 ADD SWAP2 PUSH1 0x1 PUSH1 0x1 PUSH1 0x40 SHL SUB DUP4 GT DUP5 DUP5 LT OR PUSH2 0xD4 JUMPI DUP1 DUP5 SWAP3 PUSH1 0x20 SWAP5 PUSH1 0x40 MSTORE DUP4 CODECOPY DUP2 ADD SUB SLT PUSH2 0xCF JUMPI MLOAD PUSH1 0x1 PUSH1 0x1 PUSH1 0xA0 SHL SUB SWAP1 DUP2 DUP2 AND SWAP1 DUP2 SWAP1 SUB PUSH2 0xCF JUMPI CALLER ISZERO PUSH2 0xB6 JUMPI PUSH1 0x0 SLOAD PUSH1 0x1 DUP1 PUSH1 0xA0 SHL SUB NOT SWAP1 CALLER DUP3 DUP3 AND OR PUSH1 0x0 SSTORE PUSH1 0x40 MLOAD SWAP4 CALLER SWAP2 AND PUSH32 0x8BE0079C531659141344CD1FD0A4F28419497F9722A3DAAFE3B4186F6B6457E0 PUSH1 0x0 DUP1 LOG3 PUSH1 0x1 DUP1 SSTORE PUSH1 0x9 SLOAD AND OR PUSH1 0x9 SSTORE PUSH1 0x0 PUSH1 0xA SSTORE PUSH2 0x1CEE SWAP1 DUP2 PUSH2 0xEB DUP3 CODECOPY RETURN JUMPDEST PUSH1 0x40 MLOAD PUSH4 0x1E4FBDF7 PUSH1 0xE0 SHL DUP2 MSTORE PUSH1 0x0 PUSH1 0x4 DUP3 ADD MSTORE PUSH1 0x24 SWAP1 REVERT JUMPDEST PUSH1 0x0 DUP1 REVERT JUMPDEST PUSH4 0x4E487B71 PUSH1 0xE0 SHL PUSH1 0x0 MSTORE PUSH1 0x41 PUSH1 0x4 MSTORE PUSH1 0x24 PUSH1 0x0 REVERT INVALID PUSH1 0xA0 PUSH1 0x40 MSTORE PUSH1 0x4 CALLDATASIZE LT ISZERO PUSH2 0x1B JUMPI JUMPDEST CALLDATASIZE ISZERO PUSH2 0x19 JUMPI PUSH1 0x0 DUP1 REVERT JUMPDEST STOP JUMPDEST PUSH1 0x0 CALLDATALOAD PUSH1 0xE0 SHR DUP1 PUSH4 0x74F686F EQ PUSH2 0x181F JUMPI DUP1 PUSH4 0xD7A55BA EQ PUSH2 0x1764 JUMPI DUP1 PUSH4 0xF1447AA EQ PUSH2 0x409 JUMPI DUP1 PUSH4 0x1B80BB3A EQ PUSH2 0x14E0 JUMPI DUP1 PUSH4 0x2DED3568 EQ PUSH2 0x14C2 JUMPI DUP1 PUSH4 0x373B58E6 EQ PUSH2 0x1478 JUMPI DUP1 PUSH4 0x39BE894B EQ PUSH2 0x1400 JUMPI DUP1 PUSH4 0x438AA2F8 EQ PUSH2 0x13DF JUMPI DUP1 PUSH4 0x444D95B0 EQ PUSH2 0x1281 JUMPI DUP1 PUSH4 0x4574B361 EQ PUSH2 0x10F6 JUMPI DUP1 PUSH4 0x46BDFB80 EQ PUSH2 0x1072 JUMPI DUP1 PUSH4 0x476343EE EQ PUSH2 0xFD4 JUMPI DUP1 PUSH4 0x515A51B0 EQ PUSH2 0xEE6 JUMPI DUP1 PUSH4 0x651DCD15 EQ PUSH2 0x9C9 JUMPI DUP1 PUSH4 0x715018A6 EQ PUSH2 0x970 JUMPI DUP1 PUSH4 0x8010FCAF EQ PUSH2 0x947 JUMPI DUP1 PUSH4 0x8AEA61DC EQ PUSH2 0x929 JUMPI DUP1 PUSH4 0x8CBEFD5D EQ PUSH2 0x7A2 JUMPI DUP1 PUSH4 0x8D23508E EQ PUSH2 0x74A JUMPI DUP1 PUSH4 0x8DA5CB5B EQ PUSH2 0x721 JUMPI DUP1 PUSH4 0xCD1E330A EQ PUSH2 0x703 JUMPI DUP1 PUSH4 0xCDECA746 EQ PUSH2 0x6AE JUMPI DUP1 PUSH4 0xD6A9738F EQ PUSH2 0x435 JUMPI DUP1 PUSH4 0xE4AFB47D EQ PUSH2 0x409 JUMPI DUP1 PUSH4 0xECCD34B1 EQ PUSH2 0x1CC JUMPI PUSH4 0xF2FDE38B SUB PUSH2 0xE JUMPI CALLVALUE PUSH2 0x1C7 JUMPI PUSH1 0x20 CALLDATASIZE PUSH1 0x3 NOT ADD SLT PUSH2 0x1C7 JUMPI PUSH2 0x157 PUSH2 0x1862 JUMP JUMPDEST PUSH2 0x15F PUSH2 0x1ABC JUMP JUMPDEST PUSH1 0x1 PUSH1 0x1 PUSH1 0xA0 SHL SUB SWAP1 DUP2 AND SWAP1 DUP2 ISZERO PUSH2 0x1AE JUMPI PUSH1 0x0 SLOAD DUP3 PUSH1 0x1 PUSH1 0x1 PUSH1 0x60 SHL SUB PUSH1 0xA0 SHL DUP3 AND OR PUSH1 0x0 SSTORE AND PUSH32 0x8BE0079C531659141344CD1FD0A4F28419497F9722A3DAAFE3B4186F6B6457E0 PUSH1 0x0 DUP1 LOG3 STOP JUMPDEST PUSH1 0x40 MLOAD PUSH4 0x1E4FBDF7 PUSH1 0xE0 SHL DUP2 MSTORE PUSH1 0x0 PUSH1 0x4 DUP3 ADD MSTORE PUSH1 0x24 SWAP1 REVERT JUMPDEST PUSH1 0x0 DUP1 REVERT JUMPDEST CALLVALUE PUSH2 0x1C7 JUMPI PUSH1 0x40 CALLDATASIZE PUSH1 0x3 NOT ADD SLT PUSH2 0x1C7 JUMPI PUSH1 0x4 CALLDATALOAD PUSH1 0x24 DUP1 CALLDATALOAD SWAP1 DUP3 PUSH1 0x0 MSTORE PUSH1 0x20 PUSH1 0x5 DUP2 MSTORE PUSH1 0x40 PUSH1 0x0 KECCAK256 SWAP2 DUP3 SLOAD ISZERO PUSH2 0x3D2 JUMPI PUSH1 0x8 DUP4 ADD SWAP2 DUP3 SLOAD SWAP2 PUSH1 0xFF DUP4 AND PUSH2 0x39B JUMPI PUSH1 0x7 DUP6 ADD SLOAD DUP1 ISZERO SWAP1 DUP2 ISZERO PUSH2 0x390 JUMPI JUMPDEST POP ISZERO PUSH2 0x35B JUMPI DUP6 PUSH1 0x0 MSTORE PUSH1 0x2 DUP3 MSTORE PUSH1 0x40 PUSH1 0x0 KECCAK256 PUSH2 0x23A DUP2 SLOAD ISZERO ISZERO PUSH2 0x1B8D JUMP JUMPDEST PUSH1 0x6 DUP2 ADD SLOAD PUSH1 0x2 DUP8 ADD SLOAD PUSH1 0x1 PUSH1 0x1 PUSH1 0xA0 SHL SUB SWAP3 SWAP2 DUP4 AND SWAP1 DUP4 AND SUB PUSH2 0x322 JUMPI PUSH1 0x8 DUP2 ADD SLOAD PUSH1 0x4 DUP9 ADD SLOAD GT PUSH2 0x2E8 JUMPI PUSH1 0x7 DUP3 SWAP2 ADD SLOAD AND SWAP1 PUSH1 0x3 DUP8 ADD SLOAD AND SUB PUSH2 0x2B4 JUMPI POP POP PUSH1 0xFF NOT AND PUSH1 0x1 OR SWAP1 SSTORE PUSH1 0x9 ADD DUP2 SWAP1 SSTORE CALLER SWAP2 PUSH32 0x61A586C08D9CBD77B55D7A08CE93B88697849248ED3D58EACF8E67E6B00FA9BC PUSH1 0x0 DUP1 LOG4 STOP JUMPDEST SWAP1 PUSH1 0xE PUSH1 0x64 SWAP3 PUSH1 0x40 MLOAD SWAP3 PUSH3 0x461BCD PUSH1 0xE5 SHL DUP5 MSTORE PUSH1 0x4 DUP5 ADD MSTORE DUP3 ADD MSTORE PUSH14 0xA8DED6CADC40DAD2E6DAC2E8C6D PUSH1 0x93 SHL PUSH1 0x44 DUP3 ADD MSTORE REVERT JUMPDEST PUSH1 0x40 MLOAD PUSH3 0x461BCD PUSH1 0xE5 SHL DUP2 MSTORE PUSH1 0x4 DUP2 ADD DUP6 SWAP1 MSTORE PUSH1 0x13 DUP2 DUP6 ADD MSTORE PUSH19 0x105B5BDD5B9D081A5B9CDD59999A58DA595B9D PUSH1 0x6A SHL PUSH1 0x44 DUP3 ADD MSTORE PUSH1 0x64 SWAP1 REVERT JUMPDEST PUSH1 0x40 MLOAD PUSH3 0x461BCD PUSH1 0xE5 SHL DUP2 MSTORE PUSH1 0x4 DUP2 ADD DUP6 SWAP1 MSTORE PUSH1 0x12 DUP2 DUP6 ADD MSTORE PUSH18 0xA4CAC6D2E0D2CADCE840DAD2E6DAC2E8C6D PUSH1 0x73 SHL PUSH1 0x44 DUP3 ADD MSTORE PUSH1 0x64 SWAP1 REVERT JUMPDEST SWAP1 PUSH1 0xF PUSH1 0x64 SWAP3 PUSH1 0x40 MLOAD SWAP3 PUSH3 0x461BCD PUSH1 0xE5 SHL DUP5 MSTORE PUSH1 0x4 DUP5 ADD MSTORE DUP3 ADD MSTORE PUSH15 0x14995C5D595CDD08195E1C1A5C9959 PUSH1 0x8A SHL PUSH1 0x44 DUP3 ADD MSTORE REVERT JUMPDEST SWAP1 POP TIMESTAMP GT ISZERO DUP9 PUSH2 0x21B JUMP JUMPDEST SWAP1 PUSH1 0x11 PUSH1 0x64 SWAP3 PUSH1 0x40 MLOAD SWAP3 PUSH3 0x461BCD PUSH1 0xE5 SHL DUP5 MSTORE PUSH1 0x4 DUP5 ADD MSTORE DUP3 ADD MSTORE PUSH17 0x105B1C9958591E48199D5B199A5B1B1959 PUSH1 0x7A SHL PUSH1 0x44 DUP3 ADD MSTORE REVERT JUMPDEST SWAP1 PUSH1 0x11 PUSH1 0x64 SWAP3 PUSH1 0x40 MLOAD SWAP3 PUSH3 0x461BCD PUSH1 0xE5 SHL DUP5 MSTORE PUSH1 0x4 DUP5 ADD MSTORE DUP3 ADD MSTORE PUSH17 0x14995C5D595CDD081B9BDD08199BDD5B99 PUSH1 0x7A SHL PUSH1 0x44 DUP3 ADD MSTORE REVERT JUMPDEST CALLVALUE PUSH2 0x1C7 JUMPI PUSH1 0x20 CALLDATASIZE PUSH1 0x3 NOT ADD SLT PUSH2 0x1C7 JUMPI PUSH1 0x4 CALLDATALOAD PUSH1 0x0 MSTORE PUSH1 0x3 PUSH1 0x20 MSTORE PUSH1 0x20 PUSH1 0x40 PUSH1 0x0 KECCAK256 SLOAD PUSH1 0x40 MLOAD SWAP1 DUP2 MSTORE RETURN JUMPDEST CALLVALUE PUSH2 0x1C7 JUMPI PUSH1 0xA0 CALLDATASIZE PUSH1 0x3 NOT ADD SLT PUSH2 0x1C7 JUMPI PUSH2 0x44E PUSH2 0x1862 JUMP JUMPDEST PUSH2 0x456 PUSH2 0x1878 JUMP JUMPDEST SWAP1 PUSH8 0xFFFFFFFFFFFFFFFF SWAP1 PUSH1 0x44 CALLDATALOAD PUSH1 0x64 CALLDATALOAD DUP4 DUP2 GT PUSH2 0x1C7 JUMPI PUSH2 0x47C SWAP1 CALLDATASIZE SWAP1 PUSH1 0x4 ADD PUSH2 0x1A8E JUMP JUMPDEST SWAP5 SWAP1 SWAP4 PUSH1 0x84 CALLDATALOAD SWAP1 PUSH1 0x8 SLOAD PUSH1 0x40 MLOAD SWAP8 PUSH1 0x20 SWAP9 DUP10 DUP2 ADD SWAP1 CALLER PUSH1 0x60 SHL DUP3 MSTORE PUSH1 0x1 DUP1 PUSH1 0xA0 SHL SUB SWAP4 DUP5 DUP11 AND SWAP10 PUSH1 0x1 PUSH1 0x1 PUSH1 0x60 SHL SUB NOT SWAP1 PUSH1 0x60 SHL AND PUSH1 0x34 DUP4 ADD MSTORE DUP9 PUSH1 0x48 DUP4 ADD MSTORE TIMESTAMP PUSH1 0x68 DUP4 ADD MSTORE PUSH1 0x88 DUP3 ADD MSTORE PUSH1 0x88 DUP2 MSTORE PUSH1 0xC0 DUP2 ADD DUP2 DUP2 LT DUP7 DUP3 GT OR PUSH2 0x698 JUMPI PUSH1 0x40 MSTORE MLOAD SWAP1 KECCAK256 SWAP8 DUP9 PUSH1 0x0 MSTORE PUSH1 0x5 DUP11 MSTORE PUSH1 0x40 PUSH1 0x0 KECCAK256 SWAP6 DUP10 DUP8 SSTORE PUSH1 0x1 SWAP4 DUP5 DUP9 ADD SWAP1 PUSH1 0x1 PUSH1 0x1 PUSH1 0x60 SHL SUB PUSH1 0xA0 SHL SWAP2 CALLER DUP4 DUP3 SLOAD AND OR SWAP1 SSTORE PUSH1 0x2 DUP10 ADD DUP12 DUP4 DUP3 SLOAD AND OR SWAP1 SSTORE PUSH1 0x3 DUP10 ADD SWAP3 AND SWAP1 DUP3 SLOAD AND OR SWAP1 SSTORE DUP7 PUSH1 0x4 DUP8 ADD SSTORE PUSH1 0x5 DUP7 ADD SWAP4 DUP3 GT PUSH2 0x698 JUMPI PUSH2 0x54B DUP3 PUSH2 0x545 DUP7 SLOAD PUSH2 0x188E JUMP JUMPDEST DUP7 PUSH2 0x1AFF JUMP JUMPDEST PUSH1 0x0 SWAP1 PUSH1 0x1F DUP4 GT PUSH1 0x1 EQ PUSH2 0x633 JUMPI SWAP3 DUP3 SWAP4 SWAP2 DUP4 SWAP3 PUSH1 0x0 SWAP5 PUSH2 0x628 JUMPI JUMPDEST POP POP SHL SWAP2 PUSH1 0x0 NOT SWAP1 PUSH1 0x3 SHL SHR NOT AND OR SWAP1 SSTORE JUMPDEST TIMESTAMP PUSH1 0x6 DUP4 ADD SSTORE DUP1 ISZERO PUSH2 0x61D JUMPI TIMESTAMP ADD DUP1 TIMESTAMP GT PUSH2 0x607 JUMPI PUSH1 0x8 SWAP1 SWAP2 JUMPDEST PUSH1 0x7 DUP2 ADD SWAP3 DUP4 SSTORE ADD PUSH1 0xFF NOT DUP2 SLOAD AND SWAP1 SSTORE CALLER PUSH1 0x0 MSTORE PUSH1 0x6 DUP6 MSTORE PUSH2 0x5B9 DUP5 PUSH1 0x40 PUSH1 0x0 KECCAK256 PUSH2 0x1B44 JUMP JUMPDEST PUSH2 0x5C4 PUSH1 0x8 SLOAD PUSH2 0x1B7E JUMP JUMPDEST PUSH1 0x8 SSTORE SLOAD SWAP1 PUSH1 0x40 MLOAD SWAP3 DUP4 MSTORE DUP5 DUP4 ADD MSTORE PUSH1 0x40 DUP3 ADD MSTORE DUP2 PUSH32 0xD18E36E1183945E7F8D5D03C4DF5D432E0639778DF0E95A6477008AD46F683D7 PUSH1 0x60 CALLER SWAP4 LOG3 PUSH1 0x40 MLOAD SWAP1 DUP2 MSTORE RETURN JUMPDEST PUSH4 0x4E487B71 PUSH1 0xE0 SHL PUSH1 0x0 MSTORE PUSH1 0x11 PUSH1 0x4 MSTORE PUSH1 0x24 PUSH1 0x0 REVERT JUMPDEST POP PUSH1 0x8 PUSH1 0x0 SWAP2 PUSH2 0x593 JUMP JUMPDEST ADD CALLDATALOAD SWAP3 POP DUP12 DUP1 PUSH2 0x567 JUMP JUMPDEST PUSH1 0x1F NOT DUP4 AND SWAP2 DUP6 PUSH1 0x0 MSTORE DUP4 DUP13 PUSH1 0x0 KECCAK256 SWAP4 DUP14 PUSH1 0x0 SWAP1 JUMPDEST DUP9 DUP4 DUP4 LT PUSH2 0x680 JUMPI POP POP POP LT PUSH2 0x666 JUMPI JUMPDEST POP POP POP DUP2 SHL ADD SWAP1 SSTORE PUSH2 0x579 JUMP JUMPDEST ADD CALLDATALOAD PUSH1 0x0 NOT PUSH1 0x3 DUP5 SWAP1 SHL PUSH1 0xF8 AND SHR NOT AND SWAP1 SSTORE DUP10 DUP1 DUP1 PUSH2 0x659 JUMP JUMPDEST DUP6 DUP8 ADD CALLDATALOAD DUP9 SSTORE SWAP1 SWAP7 ADD SWAP6 SWAP4 DUP5 ADD SWAP4 DUP8 SWAP4 POP ADD DUP15 PUSH2 0x648 JUMP JUMPDEST PUSH4 0x4E487B71 PUSH1 0xE0 SHL PUSH1 0x0 MSTORE PUSH1 0x41 PUSH1 0x4 MSTORE PUSH1 0x24 PUSH1 0x0 REVERT JUMPDEST CALLVALUE PUSH2 0x1C7 JUMPI PUSH1 0x20 CALLDATASIZE PUSH1 0x3 NOT ADD SLT PUSH2 0x1C7 JUMPI PUSH1 0x4 CALLDATALOAD PUSH1 0x0 MSTORE PUSH1 0x2 PUSH1 0x20 MSTORE PUSH1 0xFF PUSH1 0xE PUSH1 0x40 PUSH1 0x0 KECCAK256 ADD SLOAD AND PUSH1 0x5 DUP2 LT ISZERO PUSH2 0x6ED JUMPI PUSH1 0x20 SWAP1 PUSH1 0x2 PUSH1 0x40 MLOAD SWAP2 EQ DUP2 MSTORE RETURN JUMPDEST PUSH4 0x4E487B71 PUSH1 0xE0 SHL PUSH1 0x0 MSTORE PUSH1 0x21 PUSH1 0x4 MSTORE PUSH1 0x24 PUSH1 0x0 REVERT JUMPDEST CALLVALUE PUSH2 0x1C7 JUMPI PUSH1 0x0 CALLDATASIZE PUSH1 0x3 NOT ADD SLT PUSH2 0x1C7 JUMPI PUSH1 0x20 PUSH1 0xA SLOAD PUSH1 0x40 MLOAD SWAP1 DUP2 MSTORE RETURN JUMPDEST CALLVALUE PUSH2 0x1C7 JUMPI PUSH1 0x0 CALLDATASIZE PUSH1 0x3 NOT ADD SLT PUSH2 0x1C7 JUMPI PUSH1 0x0 SLOAD PUSH1 0x40 MLOAD PUSH1 0x1 PUSH1 0x1 PUSH1 0xA0 SHL SUB SWAP1 SWAP2 AND DUP2 MSTORE PUSH1 0x20 SWAP1 RETURN JUMPDEST CALLVALUE PUSH2 0x1C7 JUMPI PUSH1 0x40 CALLDATASIZE PUSH1 0x3 NOT ADD SLT PUSH2 0x1C7 JUMPI PUSH2 0x763 PUSH2 0x1862 JUMP JUMPDEST PUSH1 0x1 PUSH1 0x1 PUSH1 0xA0 SHL SUB AND PUSH1 0x0 SWAP1 DUP2 MSTORE PUSH1 0x6 PUSH1 0x20 MSTORE PUSH1 0x40 SWAP1 KECCAK256 DUP1 SLOAD PUSH1 0x24 CALLDATALOAD SWAP2 SWAP1 DUP3 LT ISZERO PUSH2 0x1C7 JUMPI PUSH1 0x20 SWAP2 PUSH2 0x794 SWAP2 PUSH2 0x1A3B JUMP JUMPDEST SWAP1 SLOAD PUSH1 0x40 MLOAD SWAP2 PUSH1 0x3 SHL SHR DUP2 MSTORE RETURN JUMPDEST CALLVALUE PUSH2 0x1C7 JUMPI PUSH1 0x20 DUP1 PUSH1 0x3 NOT CALLDATASIZE ADD SLT PUSH2 0x1C7 JUMPI PUSH1 0x4 CALLDATALOAD PUSH1 0x0 MSTORE PUSH1 0x2 SWAP1 DUP2 DUP2 MSTORE PUSH1 0x40 PUSH1 0x0 KECCAK256 SWAP2 PUSH2 0x7E0 PUSH1 0x4 DUP5 SLOAD SWAP5 PUSH2 0x7D9 DUP7 ISZERO ISZERO PUSH2 0x1B8D JUMP JUMPDEST ADD SLOAD PUSH2 0x1BF8 JUMP JUMPDEST SWAP3 PUSH1 0x40 MLOAD PUSH2 0x7ED DUP2 PUSH2 0x1902 JUMP JUMPDEST PUSH1 0x10 DUP2 MSTORE PUSH16 0x181899199A1A9B1B9C1CB0B131B232B3 PUSH1 0x81 SHL DUP5 DUP3 ADD MSTORE PUSH1 0x40 MLOAD SWAP2 PUSH2 0x816 DUP4 PUSH2 0x1902 JUMP JUMPDEST PUSH1 0x8 DUP4 MSTORE DUP5 DUP4 ADD SWAP4 DUP6 CALLDATASIZE DUP7 CALLDATACOPY PUSH1 0x0 JUMPDEST PUSH1 0x4 DUP2 LT PUSH2 0x894 JUMPI PUSH2 0x86D DUP8 PUSH2 0x87C PUSH1 0x25 DUP12 DUP11 DUP11 PUSH1 0x40 MLOAD SWAP7 DUP8 SWAP4 PUSH5 0x464C415245 PUSH1 0xD8 SHL DUP9 DUP7 ADD MSTORE PUSH2 0x85E DUP2 MLOAD DUP1 SWAP3 DUP11 DUP10 DUP10 ADD SWAP2 ADD PUSH2 0x19E6 JUMP JUMPDEST DUP5 ADD SWAP2 MLOAD DUP1 SWAP4 DUP7 DUP5 ADD SWAP1 PUSH2 0x19E6 JUMP JUMPDEST ADD SUB PUSH1 0x5 DUP2 ADD DUP6 MSTORE ADD DUP4 PUSH2 0x191E JUMP JUMPDEST PUSH2 0x890 PUSH1 0x40 MLOAD SWAP3 DUP3 DUP5 SWAP4 DUP5 MSTORE DUP4 ADD SWAP1 PUSH2 0x1A09 JUMP JUMPDEST SUB SWAP1 RETURN JUMPDEST DUP7 DUP2 LT ISZERO PUSH2 0x913 JUMPI DUP3 DUP2 BYTE SWAP1 PUSH1 0xF PUSH1 0x1 PUSH1 0x1 PUSH1 0xF8 SHL SUB NOT DUP1 PUSH2 0x8BC PUSH1 0x4 DUP7 SWAP1 SHR DUP5 AND DUP10 PUSH2 0x1BE7 JUMP JUMPDEST MLOAD AND PUSH1 0x1 SWAP3 DUP5 DUP5 SHL SWAP6 DUP6 DUP8 DIV DUP9 EQ DUP7 ISZERO OR ISZERO PUSH2 0x607 JUMPI PUSH2 0x8EB SWAP3 PUSH1 0x0 BYTE PUSH2 0x8E3 DUP9 DUP14 PUSH2 0x1BE7 JUMP JUMPDEST MSTORE8 AND DUP9 PUSH2 0x1BE7 JUMP JUMPDEST MLOAD AND SWAP3 DUP2 ADD DUP1 SWAP2 GT PUSH2 0x607 JUMPI PUSH2 0x908 PUSH2 0x90E SWAP4 PUSH1 0x0 BYTE SWAP2 DUP9 PUSH2 0x1BE7 JUMP JUMPDEST MSTORE8 PUSH2 0x1B7E JUMP JUMPDEST PUSH2 0x825 JUMP JUMPDEST PUSH4 0x4E487B71 PUSH1 0xE0 SHL PUSH1 0x0 MSTORE PUSH1 0x32 PUSH1 0x4 MSTORE PUSH1 0x24 PUSH1 0x0 REVERT JUMPDEST CALLVALUE PUSH2 0x1C7 JUMPI PUSH1 0x0 CALLDATASIZE PUSH1 0x3 NOT ADD SLT PUSH2 0x1C7 JUMPI PUSH1 0x20 PUSH1 0x8 SLOAD PUSH1 0x40 MLOAD SWAP1 DUP2 MSTORE RETURN JUMPDEST CALLVALUE PUSH2 0x1C7 JUMPI PUSH1 0x0 CALLDATASIZE PUSH1 0x3 NOT ADD SLT PUSH2 0x1C7 JUMPI PUSH1 0x9 SLOAD PUSH1 0x40 MLOAD PUSH1 0x1 PUSH1 0x1 PUSH1 0xA0 SHL SUB SWAP1 SWAP2 AND DUP2 MSTORE PUSH1 0x20 SWAP1 RETURN JUMPDEST CALLVALUE PUSH2 0x1C7 JUMPI PUSH1 0x0 CALLDATASIZE PUSH1 0x3 NOT ADD SLT PUSH2 0x1C7 JUMPI PUSH2 0x989 PUSH2 0x1ABC JUMP JUMPDEST PUSH1 0x0 DUP1 SLOAD PUSH1 0x1 PUSH1 0x1 PUSH1 0xA0 SHL SUB NOT DUP2 AND DUP3 SSTORE PUSH1 0x1 PUSH1 0x1 PUSH1 0xA0 SHL SUB AND PUSH32 0x8BE0079C531659141344CD1FD0A4F28419497F9722A3DAAFE3B4186F6B6457E0 DUP3 DUP1 LOG3 STOP JUMPDEST PUSH1 0xE0 CALLDATASIZE PUSH1 0x3 NOT ADD SLT PUSH2 0x1C7 JUMPI PUSH2 0x9DD PUSH2 0x1878 JUMP JUMPDEST PUSH1 0x44 CALLDATALOAD SWAP1 PUSH1 0x1 PUSH1 0x1 PUSH1 0xA0 SHL SUB DUP3 AND DUP3 SUB PUSH2 0x1C7 JUMPI PUSH1 0x84 CALLDATALOAD SWAP1 PUSH1 0xFF DUP3 AND DUP3 SUB PUSH2 0x1C7 JUMPI PUSH1 0xA4 CALLDATALOAD PUSH8 0xFFFFFFFFFFFFFFFF DUP2 GT PUSH2 0x1C7 JUMPI PUSH2 0xA1F SWAP1 CALLDATASIZE SWAP1 PUSH1 0x4 ADD PUSH2 0x1A8E JUMP JUMPDEST SWAP1 SWAP4 PUSH1 0xC4 CALLDATALOAD PUSH8 0xFFFFFFFFFFFFFFFF DUP2 GT PUSH2 0x1C7 JUMPI PUSH2 0xA41 SWAP1 CALLDATASIZE SWAP1 PUSH1 0x4 ADD PUSH2 0x1A8E JUMP JUMPDEST SWAP6 SWAP1 SWAP2 PUSH1 0x2 PUSH1 0x1 SLOAD EQ PUSH2 0xED4 JUMPI PUSH1 0x2 PUSH1 0x1 SSTORE PUSH1 0xA SLOAD CALLVALUE LT PUSH2 0xE9C JUMPI PUSH1 0x4 CALLDATALOAD ISZERO PUSH2 0xE65 JUMPI PUSH1 0x4 CALLDATALOAD PUSH1 0x0 MSTORE PUSH1 0x3 PUSH1 0x20 MSTORE PUSH1 0x40 PUSH1 0x0 KECCAK256 SLOAD PUSH2 0xE29 JUMPI PUSH1 0x7 SLOAD PUSH1 0x40 MLOAD SWAP1 PUSH1 0x4 CALLDATALOAD PUSH1 0x20 DUP4 ADD MSTORE CALLER PUSH1 0x60 SHL PUSH1 0x40 DUP4 ADD MSTORE TIMESTAMP PUSH1 0x54 DUP4 ADD MSTORE PUSH1 0x74 DUP3 ADD MSTORE PUSH1 0x74 DUP2 MSTORE DUP1 PUSH1 0xA0 DUP2 ADD LT PUSH8 0xFFFFFFFFFFFFFFFF PUSH1 0xA0 DUP4 ADD GT OR PUSH2 0x698 JUMPI PUSH1 0xA0 DUP2 ADD PUSH1 0x40 MSTORE PUSH1 0x20 DUP2 MLOAD SWAP2 ADD KECCAK256 SWAP6 DUP7 PUSH1 0x0 MSTORE PUSH1 0x2 PUSH1 0x20 MSTORE PUSH1 0x40 PUSH1 0x0 KECCAK256 SWAP2 DUP8 DUP4 SSTORE PUSH2 0xAE7 PUSH1 0x1 DUP5 ADD SLOAD PUSH2 0x188E JUMP JUMPDEST PUSH1 0x1F DUP2 GT PUSH2 0xE04 JUMPI JUMPDEST POP PUSH1 0x1E PUSH15 0xE0C2C6E65C6060705C6060625C607 PUSH1 0x8B SHL ADD PUSH1 0x1 DUP5 ADD SSTORE PUSH1 0x4 CALLDATALOAD PUSH1 0x2 DUP5 ADD SSTORE NUMBER PUSH1 0x3 DUP5 ADD SSTORE TIMESTAMP PUSH1 0x4 DUP5 ADD SSTORE PUSH1 0x5 DUP4 ADD PUSH1 0x1 PUSH1 0x1 PUSH1 0x60 SHL SUB PUSH1 0xA0 SHL SWAP1 CALLER DUP3 DUP3 SLOAD AND OR SWAP1 SSTORE PUSH1 0x6 DUP5 ADD PUSH1 0x1 DUP1 PUSH1 0xA0 SHL SUB DUP10 AND DUP3 DUP3 SLOAD AND OR SWAP1 SSTORE PUSH1 0x7 DUP5 ADD SWAP2 PUSH1 0x1 DUP1 PUSH1 0xA0 SHL SUB AND SWAP1 DUP3 SLOAD AND OR SWAP1 SSTORE PUSH1 0x64 CALLDATALOAD PUSH1 0x8 DUP4 ADD SSTORE PUSH1 0xFF PUSH1 0x9 DUP4 ADD SWAP2 AND PUSH1 0xFF NOT DUP3 SLOAD AND OR SWAP1 SSTORE PUSH8 0xFFFFFFFFFFFFFFFF DUP5 GT PUSH2 0x698 JUMPI PUSH2 0xBA2 DUP5 PUSH2 0xB99 PUSH1 0xA DUP5 ADD SLOAD PUSH2 0x188E JUMP JUMPDEST PUSH1 0xA DUP5 ADD PUSH2 0x1AFF JUMP JUMPDEST DUP4 PUSH1 0x0 PUSH1 0x1F DUP3 GT PUSH1 0x1 EQ PUSH2 0xD96 JUMPI PUSH1 0x0 SWAP2 PUSH2 0xD8B JUMPI JUMPDEST POP DUP5 PUSH1 0x1 SHL SWAP1 PUSH1 0x0 NOT DUP7 PUSH1 0x3 SHL SHR NOT AND OR PUSH1 0xA DUP3 ADD SSTORE JUMPDEST PUSH8 0xFFFFFFFFFFFFFFFF DUP8 GT PUSH2 0x698 JUMPI DUP7 DUP5 SWAP4 PUSH2 0xBFD PUSH1 0x20 SWAP10 PUSH2 0xBF4 PUSH1 0xB DUP7 ADD SLOAD PUSH2 0x188E JUMP JUMPDEST PUSH1 0xB DUP7 ADD PUSH2 0x1AFF JUMP JUMPDEST PUSH1 0x0 SWAP1 PUSH1 0x1F DUP4 GT PUSH1 0x1 EQ PUSH2 0xD14 JUMPI PUSH1 0x0 SWAP2 SWAP1 DUP4 PUSH2 0xD09 JUMPI JUMPDEST POP POP DUP2 PUSH1 0x1 SHL SWAP2 PUSH1 0x0 NOT SWAP1 PUSH1 0x3 SHL SHR NOT AND OR PUSH1 0xB DUP3 ADD SSTORE JUMPDEST PUSH1 0xE DUP2 ADD PUSH1 0x1 PUSH1 0xFF NOT DUP3 SLOAD AND OR SWAP1 SSTORE PUSH1 0xF TIMESTAMP SWAP2 ADD SSTORE PUSH1 0x4 CALLDATALOAD PUSH1 0x0 MSTORE PUSH1 0x3 DUP7 MSTORE DUP5 PUSH1 0x40 PUSH1 0x0 KECCAK256 SSTORE CALLER PUSH1 0x0 MSTORE PUSH1 0x4 DUP7 MSTORE PUSH2 0xC69 DUP6 PUSH1 0x40 PUSH1 0x0 KECCAK256 PUSH2 0x1B44 JUMP JUMPDEST PUSH1 0x1 DUP1 PUSH1 0xA0 SHL SUB DUP5 AND PUSH1 0x0 MSTORE PUSH1 0x4 DUP7 MSTORE PUSH2 0xC87 DUP6 PUSH1 0x40 PUSH1 0x0 KECCAK256 PUSH2 0x1B44 JUMP JUMPDEST PUSH2 0xC92 PUSH1 0x7 SLOAD PUSH2 0x1B7E JUMP JUMPDEST PUSH1 0x7 SSTORE PUSH1 0x40 MLOAD SWAP4 PUSH1 0x1 DUP1 PUSH1 0xA0 SHL SUB AND DUP5 MSTORE PUSH1 0x64 CALLDATALOAD DUP7 DUP6 ADD MSTORE PUSH1 0x60 PUSH1 0x40 DUP6 ADD MSTORE DUP2 PUSH1 0x60 DUP6 ADD MSTORE PUSH1 0x80 DUP5 ADD CALLDATACOPY PUSH1 0x0 PUSH1 0x80 DUP3 DUP5 ADD ADD MSTORE DUP3 PUSH32 0x13601EEBF7F2449FF850075DEC019BB04854E2B69B7E42F2AC1C90C299C84CD8 CALLER SWAP4 PUSH1 0x80 DUP2 PUSH1 0x4 CALLDATALOAD SWAP6 PUSH1 0x1F DUP1 NOT SWAP2 ADD AND DUP2 ADD SUB ADD SWAP1 LOG4 PUSH1 0x1 DUP1 SSTORE PUSH1 0x40 MLOAD SWAP1 DUP2 MSTORE RETURN JUMPDEST ADD CALLDATALOAD SWAP1 POP DUP10 DUP1 PUSH2 0xC15 JUMP JUMPDEST PUSH1 0xB DUP5 SWAP4 SWAP3 SWAP7 SWAP6 SWAP5 ADD PUSH1 0x0 MSTORE DUP10 PUSH1 0x0 KECCAK256 SWAP1 PUSH1 0x0 SWAP7 JUMPDEST PUSH1 0x1F NOT DUP5 AND DUP9 LT PUSH2 0xD71 JUMPI PUSH1 0x1 SWAP5 SWAP6 SWAP7 SWAP8 POP DUP4 PUSH1 0x1F NOT DUP2 AND LT PUSH2 0xD57 JUMPI JUMPDEST POP POP POP DUP2 SHL ADD PUSH1 0xB DUP3 ADD SSTORE PUSH2 0xC2D JUMP JUMPDEST ADD CALLDATALOAD PUSH1 0x0 NOT PUSH1 0x3 DUP5 SWAP1 SHL PUSH1 0xF8 AND SHR NOT AND SWAP1 SSTORE DUP10 DUP1 DUP1 PUSH2 0xD47 JUMP JUMPDEST DUP2 DUP2 ADD CALLDATALOAD DUP4 SSTORE SWAP7 DUP12 ADD SWAP7 DUP9 SWAP7 POP PUSH1 0x1 SWAP1 SWAP3 ADD SWAP2 DUP12 ADD PUSH2 0xD29 JUMP JUMPDEST SWAP1 POP DUP3 ADD CALLDATALOAD DUP9 PUSH2 0xBB8 JUMP JUMPDEST SWAP1 POP PUSH1 0xA DUP3 ADD PUSH1 0x0 MSTORE PUSH1 0x20 PUSH1 0x0 KECCAK256 SWAP1 PUSH1 0x0 JUMPDEST PUSH1 0x1F NOT DUP8 AND DUP2 LT PUSH2 0xDEC JUMPI POP DUP6 PUSH1 0x1F NOT DUP2 AND LT PUSH2 0xDD2 JUMPI JUMPDEST POP POP PUSH1 0x1 DUP5 DUP2 SHL ADD PUSH1 0xA DUP3 ADD SSTORE PUSH2 0xBCF JUMP JUMPDEST DUP4 ADD CALLDATALOAD PUSH1 0x0 NOT PUSH1 0x3 DUP8 SWAP1 SHL PUSH1 0xF8 AND SHR NOT AND SWAP1 SSTORE DUP8 DUP1 PUSH2 0xDC0 JUMP JUMPDEST SWAP1 SWAP2 PUSH1 0x20 PUSH1 0x1 DUP2 SWAP3 DUP6 DUP9 ADD CALLDATALOAD DUP2 SSTORE ADD SWAP4 ADD SWAP2 ADD PUSH2 0xDA8 JUMP JUMPDEST PUSH2 0xE23 SWAP1 PUSH1 0x1 DUP6 ADD PUSH1 0x0 MSTORE PUSH1 0x1F PUSH1 0x20 PUSH1 0x0 KECCAK256 SWAP2 ADD PUSH1 0x5 SHR DUP2 ADD SWAP1 PUSH2 0x1AE8 JUMP JUMPDEST DUP10 PUSH2 0xAF0 JUMP JUMPDEST PUSH1 0x40 MLOAD PUSH3 0x461BCD PUSH1 0xE5 SHL DUP2 MSTORE PUSH1 0x20 PUSH1 0x4 DUP3 ADD MSTORE PUSH1 0x14 PUSH1 0x24 DUP3 ADD MSTORE PUSH20 0x50726F6F6620616C726561647920657869737473 PUSH1 0x60 SHL PUSH1 0x44 DUP3 ADD MSTORE PUSH1 0x64 SWAP1 REVERT JUMPDEST PUSH1 0x40 MLOAD PUSH3 0x461BCD PUSH1 0xE5 SHL DUP2 MSTORE PUSH1 0x20 PUSH1 0x4 DUP3 ADD MSTORE PUSH1 0xF PUSH1 0x24 DUP3 ADD MSTORE PUSH15 0x92DCECC2D8D2C840E8F040D0C2E6D PUSH1 0x8B SHL PUSH1 0x44 DUP3 ADD MSTORE PUSH1 0x64 SWAP1 REVERT JUMPDEST PUSH1 0x40 MLOAD PUSH3 0x461BCD PUSH1 0xE5 SHL DUP2 MSTORE PUSH1 0x20 PUSH1 0x4 DUP3 ADD MSTORE PUSH1 0x10 PUSH1 0x24 DUP3 ADD MSTORE PUSH16 0x496E73756666696369656E7420666565 PUSH1 0x80 SHL PUSH1 0x44 DUP3 ADD MSTORE PUSH1 0x64 SWAP1 REVERT JUMPDEST PUSH1 0x40 MLOAD PUSH4 0x3EE5AEB5 PUSH1 0xE0 SHL DUP2 MSTORE PUSH1 0x4 SWAP1 REVERT JUMPDEST CALLVALUE PUSH2 0x1C7 JUMPI PUSH1 0x60 CALLDATASIZE PUSH1 0x3 NOT ADD SLT PUSH2 0x1C7 JUMPI PUSH1 0x4 CALLDATALOAD PUSH1 0x24 CALLDATALOAD PUSH1 0x44 CALLDATALOAD SWAP1 DUP3 PUSH1 0x0 MSTORE PUSH1 0x2 PUSH1 0x20 MSTORE PUSH1 0x40 PUSH1 0x0 KECCAK256 SWAP1 PUSH2 0xF1C DUP3 SLOAD ISZERO ISZERO PUSH2 0x1B8D JUMP JUMPDEST PUSH1 0x5 DUP3 ADD SLOAD CALLER PUSH1 0x1 PUSH1 0x1 PUSH1 0xA0 SHL SUB SWAP2 DUP3 AND EQ SWAP1 DUP2 ISZERO PUSH2 0xFC6 JUMPI JUMPDEST POP ISZERO PUSH2 0xF90 JUMPI PUSH32 0x815076FD0CCD822C644CD979B0BC798F01234326593872471849163B0A85AF71 SWAP3 PUSH1 0xE DUP4 DUP4 PUSH1 0xC PUSH1 0x60 SWAP7 ADD SSTORE DUP3 PUSH1 0xD DUP3 ADD SSTORE ADD PUSH1 0x2 PUSH1 0xFF NOT DUP3 SLOAD AND OR SWAP1 SSTORE PUSH1 0x40 MLOAD SWAP2 PUSH1 0x2 DUP4 MSTORE PUSH1 0x20 DUP4 ADD MSTORE PUSH1 0x40 DUP3 ADD MSTORE LOG2 STOP JUMPDEST PUSH1 0x40 MLOAD PUSH3 0x461BCD PUSH1 0xE5 SHL DUP2 MSTORE PUSH1 0x20 PUSH1 0x4 DUP3 ADD MSTORE PUSH1 0xE PUSH1 0x24 DUP3 ADD MSTORE PUSH14 0x139BDD08185D5D1A1BDC9A5E9959 PUSH1 0x92 SHL PUSH1 0x44 DUP3 ADD MSTORE PUSH1 0x64 SWAP1 REVERT JUMPDEST SWAP1 POP PUSH1 0x0 SLOAD AND CALLER EQ DUP6 PUSH2 0xF36 JUMP JUMPDEST CALLVALUE PUSH2 0x1C7 JUMPI PUSH1 0x0 CALLDATASIZE PUSH1 0x3 NOT ADD SLT PUSH2 0x1C7 JUMPI PUSH2 0xFED PUSH2 0x1ABC JUMP JUMPDEST PUSH1 0x0 DUP1 SLOAD DUP2 SWAP1 DUP2 SWAP1 DUP2 SWAP1 SELFBALANCE SWAP1 PUSH1 0x1 PUSH1 0x1 PUSH1 0xA0 SHL SUB AND GAS CALL RETURNDATASIZE ISZERO PUSH2 0x106D JUMPI RETURNDATASIZE PUSH2 0x1014 DUP2 PUSH2 0x1BCB JUMP JUMPDEST SWAP1 PUSH2 0x1022 PUSH1 0x40 MLOAD SWAP3 DUP4 PUSH2 0x191E JUMP JUMPDEST DUP2 MSTORE PUSH1 0x0 PUSH1 0x20 RETURNDATASIZE SWAP3 ADD RETURNDATACOPY JUMPDEST ISZERO PUSH2 0x1034 JUMPI STOP JUMPDEST PUSH1 0x40 MLOAD PUSH3 0x461BCD PUSH1 0xE5 SHL DUP2 MSTORE PUSH1 0x20 PUSH1 0x4 DUP3 ADD MSTORE PUSH1 0x11 PUSH1 0x24 DUP3 ADD MSTORE PUSH17 0x15DA5D1A191C985DD85B0819985A5B1959 PUSH1 0x7A SHL PUSH1 0x44 DUP3 ADD MSTORE PUSH1 0x64 SWAP1 REVERT JUMPDEST PUSH2 0x102D JUMP JUMPDEST CALLVALUE PUSH2 0x1C7 JUMPI PUSH1 0x20 DUP1 PUSH1 0x3 NOT CALLDATASIZE ADD SLT PUSH2 0x1C7 JUMPI PUSH1 0x1 PUSH1 0x1 PUSH1 0xA0 SHL SUB PUSH2 0x1094 PUSH2 0x1862 JUMP JUMPDEST AND PUSH1 0x0 MSTORE PUSH1 0x4 DUP2 MSTORE PUSH1 0x40 PUSH1 0x0 KECCAK256 SWAP1 PUSH1 0x40 MLOAD SWAP1 DUP2 DUP2 DUP5 SLOAD SWAP2 DUP3 DUP2 MSTORE ADD SWAP4 PUSH1 0x0 MSTORE DUP2 PUSH1 0x0 KECCAK256 SWAP2 PUSH1 0x0 SWAP1 JUMPDEST DUP3 DUP3 LT PUSH2 0x10DF JUMPI PUSH2 0x890 DUP6 PUSH2 0x10D3 DUP2 DUP10 SUB DUP3 PUSH2 0x191E JUMP JUMPDEST PUSH1 0x40 MLOAD SWAP2 DUP3 SWAP2 DUP3 PUSH2 0x1A53 JUMP JUMPDEST DUP4 SLOAD DUP7 MSTORE SWAP5 DUP6 ADD SWAP5 PUSH1 0x1 SWAP4 DUP5 ADD SWAP4 SWAP1 SWAP2 ADD SWAP1 PUSH2 0x10BC JUMP JUMPDEST CALLVALUE PUSH2 0x1C7 JUMPI PUSH1 0x20 CALLDATASIZE PUSH1 0x3 NOT ADD SLT PUSH2 0x1C7 JUMPI PUSH1 0x0 PUSH2 0x120 PUSH1 0x40 MLOAD PUSH2 0x1118 DUP2 PUSH2 0x18E5 JUMP JUMPDEST DUP3 DUP2 MSTORE DUP3 PUSH1 0x20 DUP3 ADD MSTORE DUP3 PUSH1 0x40 DUP3 ADD MSTORE DUP3 PUSH1 0x60 DUP3 ADD MSTORE DUP3 PUSH1 0x80 DUP3 ADD MSTORE PUSH1 0x60 PUSH1 0xA0 DUP3 ADD MSTORE DUP3 PUSH1 0xC0 DUP3 ADD MSTORE DUP3 PUSH1 0xE0 DUP3 ADD MSTORE DUP3 PUSH2 0x100 DUP3 ADD MSTORE ADD MSTORE PUSH1 0x4 CALLDATALOAD PUSH1 0x0 MSTORE PUSH1 0x5 PUSH1 0x20 MSTORE PUSH1 0x40 PUSH1 0x0 KECCAK256 PUSH1 0x9 PUSH1 0x40 MLOAD SWAP2 PUSH2 0x116E DUP4 PUSH2 0x18E5 JUMP JUMPDEST DUP1 SLOAD DUP4 MSTORE PUSH1 0x1 DUP2 ADD SLOAD PUSH1 0x1 PUSH1 0x1 PUSH1 0xA0 SHL SUB SWAP1 DUP2 AND PUSH1 0x20 DUP6 ADD MSTORE PUSH1 0x2 DUP3 ADD SLOAD DUP2 AND PUSH1 0x40 DUP6 ADD MSTORE PUSH1 0x3 DUP3 ADD SLOAD AND PUSH1 0x60 DUP5 ADD MSTORE PUSH1 0x4 DUP2 ADD SLOAD PUSH1 0x80 DUP5 ADD MSTORE PUSH2 0x11B4 PUSH1 0x5 DUP3 ADD PUSH2 0x1940 JUMP JUMPDEST PUSH1 0xA0 DUP5 ADD MSTORE PUSH1 0x6 DUP2 ADD SLOAD PUSH1 0xC0 DUP5 ADD MSTORE PUSH1 0x7 DUP2 ADD SLOAD PUSH1 0xE0 DUP5 ADD MSTORE PUSH1 0xFF PUSH1 0x8 DUP3 ADD SLOAD AND ISZERO ISZERO PUSH2 0x100 DUP5 ADD MSTORE ADD SLOAD PUSH2 0x120 DUP3 ADD MSTORE PUSH1 0x40 MLOAD DUP1 SWAP2 PUSH1 0x20 DUP3 MSTORE DUP1 MLOAD PUSH1 0x20 DUP4 ADD MSTORE PUSH1 0x1 DUP1 PUSH1 0xA0 SHL SUB PUSH1 0x20 DUP3 ADD MLOAD AND PUSH1 0x40 DUP4 ADD MSTORE PUSH1 0x1 DUP1 PUSH1 0xA0 SHL SUB PUSH1 0x40 DUP3 ADD MLOAD AND PUSH1 0x60 DUP4 ADD MSTORE PUSH1 0x1 DUP1 PUSH1 0xA0 SHL SUB PUSH1 0x60 DUP3 ADD MLOAD AND PUSH1 0x80 DUP4 ADD MSTORE PUSH1 0x80 DUP2 ADD MLOAD PUSH1 0xA0 DUP4 ADD MSTORE PUSH1 0xA0 DUP2 ADD MLOAD PUSH2 0x120 PUSH2 0x1255 PUSH2 0x140 SWAP3 DUP4 PUSH1 0xC0 DUP8 ADD MSTORE PUSH2 0x160 DUP7 ADD SWAP1 PUSH2 0x1A09 JUMP JUMPDEST SWAP3 PUSH1 0xC0 DUP2 ADD MLOAD PUSH1 0xE0 DUP7 ADD MSTORE PUSH1 0xE0 DUP2 ADD MLOAD PUSH2 0x100 DUP7 ADD MSTORE PUSH2 0x100 DUP2 ADD MLOAD ISZERO ISZERO DUP3 DUP7 ADD MSTORE ADD MLOAD SWAP1 DUP4 ADD MSTORE SUB SWAP1 RETURN JUMPDEST CALLVALUE PUSH2 0x1C7 JUMPI PUSH1 0x20 CALLDATASIZE PUSH1 0x3 NOT ADD SLT PUSH2 0x1C7 JUMPI PUSH1 0x4 CALLDATALOAD PUSH1 0x0 MSTORE PUSH1 0x2 PUSH1 0x20 MSTORE PUSH1 0x40 PUSH1 0x0 KECCAK256 DUP1 SLOAD PUSH1 0x1 DUP3 ADD PUSH2 0x12B1 SWAP1 PUSH2 0x1940 JUMP JUMPDEST SWAP2 PUSH1 0x2 DUP2 ADD SLOAD SWAP3 PUSH1 0x3 DUP3 ADD SLOAD SWAP4 PUSH1 0x4 DUP4 ADD SLOAD SWAP1 PUSH1 0x1 PUSH1 0xA0 SHL PUSH1 0x1 SWAP1 SUB SWAP1 DUP2 PUSH1 0x5 DUP7 ADD SLOAD AND SWAP2 DUP1 PUSH1 0x6 DUP8 ADD SLOAD AND SWAP1 PUSH1 0x7 DUP8 ADD SLOAD AND PUSH1 0x8 DUP8 ADD SLOAD SWAP1 PUSH1 0x9 DUP9 ADD SLOAD PUSH1 0xFF AND SWAP3 PUSH1 0xA DUP10 ADD PUSH2 0x1300 SWAP1 PUSH2 0x1940 JUMP JUMPDEST SWAP6 PUSH2 0x130D PUSH1 0xB DUP12 ADD PUSH2 0x1940 JUMP JUMPDEST SWAP8 PUSH1 0xC DUP12 ADD SLOAD SWAP13 PUSH1 0xD DUP13 ADD SLOAD SWAP11 PUSH1 0xE DUP14 ADD SLOAD PUSH1 0xFF AND SWAP13 PUSH1 0xF ADD SLOAD SWAP14 PUSH1 0x40 MLOAD DUP1 PUSH1 0x80 MSTORE MSTORE PUSH2 0x200 DUP1 PUSH1 0x80 MLOAD PUSH1 0x20 ADD MSTORE PUSH1 0x80 MLOAD ADD PUSH2 0x1348 SWAP2 PUSH2 0x1A09 JUMP JUMPDEST SWAP8 PUSH1 0x80 MLOAD PUSH1 0x40 ADD MSTORE PUSH1 0x80 MLOAD PUSH1 0x60 ADD MSTORE PUSH1 0x80 MLOAD PUSH1 0x80 ADD MSTORE PUSH1 0x80 MLOAD PUSH1 0xA0 ADD MSTORE PUSH1 0x80 MLOAD PUSH1 0xC0 ADD MSTORE PUSH1 0x80 MLOAD PUSH1 0xE0 ADD MSTORE PUSH1 0x80 MLOAD PUSH2 0x100 ADD MSTORE PUSH1 0x80 MLOAD PUSH2 0x120 ADD MSTORE PUSH1 0x80 MLOAD DUP1 DUP3 SUB SWAP1 PUSH2 0x140 ADD MSTORE PUSH2 0x1398 SWAP2 PUSH2 0x1A09 JUMP JUMPDEST PUSH1 0x80 MLOAD DUP1 DUP3 SUB SWAP1 PUSH2 0x160 ADD MSTORE PUSH2 0x13AD SWAP2 PUSH2 0x1A09 JUMP JUMPDEST SWAP4 PUSH1 0x80 MLOAD PUSH2 0x180 ADD MSTORE PUSH1 0x80 MLOAD PUSH2 0x1A0 ADD MSTORE PUSH1 0x80 MLOAD PUSH2 0x1C0 ADD PUSH2 0x13CE SWAP2 PUSH2 0x1A2E JUMP JUMPDEST PUSH1 0x80 MLOAD PUSH2 0x1E0 ADD MSTORE PUSH1 0x80 MLOAD DUP1 SWAP2 SUB SWAP1 RETURN JUMPDEST CALLVALUE PUSH2 0x1C7 JUMPI PUSH1 0x20 CALLDATASIZE PUSH1 0x3 NOT ADD SLT PUSH2 0x1C7 JUMPI PUSH2 0x13F8 PUSH2 0x1ABC JUMP JUMPDEST PUSH1 0x4 CALLDATALOAD PUSH1 0xA SSTORE STOP JUMPDEST CALLVALUE PUSH2 0x1C7 JUMPI PUSH1 0x20 DUP1 PUSH1 0x3 NOT CALLDATASIZE ADD SLT PUSH2 0x1C7 JUMPI PUSH1 0x1 PUSH1 0x1 PUSH1 0xA0 SHL SUB PUSH2 0x1422 PUSH2 0x1862 JUMP JUMPDEST AND PUSH1 0x0 MSTORE PUSH1 0x6 DUP2 MSTORE PUSH1 0x40 PUSH1 0x0 KECCAK256 SWAP1 PUSH1 0x40 MLOAD SWAP1 DUP2 DUP2 DUP5 SLOAD SWAP2 DUP3 DUP2 MSTORE ADD SWAP4 PUSH1 0x0 MSTORE DUP2 PUSH1 0x0 KECCAK256 SWAP2 PUSH1 0x0 SWAP1 JUMPDEST DUP3 DUP3 LT PUSH2 0x1461 JUMPI PUSH2 0x890 DUP6 PUSH2 0x10D3 DUP2 DUP10 SUB DUP3 PUSH2 0x191E JUMP JUMPDEST DUP4 SLOAD DUP7 MSTORE SWAP5 DUP6 ADD SWAP5 PUSH1 0x1 SWAP4 DUP5 ADD SWAP4 SWAP1 SWAP2 ADD SWAP1 PUSH2 0x144A JUMP JUMPDEST CALLVALUE PUSH2 0x1C7 JUMPI PUSH1 0x40 CALLDATASIZE PUSH1 0x3 NOT ADD SLT PUSH2 0x1C7 JUMPI PUSH2 0x1491 PUSH2 0x1862 JUMP JUMPDEST PUSH1 0x1 PUSH1 0x1 PUSH1 0xA0 SHL SUB AND PUSH1 0x0 SWAP1 DUP2 MSTORE PUSH1 0x4 PUSH1 0x20 MSTORE PUSH1 0x40 SWAP1 KECCAK256 DUP1 SLOAD PUSH1 0x24 CALLDATALOAD SWAP2 SWAP1 DUP3 LT ISZERO PUSH2 0x1C7 JUMPI PUSH1 0x20 SWAP2 PUSH2 0x794 SWAP2 PUSH2 0x1A3B JUMP JUMPDEST CALLVALUE PUSH2 0x1C7 JUMPI PUSH1 0x0 CALLDATASIZE PUSH1 0x3 NOT ADD SLT PUSH2 0x1C7 JUMPI PUSH1 0x20 PUSH1 0x7 SLOAD PUSH1 0x40 MLOAD SWAP1 DUP2 MSTORE RETURN JUMPDEST CALLVALUE PUSH2 0x1C7 JUMPI PUSH1 0x20 CALLDATASIZE PUSH1 0x3 NOT ADD SLT PUSH2 0x1C7 JUMPI PUSH1 0x0 PUSH2 0x1E0 PUSH1 0x40 MLOAD PUSH2 0x1502 DUP2 PUSH2 0x18C8 JUMP JUMPDEST DUP3 DUP2 MSTORE PUSH1 0x60 PUSH1 0x20 DUP3 ADD MSTORE DUP3 PUSH1 0x40 DUP3 ADD MSTORE DUP3 PUSH1 0x60 DUP3 ADD MSTORE DUP3 PUSH1 0x80 DUP3 ADD MSTORE DUP3 PUSH1 0xA0 DUP3 ADD MSTORE DUP3 PUSH1 0xC0 DUP3 ADD MSTORE DUP3 PUSH1 0xE0 DUP3 ADD MSTORE DUP3 PUSH2 0x100 DUP3 ADD MSTORE DUP3 PUSH2 0x120 DUP3 ADD MSTORE PUSH1 0x60 PUSH2 0x140 DUP3 ADD MSTORE PUSH1 0x60 PUSH2 0x160 DUP3 ADD MSTORE DUP3 PUSH2 0x180 DUP3 ADD MSTORE DUP3 PUSH2 0x1A0 DUP3 ADD MSTORE DUP3 PUSH2 0x1C0 DUP3 ADD MSTORE ADD MSTORE PUSH1 0x4 CALLDATALOAD PUSH1 0x0 MSTORE PUSH1 0x2 PUSH1 0x20 MSTORE PUSH1 0x40 PUSH1 0x0 KECCAK256 PUSH1 0x40 MLOAD SWAP1 PUSH2 0x1582 DUP3 PUSH2 0x18C8 JUMP JUMPDEST DUP1 SLOAD DUP3 MSTORE PUSH2 0x1592 PUSH1 0x1 DUP3 ADD PUSH2 0x1940 JUMP JUMPDEST PUSH1 0x20 DUP4 ADD MSTORE PUSH1 0x2 DUP2 ADD SLOAD PUSH1 0x40 DUP4 ADD MSTORE PUSH1 0x3 DUP2 ADD SLOAD PUSH1 0x60 DUP4 ADD MSTORE PUSH1 0x4 DUP2 ADD SLOAD PUSH1 0x80 DUP4 ADD MSTORE PUSH1 0x5 DUP2 ADD SLOAD PUSH1 0x1 PUSH1 0x1 PUSH1 0xA0 SHL SUB SWAP1 DUP2 AND PUSH1 0xA0 DUP5 ADD MSTORE PUSH1 0x6 DUP3 ADD SLOAD DUP2 AND PUSH1 0xC0 DUP5 ADD MSTORE PUSH1 0x7 DUP3 ADD SLOAD AND PUSH1 0xE0 DUP4 ADD MSTORE PUSH1 0x8 DUP2 ADD SLOAD PUSH2 0x100 DUP4 ADD MSTORE PUSH1 0x9 DUP2 ADD SLOAD PUSH1 0xFF AND PUSH2 0x120 DUP4 ADD MSTORE PUSH2 0x1606 PUSH1 0xA DUP3 ADD PUSH2 0x1940 JUMP JUMPDEST PUSH2 0x140 DUP4 ADD MSTORE PUSH2 0x1618 PUSH1 0xB DUP3 ADD PUSH2 0x1940 JUMP JUMPDEST PUSH2 0x160 DUP4 ADD MSTORE PUSH1 0xC DUP2 ADD SLOAD PUSH2 0x180 DUP4 ADD MSTORE PUSH1 0xD DUP2 ADD SLOAD PUSH2 0x1A0 DUP4 ADD MSTORE PUSH1 0xFF PUSH1 0xE DUP3 ADD SLOAD AND SWAP1 PUSH1 0x5 DUP3 LT ISZERO PUSH2 0x6ED JUMPI PUSH1 0xF SWAP2 PUSH2 0x1C0 DUP5 ADD MSTORE ADD SLOAD PUSH2 0x1E0 DUP3 ADD MSTORE PUSH1 0x40 MLOAD DUP1 SWAP2 PUSH1 0x20 DUP3 MSTORE DUP1 MLOAD PUSH1 0x20 DUP4 ADD MSTORE PUSH2 0x1E0 PUSH2 0x172D PUSH2 0x1688 PUSH1 0x20 DUP5 ADD MLOAD PUSH2 0x200 PUSH1 0x40 DUP8 ADD MSTORE PUSH2 0x220 DUP7 ADD SWAP1 PUSH2 0x1A09 JUMP JUMPDEST PUSH1 0x40 DUP5 ADD MLOAD PUSH1 0x60 DUP7 ADD MSTORE PUSH1 0x60 DUP5 ADD MLOAD PUSH1 0x80 DUP7 ADD MSTORE PUSH1 0x80 DUP5 ADD MLOAD PUSH1 0xA0 DUP7 ADD MSTORE PUSH1 0x1 DUP1 PUSH1 0xA0 SHL SUB PUSH1 0xA0 DUP6 ADD MLOAD AND PUSH1 0xC0 DUP7 ADD MSTORE PUSH1 0x1 DUP1 PUSH1 0xA0 SHL SUB PUSH1 0xC0 DUP6 ADD MLOAD AND PUSH1 0xE0 DUP7 ADD MSTORE PUSH1 0x1 DUP1 PUSH1 0xA0 SHL SUB PUSH1 0xE0 DUP6 ADD MLOAD AND PUSH2 0x100 DUP7 ADD MSTORE PUSH2 0x100 DUP5 ADD MLOAD PUSH2 0x120 DUP7 ADD MSTORE PUSH1 0xFF PUSH2 0x120 DUP6 ADD MLOAD AND PUSH2 0x140 DUP7 ADD MSTORE PUSH2 0x1716 PUSH2 0x140 DUP6 ADD MLOAD SWAP2 PUSH1 0x1F NOT SWAP3 DUP4 DUP9 DUP4 SUB ADD PUSH2 0x160 DUP10 ADD MSTORE PUSH2 0x1A09 JUMP JUMPDEST SWAP1 PUSH2 0x160 DUP6 ADD MLOAD SWAP1 DUP7 DUP4 SUB ADD PUSH2 0x180 DUP8 ADD MSTORE PUSH2 0x1A09 JUMP JUMPDEST SWAP2 PUSH2 0x180 DUP2 ADD MLOAD PUSH2 0x1A0 DUP6 ADD MSTORE PUSH2 0x1A0 DUP2 ADD MLOAD PUSH2 0x1C0 DUP6 ADD MSTORE PUSH2 0x1758 PUSH2 0x1C0 DUP3 ADD MLOAD DUP4 DUP7 ADD SWAP1 PUSH2 0x1A2E JUMP JUMPDEST ADD MLOAD PUSH2 0x200 DUP4 ADD MSTORE SUB SWAP1 RETURN JUMPDEST CALLVALUE PUSH2 0x1C7 JUMPI PUSH1 0x20 CALLDATASIZE PUSH1 0x3 NOT ADD SLT PUSH2 0x1C7 JUMPI PUSH1 0x4 CALLDATALOAD PUSH1 0x0 MSTORE PUSH1 0x5 PUSH1 0x20 MSTORE PUSH1 0x40 PUSH1 0x0 KECCAK256 DUP1 SLOAD PUSH1 0x1 DUP1 PUSH1 0xA0 SHL SUB SWAP2 DUP3 PUSH1 0x1 DUP3 ADD SLOAD AND SWAP3 DUP1 PUSH1 0x2 DUP4 ADD SLOAD AND SWAP1 PUSH1 0x3 DUP4 ADD SLOAD AND SWAP2 PUSH1 0x4 DUP2 ADD SLOAD SWAP3 PUSH2 0x1802 PUSH2 0x17BB PUSH1 0x5 DUP5 ADD PUSH2 0x1940 JUMP JUMPDEST PUSH1 0x6 DUP5 ADD SLOAD SWAP6 PUSH1 0x7 DUP6 ADD SLOAD SWAP4 PUSH1 0x9 PUSH1 0xFF PUSH1 0x8 DUP9 ADD SLOAD AND SWAP7 ADD SLOAD SWAP7 PUSH1 0x40 MLOAD SWAP11 DUP12 SWAP11 DUP12 MSTORE PUSH1 0x20 DUP12 ADD MSTORE PUSH1 0x40 DUP11 ADD MSTORE PUSH1 0x60 DUP10 ADD MSTORE PUSH1 0x80 DUP9 ADD MSTORE PUSH2 0x140 DUP1 PUSH1 0xA0 DUP10 ADD MSTORE DUP8 ADD SWAP1 PUSH2 0x1A09 JUMP JUMPDEST SWAP4 PUSH1 0xC0 DUP7 ADD MSTORE PUSH1 0xE0 DUP6 ADD MSTORE ISZERO ISZERO PUSH2 0x100 DUP5 ADD MSTORE PUSH2 0x120 DUP4 ADD MSTORE SUB SWAP1 RETURN JUMPDEST CALLVALUE PUSH2 0x1C7 JUMPI PUSH1 0x20 CALLDATASIZE PUSH1 0x3 NOT ADD SLT PUSH2 0x1C7 JUMPI PUSH2 0x1838 PUSH2 0x1862 JUMP JUMPDEST PUSH2 0x1840 PUSH2 0x1ABC JUMP JUMPDEST PUSH1 0x9 DUP1 SLOAD PUSH1 0x1 PUSH1 0x1 PUSH1 0xA0 SHL SUB NOT AND PUSH1 0x1 PUSH1 0x1 PUSH1 0xA0 SHL SUB SWAP3 SWAP1 SWAP3 AND SWAP2 SWAP1 SWAP2 OR SWAP1 SSTORE STOP JUMPDEST PUSH1 0x4 CALLDATALOAD SWAP1 PUSH1 0x1 PUSH1 0x1 PUSH1 0xA0 SHL SUB DUP3 AND DUP3 SUB PUSH2 0x1C7 JUMPI JUMP JUMPDEST PUSH1 0x24 CALLDATALOAD SWAP1 PUSH1 0x1 PUSH1 0x1 PUSH1 0xA0 SHL SUB DUP3 AND DUP3 SUB PUSH2 0x1C7 JUMPI JUMP JUMPDEST SWAP1 PUSH1 0x1 DUP3 DUP2 SHR SWAP3 AND DUP1 ISZERO PUSH2 0x18BE JUMPI JUMPDEST PUSH1 0x20 DUP4 LT EQ PUSH2 0x18A8 JUMPI JUMP JUMPDEST PUSH4 0x4E487B71 PUSH1 0xE0 SHL PUSH1 0x0 MSTORE PUSH1 0x22 PUSH1 0x4 MSTORE PUSH1 0x24 PUSH1 0x0 REVERT JUMPDEST SWAP2 PUSH1 0x7F AND SWAP2 PUSH2 0x189D JUMP JUMPDEST PUSH2 0x200 DUP2 ADD SWAP1 DUP2 LT PUSH8 0xFFFFFFFFFFFFFFFF DUP3 GT OR PUSH2 0x698 JUMPI PUSH1 0x40 MSTORE JUMP JUMPDEST PUSH2 0x140 DUP2 ADD SWAP1 DUP2 LT PUSH8 0xFFFFFFFFFFFFFFFF DUP3 GT OR PUSH2 0x698 JUMPI PUSH1 0x40 MSTORE JUMP JUMPDEST PUSH1 0x40 DUP2 ADD SWAP1 DUP2 LT PUSH8 0xFFFFFFFFFFFFFFFF DUP3 GT OR PUSH2 0x698 JUMPI PUSH1 0x40 MSTORE JUMP JUMPDEST SWAP1 PUSH1 0x1F DUP1 NOT SWAP2 ADD AND DUP2 ADD SWAP1 DUP2 LT PUSH8 0xFFFFFFFFFFFFFFFF DUP3 GT OR PUSH2 0x698 JUMPI PUSH1 0x40 MSTORE JUMP JUMPDEST SWAP1 PUSH1 0x40 MLOAD SWAP2 DUP3 PUSH1 0x0 DUP3 SLOAD SWAP3 PUSH2 0x1954 DUP5 PUSH2 0x188E JUMP JUMPDEST SWAP1 DUP2 DUP5 MSTORE PUSH1 0x1 SWAP5 DUP6 DUP2 AND SWAP1 DUP2 PUSH1 0x0 EQ PUSH2 0x19C3 JUMPI POP PUSH1 0x1 EQ PUSH2 0x1980 JUMPI JUMPDEST POP POP PUSH2 0x197E SWAP3 POP SUB DUP4 PUSH2 0x191E JUMP JUMPDEST JUMP JUMPDEST SWAP1 SWAP4 SWAP2 POP PUSH1 0x0 MSTORE PUSH1 0x20 SWAP1 DUP2 PUSH1 0x0 KECCAK256 SWAP4 PUSH1 0x0 SWAP2 JUMPDEST DUP2 DUP4 LT PUSH2 0x19AB JUMPI POP POP PUSH2 0x197E SWAP4 POP DUP3 ADD ADD CODESIZE DUP1 PUSH2 0x1970 JUMP JUMPDEST DUP6 SLOAD DUP9 DUP5 ADD DUP6 ADD MSTORE SWAP5 DUP6 ADD SWAP5 DUP8 SWAP5 POP SWAP2 DUP4 ADD SWAP2 PUSH2 0x1993 JUMP JUMPDEST SWAP2 POP POP PUSH2 0x197E SWAP5 POP PUSH1 0x20 SWAP3 POP PUSH1 0xFF NOT AND DUP3 DUP5 ADD MSTORE ISZERO ISZERO PUSH1 0x5 SHL DUP3 ADD ADD CODESIZE DUP1 PUSH2 0x1970 JUMP JUMPDEST PUSH1 0x0 JUMPDEST DUP4 DUP2 LT PUSH2 0x19F9 JUMPI POP POP PUSH1 0x0 SWAP2 ADD MSTORE JUMP JUMPDEST DUP2 DUP2 ADD MLOAD DUP4 DUP3 ADD MSTORE PUSH1 0x20 ADD PUSH2 0x19E9 JUMP JUMPDEST SWAP1 PUSH1 0x20 SWAP2 PUSH2 0x1A22 DUP2 MLOAD DUP1 SWAP3 DUP2 DUP6 MSTORE DUP6 DUP1 DUP7 ADD SWAP2 ADD PUSH2 0x19E6 JUMP JUMPDEST PUSH1 0x1F ADD PUSH1 0x1F NOT AND ADD ADD SWAP1 JUMP JUMPDEST SWAP1 PUSH1 0x5 DUP3 LT ISZERO PUSH2 0x6ED JUMPI MSTORE JUMP JUMPDEST DUP1 SLOAD DUP3 LT ISZERO PUSH2 0x913 JUMPI PUSH1 0x0 MSTORE PUSH1 0x20 PUSH1 0x0 KECCAK256 ADD SWAP1 PUSH1 0x0 SWAP1 JUMP JUMPDEST PUSH1 0x20 SWAP1 DUP2 PUSH1 0x40 DUP2 DUP4 ADD SWAP3 DUP3 DUP2 MSTORE DUP6 MLOAD DUP1 SWAP5 MSTORE ADD SWAP4 ADD SWAP2 PUSH1 0x0 JUMPDEST DUP3 DUP2 LT PUSH2 0x1A7A JUMPI POP POP POP POP SWAP1 JUMP JUMPDEST DUP4 MLOAD DUP6 MSTORE SWAP4 DUP2 ADD SWAP4 SWAP3 DUP2 ADD SWAP3 PUSH1 0x1 ADD PUSH2 0x1A6C JUMP JUMPDEST SWAP2 DUP2 PUSH1 0x1F DUP5 ADD SLT ISZERO PUSH2 0x1C7 JUMPI DUP3 CALLDATALOAD SWAP2 PUSH8 0xFFFFFFFFFFFFFFFF DUP4 GT PUSH2 0x1C7 JUMPI PUSH1 0x20 DUP4 DUP2 DUP7 ADD SWAP6 ADD ADD GT PUSH2 0x1C7 JUMPI JUMP JUMPDEST PUSH1 0x0 SLOAD PUSH1 0x1 PUSH1 0x1 PUSH1 0xA0 SHL SUB AND CALLER SUB PUSH2 0x1AD0 JUMPI JUMP JUMPDEST PUSH1 0x40 MLOAD PUSH4 0x118CDAA7 PUSH1 0xE0 SHL DUP2 MSTORE CALLER PUSH1 0x4 DUP3 ADD MSTORE PUSH1 0x24 SWAP1 REVERT JUMPDEST DUP2 DUP2 LT PUSH2 0x1AF3 JUMPI POP POP JUMP JUMPDEST PUSH1 0x0 DUP2 SSTORE PUSH1 0x1 ADD PUSH2 0x1AE8 JUMP JUMPDEST SWAP2 SWAP1 PUSH1 0x1F DUP2 GT PUSH2 0x1B0E JUMPI POP POP POP JUMP JUMPDEST PUSH2 0x197E SWAP3 PUSH1 0x0 MSTORE PUSH1 0x20 PUSH1 0x0 KECCAK256 SWAP1 PUSH1 0x20 PUSH1 0x1F DUP5 ADD PUSH1 0x5 SHR DUP4 ADD SWAP4 LT PUSH2 0x1B3A JUMPI JUMPDEST PUSH1 0x1F ADD PUSH1 0x5 SHR ADD SWAP1 PUSH2 0x1AE8 JUMP JUMPDEST SWAP1 SWAP2 POP DUP2 SWAP1 PUSH2 0x1B2D JUMP JUMPDEST DUP1 SLOAD PUSH9 0x10000000000000000 DUP2 LT ISZERO PUSH2 0x698 JUMPI PUSH2 0x1B66 SWAP2 PUSH1 0x1 DUP3 ADD DUP2 SSTORE PUSH2 0x1A3B JUMP JUMPDEST DUP2 SWAP3 SWAP2 SLOAD SWAP1 PUSH1 0x3 SHL SWAP2 DUP3 SHL SWAP2 PUSH1 0x0 NOT SWAP1 SHL NOT AND OR SWAP1 SSTORE JUMP JUMPDEST PUSH1 0x0 NOT DUP2 EQ PUSH2 0x607 JUMPI PUSH1 0x1 ADD SWAP1 JUMP JUMPDEST ISZERO PUSH2 0x1B94 JUMPI JUMP JUMPDEST PUSH1 0x40 MLOAD PUSH3 0x461BCD PUSH1 0xE5 SHL DUP2 MSTORE PUSH1 0x20 PUSH1 0x4 DUP3 ADD MSTORE PUSH1 0xF PUSH1 0x24 DUP3 ADD MSTORE PUSH15 0x141C9BDBD9881B9BDD08199BDD5B99 PUSH1 0x8A SHL PUSH1 0x44 DUP3 ADD MSTORE PUSH1 0x64 SWAP1 REVERT JUMPDEST PUSH8 0xFFFFFFFFFFFFFFFF DUP2 GT PUSH2 0x698 JUMPI PUSH1 0x1F ADD PUSH1 0x1F NOT AND PUSH1 0x20 ADD SWAP1 JUMP JUMPDEST SWAP1 DUP2 MLOAD DUP2 LT ISZERO PUSH2 0x913 JUMPI ADD PUSH1 0x20 ADD SWAP1 JUMP JUMPDEST DUP1 ISZERO PUSH2 0x1C9A JUMPI DUP1 DUP2 PUSH1 0x0 SWAP3 JUMPDEST PUSH2 0x1C84 JUMPI POP PUSH2 0x1C12 DUP3 PUSH2 0x1BCB JUMP JUMPDEST SWAP2 PUSH2 0x1C20 PUSH1 0x40 MLOAD SWAP4 DUP5 PUSH2 0x191E JUMP JUMPDEST DUP1 DUP4 MSTORE DUP2 PUSH1 0x1F NOT PUSH2 0x1C30 DUP4 PUSH2 0x1BCB JUMP JUMPDEST ADD CALLDATASIZE PUSH1 0x20 DUP7 ADD CALLDATACOPY JUMPDEST PUSH2 0x1C41 JUMPI POP POP SWAP1 JUMP JUMPDEST PUSH1 0x0 NOT DUP2 ADD SWAP1 DUP2 GT PUSH2 0x607 JUMPI DUP1 SWAP2 PUSH1 0xA SWAP2 PUSH1 0x30 DUP4 DUP4 MOD DUP2 ADD DUP1 SWAP2 GT PUSH2 0x607 JUMPI PUSH1 0xF8 SHL PUSH1 0x1 PUSH1 0x1 PUSH1 0xF8 SHL SUB NOT AND PUSH1 0x0 BYTE SWAP1 PUSH2 0x1C7B SWAP1 DUP7 PUSH2 0x1BE7 JUMP JUMPDEST MSTORE8 DIV SWAP1 DUP2 PUSH2 0x1C38 JUMP JUMPDEST SWAP1 SWAP2 PUSH2 0x1C91 PUSH1 0xA SWAP2 PUSH2 0x1B7E JUMP JUMPDEST SWAP3 SWAP2 DIV DUP1 PUSH2 0x1C04 JUMP JUMPDEST POP PUSH1 0x40 MLOAD PUSH2 0x1CA7 DUP2 PUSH2 0x1902 JUMP JUMPDEST PUSH1 0x1 DUP2 MSTORE PUSH1 0x3 PUSH1 0xFC SHL PUSH1 0x20 DUP3 ADD MSTORE SWAP1 JUMP INVALID LOG2 PUSH5 0x6970667358 0x22 SLT KECCAK256 0xC7 0xC6 DUP9 0xBC SSTORE LOG2 PUSH29 0x7817111E73A3B2FFD88DEDA5B9A45CF3BE34D8D91413DC562264736F6C PUSH4 0x43000814 STOP CALLER "},"methodIdentifiers":{"createPaymentRequest(address,address,uint256,string,uint256)":"d6a9738f","createProof(bytes32,address,address,uint256,uint8,string,string)":"651dcd15","fdcHub()":"8010fcaf","fulfillPaymentRequest(bytes32,bytes32)":"eccd34b1","getISO20022MessageId(bytes32)":"8cbefd5d","getPaymentRequest(bytes32)":"4574b361","getProof(bytes32)":"1b80bb3a","getProofByTxHash(bytes32)":"0f1447aa","getUserPaymentRequests(address)":"39be894b","getUserProofs(address)":"46bdfb80","isFDCVerified(bytes32)":"cdeca746","owner()":"8da5cb5b","paymentRequests(bytes32)":"0d7a55ba","proofFee()":"cd1e330a","proofs(bytes32)":"444d95b0","renounceOwnership()":"715018a6","setFDCHub(address)":"074f686f","setProofFee(uint256)":"438aa2f8","totalProofs()":"2ded3568","totalRequests()":"8aea61dc","transferOwnership(address)":"f2fde38b","txHashToProofId(bytes32)":"e4afb47d","userPaymentRequests(address,uint256)":"8d23508e","userProofs(address,uint256)":"373b58e6","verifyProofWithFDC(bytes32,uint256,bytes32)":"515a51b0","withdrawFees()":"476343ee"}}}}}