{"contracts/SimpleTestToken.sol":{"SimpleTestToken":{"abi":[{"inputs":[{"internalType":"uint256","name":"initialSupply","type":"uint256"}],"stateMutability":"nonpayable","type":"constructor"},{"anonymous":false,"inputs":[{"indexed":true,"internalType":"address","name":"owner","type":"address"},{"indexed":true,"internalType":"address","name":"spender","type":"address"},{"indexed":false,"internalType":"uint256","name":"value","type":"uint256"}],"name":"Approval","type":"event"},{"anonymous":false,"inputs":[{"indexed":true,"internalType":"address","name":"from","type":"address"},{"indexed":true,"internalType":"address","name":"to","type":"address"},{"indexed":false,"internalType":"uint256","name":"value","type":"uint256"}],"name":"Transfer","type":"event"},{"inputs":[{"internalType":"address","name":"","type":"address"},{"internalType":"address","name":"","type":"address"}],"name":"allowance","outputs":[{"internalType":"uint256","name":"","type":"uint256"}],"stateMutability":"view","type":"function"},{"inputs":[{"internalType":"address","name":"spender","type":"address"},{"internalType":"uint256","name":"value","type":"uint256"}],"name":"approve","outputs":[{"internalType":"bool","name":"","type":"bool"}],"stateMutability":"nonpayable","type":"function"},{"inputs":[{"internalType":"address","name":"","type":"address"}],"name":"balanceOf","outputs":[{"internalType":"uint256","name":"","type":"uint256"}],"stateMutability":"view","type":"function"},{"inputs":[],"name":"decimals","outputs":[{"internalType":"uint8","name":"","type":"uint8"}],"stateMutability":"view","type":"function"},{"inputs":[{"internalType":"uint256","name":"amount","type":"uint256"}],"name":"faucet","outputs":[],"stateMutability":"nonpayable","type":"function"},{"inputs":[],"name":"name","outputs":[{"internalType":"string","name":"","type":"string"}],"stateMutability":"view","type":"function"},{"inputs":[],"name":"symbol","outputs":[{"internalType":"string","name":"","type":"string"}],"stateMutability":"view","type":"function"},{"inputs":[],"name":"totalSupply","outputs":[{"internalType":"uint256","name":"","type":"uint256"}],"stateMutability":"view","type":"function"},{"inputs":[{"internalType":"address","name":"to","type":"address"},{"internalType":"uint256","name":"value","type":"uint256"}],"name":"transfer","outputs":[{"internalType":"bool","name":"","type":"bool"}],"stateMutability":"nonpayable","type":"function"},{"inputs":[{"internalType":"address","name":"from","type":"address"},{"internalType":"address","name":"to","type":"address"},{"internalType":"uint256","name":"value","type":"uint256"}],"name":"transferFrom","outputs":[{"internalType":"bool","name":"","type":"bool"}],"stateMutability":"nonpayable","type":"function"}],"evm":{"bytecode":{"linkReferences":{},"object":"60803461017757601f61091e38819003918201601f19168301916001600160401b0383118484101761017c578084926020946040528339810103126101775751600061004b8154610192565b601f811161014d575b507f546573742055534454000000000000000000000000000000000000000000001281556001805461008590610192565b601f8111610121575b50600a64151554d11560da1b0190556002805460ff19166006179055620f4240828102928015908404909114171561010d578160035533815260046020528160408220556040519182527fddf252ad1be2c89b69c2b068fc378daa952ba7f163c4a11628f55a4df523b3ef60203393a360405161075190816101cd8239f35b634e487b7160e01b81526011600452602490fd5b81835281601f60208520920160051c8201915b82811061014257505061008e565b848155018290610134565b818052601f60208320910160051c8101905b81811061016c5750610054565b82815560010161015f565b600080fd5b634e487b7160e01b600052604160045260246000fd5b90600182811c921680156101c2575b60208310146101ac57565b634e487b7160e01b600052602260045260246000fd5b91607f16916101a156fe608060408181526004918236101561001657600080fd5b600092833560e01c91826306fdde031461055857508163095ea7b3146104e757816318160ddd146104c857816323b872dd146103aa578163313ce5671461038857816357915897146102d657816370a08231146102a057816395d89b4114610180578163a9059cbb146100de575063dd62ed3e1461009357600080fd5b346100da57806003193601126100da57806020926100af610677565b6100b7610692565b6001600160a01b0391821683526005865283832091168252845220549051908152f35b5080fd5b90503461017c578160031936011261017c57602092826100fc610677565b9160243592338252848752610116848484205410156106a8565b33825284875282822061012a8582546106eb565b90556001600160a01b031680825293865220805461014990839061070e565b905582519081527fddf252ad1be2c89b69c2b068fc378daa952ba7f163c4a11628f55a4df523b3ef843392a35160018152f35b8280fd5b8383346100da57816003193601126100da5780519082600180549081811c90808316928315610296575b6020938484108114610283578388529081156102675750600114610212575b505050829003601f01601f191682019267ffffffffffffffff8411838510176101ff57508291826101fb92528261062e565b0390f35b634e487b7160e01b815260418552602490fd5b8087529192508591837fb10e2d527612073b26eecdfd717e6a320cf44b4afac2b0732d9fcbe2b7fa0cf65b83851061025357505050508301018580806101c9565b80548886018301529301928490820161023d565b60ff1916878501525050151560051b84010190508580806101c9565b634e487b7160e01b895260228a52602489fd5b91607f16916101aa565b90503461017c57602036600319011261017c5760209282916001600160a01b036102c8610677565b168252845220549051908152f35b9190503461017c57602036600319011261017c5781359160ff60025416604d811161037557600a0a928381029381850414901517156103625761031b8360035461070e565b60035533845260205280832061033283825461070e565b905551908152817fddf252ad1be2c89b69c2b068fc378daa952ba7f163c4a11628f55a4df523b3ef60203393a380f35b634e487b7160e01b845260119052602483fd5b634e487b7160e01b855260118252602485fd5b5050346100da57816003193601126100da5760209060ff600254169051908152f35b90503461017c57606036600319011261017c576103c5610677565b6103cd610692565b936044359060018060a01b03809316928382526020968588526103f5848885205410156106a8565b84835260058852868320338452885283878420541061048c57827fddf252ad1be2c89b69c2b068fc378daa952ba7f163c4a11628f55a4df523b3ef94928892878b96528886528383206104498682546106eb565b90551696878252845281812061046084825461070e565b90558581526005845281812033825284522061047d8282546106eb565b90558551908152a35160018152f35b865162461bcd60e51b81528087018990526016602482015275496e73756666696369656e7420616c6c6f77616e636560501b6044820152606490fd5b5050346100da57816003193601126100da576020906003549051908152f35b5050346100da57806003193601126100da5760209181610505610677565b91602435918291338152600587528181209460018060a01b0316948582528752205582519081527f8c5be1e5ebec7d5bd14f71427d1e84f3dd0314c0f7b2291e5b200ac8c7c3b925843392a35160018152f35b8490843461017c578260031936011261017c57828354600181811c90808316928315610624575b60209384841081146102835783885290811561026757506001146105cf57505050829003601f01601f191682019267ffffffffffffffff8411838510176101ff57508291826101fb92528261062e565b8680529192508591837f290decd9548b62a8d60345a988386fc84ba6bc95484008f6362f93160ef3e5635b83851061061057505050508301018580806101c9565b8054888601830152930192849082016105fa565b91607f169161057f565b6020808252825181830181905290939260005b82811061066357505060409293506000838284010152601f8019910116010190565b818101860151848201604001528501610641565b600435906001600160a01b038216820361068d57565b600080fd5b602435906001600160a01b038216820361068d57565b156106af57565b60405162461bcd60e51b8152602060048201526014602482015273496e73756666696369656e742062616c616e636560601b6044820152606490fd5b919082039182116106f857565b634e487b7160e01b600052601160045260246000fd5b919082018092116106f85756fea26469706673582212204b5e62717552a811819cf5ba4b4cb7fc7201ccd7fdc1c3581836817fb190b37d64736f6c63430008140033","opcodes":"PUSH1 0x80 CALLVALUE PUSH2 0x177 JUMPI PUSH1 0x1F PUSH2 0x91E CODESIZE DUP2 SWAP1 SUB SWAP2 DUP3 ADD PUSH1 0x1F NOT AND DUP4 ADD SWAP2 PUSH1 0x1 PUSH1 0x1 PUSH1 0x40 SHL SUB DUP4 GT DUP5 DUP5 LT OR PUSH2 0x17C JUMPI DUP1 DUP5 SWAP3 PUSH1 0x20 SWAP5 PUSH1 0x40 MSTORE DUP4 CODECOPY DUP2 ADD SUB SLT PUSH2 0x177 JUMPI MLOAD PUSH1 0x0 PUSH2 0x4B DUP2 SLOAD PUSH2 0x192 JUMP JUMPDEST PUSH1 0x1F DUP2 GT PUSH2 0x14D JUMPI JUMPDEST POP PUSH32 0x5465737420555344540000000000000000000000000000000000000000000012 DUP2 SSTORE PUSH1 0x1 DUP1 SLOAD PUSH2 0x85 SWAP1 PUSH2 0x192 JUMP JUMPDEST PUSH1 0x1F DUP2 GT PUSH2 0x121 JUMPI JUMPDEST POP PUSH1 0xA PUSH5 0x151554D115 PUSH1 0xDA SHL ADD SWAP1 SSTORE PUSH1 0x2 DUP1 SLOAD PUSH1 0xFF NOT AND PUSH1 0x6 OR SWAP1 SSTORE PUSH3 0xF4240 DUP3 DUP2 MUL SWAP3 DUP1 ISZERO SWAP1 DUP5 DIV SWAP1 SWAP2 EQ OR ISZERO PUSH2 0x10D JUMPI DUP2 PUSH1 0x3 SSTORE CALLER DUP2 MSTORE PUSH1 0x4 PUSH1 0x20 MSTORE DUP2 PUSH1 0x40 DUP3 KECCAK256 SSTORE PUSH1 0x40 MLOAD SWAP2 DUP3 MSTORE PUSH32 0xDDF252AD1BE2C89B69C2B068FC378DAA952BA7F163C4A11628F55A4DF523B3EF PUSH1 0x20 CALLER SWAP4 LOG3 PUSH1 0x40 MLOAD PUSH2 0x751 SWAP1 DUP2 PUSH2 0x1CD DUP3 CODECOPY RETURN JUMPDEST PUSH4 0x4E487B71 PUSH1 0xE0 SHL DUP2 MSTORE PUSH1 0x11 PUSH1 0x4 MSTORE PUSH1 0x24 SWAP1 REVERT JUMPDEST DUP2 DUP4 MSTORE DUP2 PUSH1 0x1F PUSH1 0x20 DUP6 KECCAK256 SWAP3 ADD PUSH1 0x5 SHR DUP3 ADD SWAP2 JUMPDEST DUP3 DUP2 LT PUSH2 0x142 JUMPI POP POP PUSH2 0x8E JUMP JUMPDEST DUP5 DUP2 SSTORE ADD DUP3 SWAP1 PUSH2 0x134 JUMP JUMPDEST DUP2 DUP1 MSTORE PUSH1 0x1F PUSH1 0x20 DUP4 KECCAK256 SWAP2 ADD PUSH1 0x5 SHR DUP2 ADD SWAP1 JUMPDEST DUP2 DUP2 LT PUSH2 0x16C JUMPI POP PUSH2 0x54 JUMP JUMPDEST DUP3 DUP2 SSTORE PUSH1 0x1 ADD PUSH2 0x15F JUMP JUMPDEST PUSH1 0x0 DUP1 REVERT JUMPDEST PUSH4 0x4E487B71 PUSH1 0xE0 SHL PUSH1 0x0 MSTORE PUSH1 0x41 PUSH1 0x4 MSTORE PUSH1 0x24 PUSH1 0x0 REVERT JUMPDEST SWAP1 PUSH1 0x1 DUP3 DUP2 SHR SWAP3 AND DUP1 ISZERO PUSH2 0x1C2 JUMPI JUMPDEST PUSH1 0x20 DUP4 LT EQ PUSH2 0x1AC JUMPI JUMP JUMPDEST PUSH4 0x4E487B71 PUSH1 0xE0 SHL PUSH1 0x0 MSTORE PUSH1 0x22 PUSH1 0x4 MSTORE PUSH1 0x24 PUSH1 0x0 REVERT JUMPDEST SWAP2 PUSH1 0x7F AND SWAP2 PUSH2 0x1A1 JUMP INVALID PUSH1 0x80 PUSH1 0x40 DUP2 DUP2 MSTORE PUSH1 0x4 SWAP2 DUP3 CALLDATASIZE LT ISZERO PUSH2 0x16 JUMPI PUSH1 0x0 DUP1 REVERT JUMPDEST PUSH1 0x0 SWAP3 DUP4 CALLDATALOAD PUSH1 0xE0 SHR SWAP2 DUP3 PUSH4 0x6FDDE03 EQ PUSH2 0x558 JUMPI POP DUP2 PUSH4 0x95EA7B3 EQ PUSH2 0x4E7 JUMPI DUP2 PUSH4 0x18160DDD EQ PUSH2 0x4C8 JUMPI DUP2 PUSH4 0x23B872DD EQ PUSH2 0x3AA JUMPI DUP2 PUSH4 0x313CE567 EQ PUSH2 0x388 JUMPI DUP2 PUSH4 0x57915897 EQ PUSH2 0x2D6 JUMPI DUP2 PUSH4 0x70A08231 EQ PUSH2 0x2A0 JUMPI DUP2 PUSH4 0x95D89B41 EQ PUSH2 0x180 JUMPI DUP2 PUSH4 0xA9059CBB EQ PUSH2 0xDE JUMPI POP PUSH4 0xDD62ED3E EQ PUSH2 0x93 JUMPI PUSH1 0x0 DUP1 REVERT JUMPDEST CALLVALUE PUSH2 0xDA JUMPI DUP1 PUSH1 0x3 NOT CALLDATASIZE ADD SLT PUSH2 0xDA JUMPI DUP1 PUSH1 0x20 SWAP3 PUSH2 0xAF PUSH2 0x677 JUMP JUMPDEST PUSH2 0xB7 PUSH2 0x692 JUMP JUMPDEST PUSH1 0x1 PUSH1 0x1 PUSH1 0xA0 SHL SUB SWAP2 DUP3 AND DUP4 MSTORE PUSH1 0x5 DUP7 MSTORE DUP4 DUP4 KECCAK256 SWAP2 AND DUP3 MSTORE DUP5 MSTORE KECCAK256 SLOAD SWAP1 MLOAD SWAP1 DUP2 MSTORE RETURN JUMPDEST POP DUP1 REVERT JUMPDEST SWAP1 POP CALLVALUE PUSH2 0x17C JUMPI DUP2 PUSH1 0x3 NOT CALLDATASIZE ADD SLT PUSH2 0x17C JUMPI PUSH1 0x20 SWAP3 DUP3 PUSH2 0xFC PUSH2 0x677 JUMP JUMPDEST SWAP2 PUSH1 0x24 CALLDATALOAD SWAP3 CALLER DUP3 MSTORE DUP5 DUP8 MSTORE PUSH2 0x116 DUP5 DUP5 DUP5 KECCAK256 SLOAD LT ISZERO PUSH2 0x6A8 JUMP JUMPDEST CALLER DUP3 MSTORE DUP5 DUP8 MSTORE DUP3 DUP3 KECCAK256 PUSH2 0x12A DUP6 DUP3 SLOAD PUSH2 0x6EB JUMP JUMPDEST SWAP1 SSTORE PUSH1 0x1 PUSH1 0x1 PUSH1 0xA0 SHL SUB AND DUP1 DUP3 MSTORE SWAP4 DUP7 MSTORE KECCAK256 DUP1 SLOAD PUSH2 0x149 SWAP1 DUP4 SWAP1 PUSH2 0x70E JUMP JUMPDEST SWAP1 SSTORE DUP3 MLOAD SWAP1 DUP2 MSTORE PUSH32 0xDDF252AD1BE2C89B69C2B068FC378DAA952BA7F163C4A11628F55A4DF523B3EF DUP5 CALLER SWAP3 LOG3 MLOAD PUSH1 0x1 DUP2 MSTORE RETURN JUMPDEST DUP3 DUP1 REVERT JUMPDEST DUP4 DUP4 CALLVALUE PUSH2 0xDA JUMPI DUP2 PUSH1 0x3 NOT CALLDATASIZE ADD SLT PUSH2 0xDA JUMPI DUP1 MLOAD SWAP1 DUP3 PUSH1 0x1 DUP1 SLOAD SWAP1 DUP2 DUP2 SHR SWAP1 DUP1 DUP4 AND SWAP3 DUP4 ISZERO PUSH2 0x296 JUMPI JUMPDEST PUSH1 0x20 SWAP4 DUP5 DUP5 LT DUP2 EQ PUSH2 0x283 JUMPI DUP4 DUP9 MSTORE SWAP1 DUP2 ISZERO PUSH2 0x267 JUMPI POP PUSH1 0x1 EQ PUSH2 0x212 JUMPI JUMPDEST POP POP POP DUP3 SWAP1 SUB PUSH1 0x1F ADD PUSH1 0x1F NOT AND DUP3 ADD SWAP3 PUSH8 0xFFFFFFFFFFFFFFFF DUP5 GT DUP4 DUP6 LT OR PUSH2 0x1FF JUMPI POP DUP3 SWAP2 DUP3 PUSH2 0x1FB SWAP3 MSTORE DUP3 PUSH2 0x62E JUMP JUMPDEST SUB SWAP1 RETURN JUMPDEST PUSH4 0x4E487B71 PUSH1 0xE0 SHL DUP2 MSTORE PUSH1 0x41 DUP6 MSTORE PUSH1 0x24 SWAP1 REVERT JUMPDEST DUP1 DUP8 MSTORE SWAP2 SWAP3 POP DUP6 SWAP2 DUP4 PUSH32 0xB10E2D527612073B26EECDFD717E6A320CF44B4AFAC2B0732D9FCBE2B7FA0CF6 JUMPDEST DUP4 DUP6 LT PUSH2 0x253 JUMPI POP POP POP POP DUP4 ADD ADD DUP6 DUP1 DUP1 PUSH2 0x1C9 JUMP JUMPDEST DUP1 SLOAD DUP9 DUP7 ADD DUP4 ADD MSTORE SWAP4 ADD SWAP3 DUP5 SWAP1 DUP3 ADD PUSH2 0x23D JUMP JUMPDEST PUSH1 0xFF NOT AND DUP8 DUP6 ADD MSTORE POP POP ISZERO ISZERO PUSH1 0x5 SHL DUP5 ADD ADD SWAP1 POP DUP6 DUP1 DUP1 PUSH2 0x1C9 JUMP JUMPDEST PUSH4 0x4E487B71 PUSH1 0xE0 SHL DUP10 MSTORE PUSH1 0x22 DUP11 MSTORE PUSH1 0x24 DUP10 REVERT JUMPDEST SWAP2 PUSH1 0x7F AND SWAP2 PUSH2 0x1AA JUMP JUMPDEST SWAP1 POP CALLVALUE PUSH2 0x17C JUMPI PUSH1 0x20 CALLDATASIZE PUSH1 0x3 NOT ADD SLT PUSH2 0x17C JUMPI PUSH1 0x20 SWAP3 DUP3 SWAP2 PUSH1 0x1 PUSH1 0x1 PUSH1 0xA0 SHL SUB PUSH2 0x2C8 PUSH2 0x677 JUMP JUMPDEST AND DUP3 MSTORE DUP5 MSTORE KECCAK256 SLOAD SWAP1 MLOAD SWAP1 DUP2 MSTORE RETURN JUMPDEST SWAP2 SWAP1 POP CALLVALUE PUSH2 0x17C JUMPI PUSH1 0x20 CALLDATASIZE PUSH1 0x3 NOT ADD SLT PUSH2 0x17C JUMPI DUP2 CALLDATALOAD SWAP2 PUSH1 0xFF PUSH1 0x2 SLOAD AND PUSH1 0x4D DUP2 GT PUSH2 0x375 JUMPI PUSH1 0xA EXP SWAP3 DUP4 DUP2 MUL SWAP4 DUP2 DUP6 DIV EQ SWAP1 ISZERO OR ISZERO PUSH2 0x362 JUMPI PUSH2 0x31B DUP4 PUSH1 0x3 SLOAD PUSH2 0x70E JUMP JUMPDEST PUSH1 0x3 SSTORE CALLER DUP5 MSTORE PUSH1 0x20 MSTORE DUP1 DUP4 KECCAK256 PUSH2 0x332 DUP4 DUP3 SLOAD PUSH2 0x70E JUMP JUMPDEST SWAP1 SSTORE MLOAD SWAP1 DUP2 MSTORE DUP2 PUSH32 0xDDF252AD1BE2C89B69C2B068FC378DAA952BA7F163C4A11628F55A4DF523B3EF PUSH1 0x20 CALLER SWAP4 LOG3 DUP1 RETURN JUMPDEST PUSH4 0x4E487B71 PUSH1 0xE0 SHL DUP5 MSTORE PUSH1 0x11 SWAP1 MSTORE PUSH1 0x24 DUP4 REVERT JUMPDEST PUSH4 0x4E487B71 PUSH1 0xE0 SHL DUP6 MSTORE PUSH1 0x11 DUP3 MSTORE PUSH1 0x24 DUP6 REVERT JUMPDEST POP POP CALLVALUE PUSH2 0xDA JUMPI DUP2 PUSH1 0x3 NOT CALLDATASIZE ADD SLT PUSH2 0xDA JUMPI PUSH1 0x20 SWAP1 PUSH1 0xFF PUSH1 0x2 SLOAD AND SWAP1 MLOAD SWAP1 DUP2 MSTORE RETURN JUMPDEST SWAP1 POP CALLVALUE PUSH2 0x17C JUMPI PUSH1 0x60 CALLDATASIZE PUSH1 0x3 NOT ADD SLT PUSH2 0x17C JUMPI PUSH2 0x3C5 PUSH2 0x677 JUMP JUMPDEST PUSH2 0x3CD PUSH2 0x692 JUMP JUMPDEST SWAP4 PUSH1 0x44 CALLDATALOAD SWAP1 PUSH1 0x1 DUP1 PUSH1 0xA0 SHL SUB DUP1 SWAP4 AND SWAP3 DUP4 DUP3 MSTORE PUSH1 0x20 SWAP7 DUP6 DUP9 MSTORE PUSH2 0x3F5 DUP5 DUP9 DUP6 KECCAK256 SLOAD LT ISZERO PUSH2 0x6A8 JUMP JUMPDEST DUP5 DUP4 MSTORE PUSH1 0x5 DUP9 MSTORE DUP7 DUP4 KECCAK256 CALLER DUP5 MSTORE DUP9 MSTORE DUP4 DUP8 DUP5 KECCAK256 SLOAD LT PUSH2 0x48C JUMPI DUP3 PUSH32 0xDDF252AD1BE2C89B69C2B068FC378DAA952BA7F163C4A11628F55A4DF523B3EF SWAP5 SWAP3 DUP9 SWAP3 DUP8 DUP12 SWAP7 MSTORE DUP9 DUP7 MSTORE DUP4 DUP4 KECCAK256 PUSH2 0x449 DUP7 DUP3 SLOAD PUSH2 0x6EB JUMP JUMPDEST SWAP1 SSTORE AND SWAP7 DUP8 DUP3 MSTORE DUP5 MSTORE DUP2 DUP2 KECCAK256 PUSH2 0x460 DUP5 DUP3 SLOAD PUSH2 0x70E JUMP JUMPDEST SWAP1 SSTORE DUP6 DUP2 MSTORE PUSH1 0x5 DUP5 MSTORE DUP2 DUP2 KECCAK256 CALLER DUP3 MSTORE DUP5 MSTORE KECCAK256 PUSH2 0x47D DUP3 DUP3 SLOAD PUSH2 0x6EB JUMP JUMPDEST SWAP1 SSTORE DUP6 MLOAD SWAP1 DUP2 MSTORE LOG3 MLOAD PUSH1 0x1 DUP2 MSTORE RETURN JUMPDEST DUP7 MLOAD PUSH3 0x461BCD PUSH1 0xE5 SHL DUP2 MSTORE DUP1 DUP8 ADD DUP10 SWAP1 MSTORE PUSH1 0x16 PUSH1 0x24 DUP3 ADD MSTORE PUSH22 0x496E73756666696369656E7420616C6C6F77616E6365 PUSH1 0x50 SHL PUSH1 0x44 DUP3 ADD MSTORE PUSH1 0x64 SWAP1 REVERT JUMPDEST POP POP CALLVALUE PUSH2 0xDA JUMPI DUP2 PUSH1 0x3 NOT CALLDATASIZE ADD SLT PUSH2 0xDA JUMPI PUSH1 0x20 SWAP1 PUSH1 0x3 SLOAD SWAP1 MLOAD SWAP1 DUP2 MSTORE RETURN JUMPDEST POP POP CALLVALUE PUSH2 0xDA JUMPI DUP1 PUSH1 0x3 NOT CALLDATASIZE ADD SLT PUSH2 0xDA JUMPI PUSH1 0x20 SWAP2 DUP2 PUSH2 0x505 PUSH2 0x677 JUMP JUMPDEST SWAP2 PUSH1 0x24 CALLDATALOAD SWAP2 DUP3 SWAP2 CALLER DUP2 MSTORE PUSH1 0x5 DUP8 MSTORE DUP2 DUP2 KECCAK256 SWAP5 PUSH1 0x1 DUP1 PUSH1 0xA0 SHL SUB AND SWAP5 DUP6 DUP3 MSTORE DUP8 MSTORE KECCAK256 SSTORE DUP3 MLOAD SWAP1 DUP2 MSTORE PUSH32 0x8C5BE1E5EBEC7D5BD14F71427D1E84F3DD0314C0F7B2291E5B200AC8C7C3B925 DUP5 CALLER SWAP3 LOG3 MLOAD PUSH1 0x1 DUP2 MSTORE RETURN JUMPDEST DUP5 SWAP1 DUP5 CALLVALUE PUSH2 0x17C JUMPI DUP3 PUSH1 0x3 NOT CALLDATASIZE ADD SLT PUSH2 0x17C JUMPI DUP3 DUP4 SLOAD PUSH1 0x1 DUP2 DUP2 SHR SWAP1 DUP1 DUP4 AND SWAP3 DUP4 ISZERO PUSH2 0x624 JUMPI JUMPDEST PUSH1 0x20 SWAP4 DUP5 DUP5 LT DUP2 EQ PUSH2 0x283 JUMPI DUP4 DUP9 MSTORE SWAP1 DUP2 ISZERO PUSH2 0x267 JUMPI POP PUSH1 0x1 EQ PUSH2 0x5CF JUMPI POP POP POP DUP3 SWAP1 SUB PUSH1 0x1F ADD PUSH1 0x1F NOT AND DUP3 ADD SWAP3 PUSH8 0xFFFFFFFFFFFFFFFF DUP5 GT DUP4 DUP6 LT OR PUSH2 0x1FF JUMPI POP DUP3 SWAP2 DUP3 PUSH2 0x1FB SWAP3 MSTORE DUP3 PUSH2 0x62E JUMP JUMPDEST DUP7 DUP1 MSTORE SWAP2 SWAP3 POP DUP6 SWAP2 DUP4 PUSH32 0x290DECD9548B62A8D60345A988386FC84BA6BC95484008F6362F93160EF3E563 JUMPDEST DUP4 DUP6 LT PUSH2 0x610 JUMPI POP POP POP POP DUP4 ADD ADD DUP6 DUP1 DUP1 PUSH2 0x1C9 JUMP JUMPDEST DUP1 SLOAD DUP9 DUP7 ADD DUP4 ADD MSTORE SWAP4 ADD SWAP3 DUP5 SWAP1 DUP3 ADD PUSH2 0x5FA JUMP JUMPDEST SWAP2 PUSH1 0x7F AND SWAP2 PUSH2 0x57F JUMP JUMPDEST PUSH1 0x20 DUP1 DUP3 MSTORE DUP3 MLOAD DUP2 DUP4 ADD DUP2 SWAP1 MSTORE SWAP1 SWAP4 SWAP3 PUSH1 0x0 JUMPDEST DUP3 DUP2 LT PUSH2 0x663 JUMPI POP POP PUSH1 0x40 SWAP3 SWAP4 POP PUSH1 0x0 DUP4 DUP3 DUP5 ADD ADD MSTORE PUSH1 0x1F DUP1 NOT SWAP2 ADD AND ADD ADD SWAP1 JUMP JUMPDEST DUP2 DUP2 ADD DUP7 ADD MLOAD DUP5 DUP3 ADD PUSH1 0x40 ADD MSTORE DUP6 ADD PUSH2 0x641 JUMP JUMPDEST PUSH1 0x4 CALLDATALOAD SWAP1 PUSH1 0x1 PUSH1 0x1 PUSH1 0xA0 SHL SUB DUP3 AND DUP3 SUB PUSH2 0x68D JUMPI JUMP JUMPDEST PUSH1 0x0 DUP1 REVERT JUMPDEST PUSH1 0x24 CALLDATALOAD SWAP1 PUSH1 0x1 PUSH1 0x1 PUSH1 0xA0 SHL SUB DUP3 AND DUP3 SUB PUSH2 0x68D JUMPI JUMP JUMPDEST ISZERO PUSH2 0x6AF JUMPI JUMP JUMPDEST PUSH1 0x40 MLOAD PUSH3 0x461BCD PUSH1 0xE5 SHL DUP2 MSTORE PUSH1 0x20 PUSH1 0x4 DUP3 ADD MSTORE PUSH1 0x14 PUSH1 0x24 DUP3 ADD MSTORE PUSH20 0x496E73756666696369656E742062616C616E6365 PUSH1 0x60 SHL PUSH1 0x44 DUP3 ADD MSTORE PUSH1 0x64 SWAP1 REVERT JUMPDEST SWAP2 SWAP1 DUP3 SUB SWAP2 DUP3 GT PUSH2 0x6F8 JUMPI JUMP JUMPDEST PUSH4 0x4E487B71 PUSH1 0xE0 SHL PUSH1 0x0 MSTORE PUSH1 0x11 PUSH1 0x4 MSTORE PUSH1 0x24 PUSH1 0x0 REVERT JUMPDEST SWAP2 SWAP1 DUP3 ADD DUP1 SWAP3 GT PUSH2 0x6F8 JUMPI JUMP INVALID LOG2 PUSH5 0x6970667358 0x22 SLT KECCAK256 0x4B 0x5E PUSH3 0x717552 0xA8 GT DUP2 SWAP13 CREATE2 0xBA 0x4B 0x4C 0xB7 0xFC PUSH19 0x1CCD7FDC1C3581836817FB190B37D64736F6C PUSH4 0x43000814 STOP CALLER "},"methodIdentifiers":{"allowance(address,address)":"dd62ed3e","approve(address,uint256)":"095ea7b3","balanceOf(address)":"70a08231","decimals()":"313ce567","faucet(uint256)":"57915897","name()":"06fdde03","symbol()":"95d89b41","totalSupply()":"18160ddd","transfer(address,uint256)":"a9059cbb","transferFrom(address,address,uint256)":"23b872dd"}}}}}