{"contracts/PaymentProcessor.sol":{"PaymentProcessor":{"abi":[{"inputs":[{"internalType":"address","name":"_flarePayProof","type":"address"}],"stateMutability":"nonpayable","type":"constructor"},{"inputs":[],"name":"ReentrancyGuardReentrantCall","type":"error"},{"inputs":[{"internalType":"address","name":"token","type":"address"}],"name":"SafeERC20FailedOperation","type":"error"},{"anonymous":false,"inputs":[{"indexed":true,"internalType":"bytes32","name":"paymentId","type":"bytes32"},{"indexed":true,"internalType":"address","name":"sender","type":"address"},{"indexed":true,"internalType":"address","name":"recipient","type":"address"},{"indexed":false,"internalType":"address","name":"tokenContract","type":"address"},{"indexed":false,"internalType":"uint256","name":"amount","type":"uint256"},{"indexed":false,"internalType":"bytes32","name":"proofId","type":"bytes32"}],"name":"PaymentProcessed","type":"event"},{"anonymous":false,"inputs":[{"indexed":true,"internalType":"address","name":"token","type":"address"},{"indexed":false,"internalType":"string","name":"symbol","type":"string"},{"indexed":false,"internalType":"uint8","name":"decimals","type":"uint8"}],"name":"TokenAdded","type":"event"},{"anonymous":false,"inputs":[{"indexed":true,"internalType":"address","name":"token","type":"address"}],"name":"TokenRemoved","type":"event"},{"inputs":[{"internalType":"address","name":"_token","type":"address"},{"internalType":"string","name":"_symbol","type":"string"},{"internalType":"uint8","name":"_decimals","type":"uint8"}],"name":"addToken","outputs":[],"stateMutability":"nonpayable","type":"function"},{"inputs":[],"name":"flarePayProof","outputs":[{"internalType":"contract IFlarePayProof","name":"","type":"address"}],"stateMutability":"view","type":"function"},{"inputs":[{"internalType":"bytes32","name":"_paymentId","type":"bytes32"}],"name":"getPayment","outputs":[{"components":[{"internalType":"bytes32","name":"paymentId","type":"bytes32"},{"internalType":"address","name":"sender","type":"address"},{"internalType":"address","name":"recipient","type":"address"},{"internalType":"address","name":"tokenContract","type":"address"},{"internalType":"uint256","name":"amount","type":"uint256"},{"internalType":"string","name":"memo","type":"string"},{"internalType":"uint256","name":"timestamp","type":"uint256"},{"internalType":"bytes32","name":"proofId","type":"bytes32"}],"internalType":"struct PaymentProcessor.Payment","name":"","type":"tuple"}],"stateMutability":"view","type":"function"},{"inputs":[{"internalType":"address","name":"_user","type":"address"}],"name":"getUserPayments","outputs":[{"internalType":"bytes32[]","name":"","type":"bytes32[]"}],"stateMutability":"view","type":"function"},{"inputs":[{"internalType":"bytes32","name":"","type":"bytes32"}],"name":"payments","outputs":[{"internalType":"bytes32","name":"paymentId","type":"bytes32"},{"internalType":"address","name":"sender","type":"address"},{"internalType":"address","name":"recipient","type":"address"},{"internalType":"address","name":"tokenContract","type":"address"},{"internalType":"uint256","name":"amount","type":"uint256"},{"internalType":"string","name":"memo","type":"string"},{"internalType":"uint256","name":"timestamp","type":"uint256"},{"internalType":"bytes32","name":"proofId","type":"bytes32"}],"stateMutability":"view","type":"function"},{"inputs":[{"internalType":"address","name":"_recipient","type":"address"},{"internalType":"address","name":"_tokenContract","type":"address"},{"internalType":"uint256","name":"_amount","type":"uint256"},{"internalType":"string","name":"_memo","type":"string"}],"name":"processPayment","outputs":[{"internalType":"bytes32","name":"paymentId","type":"bytes32"},{"internalType":"bytes32","name":"proofId","type":"bytes32"}],"stateMutability":"nonpayable","type":"function"},{"inputs":[{"internalType":"address","name":"_token","type":"address"}],"name":"removeToken","outputs":[],"stateMutability":"nonpayable","type":"function"},{"inputs":[{"internalType":"address","name":"_flarePayProof","type":"address"}],"name":"setFlarePayProof","outputs":[],"stateMutability":"nonpayable","type":"function"},{"inputs":[{"internalType":"address","name":"","type":"address"}],"name":"supportedTokens","outputs":[{"internalType":"bool","name":"","type":"bool"}],"stateMutability":"view","type":"function"},{"inputs":[{"internalType":"address","name":"","type":"address"}],"name":"tokenInfo","outputs":[{"internalType":"string","name":"symbol","type":"string"},{"internalType":"uint8","name":"decimals","type":"uint8"},{"internalType":"bool","name":"active","type":"bool"}],"stateMutability":"view","type":"function"},{"inputs":[],"name":"totalPayments","outputs":[{"internalType":"uint256","name":"","type":"uint256"}],"stateMutability":"view","type":"function"},{"inputs":[{"internalType":"address","name":"","type":"address"},{"internalType":"uint256","name":"","type":"uint256"}],"name":"userPayments","outputs":[{"internalType":"bytes32","name":"","type":"bytes32"}],"stateMutability":"view","type":"function"}],"evm":{"bytecode":{"linkReferences":{},"object":"60803461007557601f61105e38819003918201601f19168301916001600160401b0383118484101761007a5780849260209460405283398101031261007557516001600160a01b0381169081900361007557600160005560018060a01b03196001541617600155604051610fcd90816100918239f35b600080fd5b634e487b7160e01b600052604160045260246000fdfe608080604052600436101561001357600080fd5b60003560e01c9081625b448714610ce0575080630716326d14610c435780635fa7b58414610bce5780636660c02e14610b9457806368c4ac2614610b555780638cfeab3514610afd5780639abd723a14610ad45780639d7dadeb14610a20578063bbe96b0014610470578063de6a48e514610246578063e66eefc8146101155763f5dab711146100a257600080fd5b34610110576020366003190112610110576001600160a01b036100c3610e76565b1660005260036020526100f8604060002060016100df82610d90565b91015460ff604051938493606085526060850190610e36565b91818116602085015260081c16151560408301520390f35b600080fd5b346101105760208060031936011261011057600060e060405161013781610d51565b8281528284820152826040820152826060820152826080820152606060a08201528260c082015201526004356000526004815260406000206040519061017c82610d51565b8054825260018101546001600160a01b0390811684840190815260028301548216604085019081526003840154831660608601908152600485015460808701908152929391929190816101d160058801610d90565b9460a0890195865281600760068a01549960c08c019a8b5201549760e08b019889526040519b8c9b818d5251908c0152511660408a015251166060880152511660808601525160a08501525190610236610100928360c0870152610120860190610e36565b925160e085015251908301520390f35b346101105760603660031901126101105761025f610e76565b67ffffffffffffffff9060243582811161011057610281903690600401610eba565b6044359260ff84168094036101105760018060a01b03169283600052602090600282526040600020956001968760ff19825416179055604051906102c482610d35565b80851161045a57604051601f1998906102e4601f88018b16870182610d6e565b86815236878901116101105786888783013760008688830101528352848301928484526040810192828452896000526003875260406000209151805191821161045a5761033b826103358554610cfb565b85610f09565b879b601f83116001146103d5575090807f3be0896d4cd1d645bdae8ade25a54bcdbb2c685ce55ac7e7bead95d0802b32de9b9c60ff9594936000926103ca575b5050600019600383901b1c191690831b1781555b0192511661ff0083549251151560081b169161ffff1916171790556103c1604051948594604086526040860191610ee8565b918301520390a2005b015190508d8061037b565b82169083600052886000209160005b8181106104455750917f3be0896d4cd1d645bdae8ade25a54bcdbb2c685ce55ac7e7bead95d0802b32de9c9d849287969560ff98951061042c575b505050811b01815561038f565b015160001960f88460031b161c191690558d808061041f565b828f015184559d8a019d928601928a016103e4565b634e487b7160e01b600052604160045260246000fd5b3461011057608036600319011261011057610489610e76565b6024356001600160a01b03811690036101105760643567ffffffffffffffff8111610110576104bc903690600401610eba565b600260005414610a0e5760026000556001600160a01b038316156109d5576044351561099b576024356001600160a01b031660009081526002602052604090205460ff16156109605760018060a01b0360243516600052600360205260406000209160ff60016040519461052f86610d35565b61053881610d90565b86520154818116602086015260081c16151560408401526040516323b872dd60e01b602082015233602482015260018060a01b03851660448201526044356064820152606481528060a081011067ffffffffffffffff60a08301111761045a5760a081016040528051602091600091908301826024356001600160a01b03165af115610929576000513d61095757506024356001600160a01b03163b155b6109355760065491604051923360601b60208501526001600160601b0319808760601b16603486015260243560601b166048850152604435605c85015242607c850152609c840152609c83528260c081011067ffffffffffffffff60c08501111761045a5760c083016040819052835160208086019190912060015487830151975163651dcd1560e01b90945260c487018290526001600160a01b0389811660e4890152602435811661010489015260443561012489015260ff90981661014488015260e0610164880152909691929116906106b7906101a4870190610e36565b9060c3198683030161018487015260c0860191866106d960bf19928789610ee8565b030190600060c08801915af1928315610929576000936108ef575b508360005260046020526040600020848155600181016001600160601b0360a01b9033828254161790556002820160018060a01b03881682825416179055600382019060018060a01b036024351690825416179055604435600482015567ffffffffffffffff821161045a578391600582019061077b816107758454610cfb565b84610f09565b6000601f821160011461087e57819060079596600092610873575b50508160011b916000199060031b1c19161790555b42600682015501553360005260056020526107ca826040600020610f5d565b60018060a01b03831660005260056020526107e9826040600020610f5d565b60065492600019841461085d5760016040940160065583519060018060a01b036024351682526044356020830152828583015260018060a01b031690837fddb76e8131a22a8b5ff749aaf0df2a9943baefe29776c5b776bc56893861042e60603393a4600160005582519182526020820152f35b634e487b7160e01b600052601160045260246000fd5b013590508980610796565b948260005260206000209560005b601f19841681106108d4575095829160079697600194601f198116106108ba575b505050811b0190556107ab565b0135600019600384901b60f8161c191690558980806108ad565b8183013588556001909701968896506020918201910161088c565b9092506020813d602011610921575b8161090e60209360c08401610d6e565b810103126101105760c0015191856106f4565b3d91506108fe565b6040513d6000823e3d90fd5b604051635274afe760e01b8152602480356001600160a01b0316600483015290fd5b600114156105d6565b60405162461bcd60e51b8152602060048201526013602482015272151bdad95b881b9bdd081cdd5c1c1bdc9d1959606a1b6044820152606490fd5b60405162461bcd60e51b81526020600482015260126024820152710416d6f756e74206d757374206265203e20360741b6044820152606490fd5b60405162461bcd60e51b8152602060048201526011602482015270125b9d985b1a59081c9958da5c1a595b9d607a1b6044820152606490fd5b604051633ee5aeb560e01b8152600490fd5b3461011057602080600319360112610110576001600160a01b03610a42610e76565b1660005260058152604060002060405190818382549182815201908192600052846000209060005b86828210610ac0578686610a8082880383610d6e565b604051928392818401908285525180915260408401929160005b828110610aa957505050500390f35b835185528695509381019392810192600101610a9a565b835485529093019260019283019201610a6a565b34610110576000366003190112610110576001546040516001600160a01b039091168152602090f35b3461011057604036600319011261011057610b16610e76565b6001600160a01b031660009081526005602052604090208054602435919082101561011057602091610b4791610e8c565b90546040519160031b1c8152f35b34610110576020366003190112610110576001600160a01b03610b76610e76565b166000526002602052602060ff604060002054166040519015158152f35b34610110576020366003190112610110576001600160a01b03610bb5610e76565b166001600160601b0360a01b6001541617600155600080f35b34610110576020366003190112610110576001600160a01b03610bef610e76565b16806000526002602052604060002060ff1981541690556003602052600160406000200161ff001981541690557f4c910b69fe65a61f7531b9c5042b2329ca7179c77290aa7e2eb3afa3c8511fd3600080a2005b346101105760203660031901126101105760043560005260046020526040600020805460018060a01b03918260018201541692610cd181600284015416916003840154166004840154610c9860058601610d90565b916007600687015496015494604051988998895260208901526040880152606087015260808601526101008060a0870152850190610e36565b9160c084015260e08301520390f35b34610110576000366003190112610110576020906006548152f35b90600182811c92168015610d2b575b6020831014610d1557565b634e487b7160e01b600052602260045260246000fd5b91607f1691610d0a565b6060810190811067ffffffffffffffff82111761045a57604052565b610100810190811067ffffffffffffffff82111761045a57604052565b90601f8019910116810190811067ffffffffffffffff82111761045a57604052565b9060405191826000825492610da484610cfb565b908184526001948581169081600014610e135750600114610dd0575b5050610dce92500383610d6e565b565b9093915060005260209081600020936000915b818310610dfb575050610dce93508201013880610dc0565b85548884018501529485019487945091830191610de3565b915050610dce94506020925060ff191682840152151560051b8201013880610dc0565b919082519283825260005b848110610e62575050826000602080949584010152601f8019910116010190565b602081830181015184830182015201610e41565b600435906001600160a01b038216820361011057565b8054821015610ea45760005260206000200190600090565b634e487b7160e01b600052603260045260246000fd5b9181601f840112156101105782359167ffffffffffffffff8311610110576020838186019501011161011057565b908060209392818452848401376000828201840152601f01601f1916010190565b90601f8111610f1757505050565b600091825260208220906020601f850160051c83019410610f53575b601f0160051c01915b828110610f4857505050565b818155600101610f3c565b9092508290610f33565b80546801000000000000000081101561045a57610f7f91600182018155610e8c565b819291549060031b91821b91600019901b191617905556fea2646970667358221220bd585884f766667ce512b574743c96f4d3f7ac4a6a62f2122f2d311cad8971c164736f6c63430008140033","opcodes":"PUSH1 0x80 CALLVALUE PUSH2 0x75 JUMPI PUSH1 0x1F PUSH2 0x105E CODESIZE DUP2 SWAP1 SUB SWAP2 DUP3 ADD PUSH1 0x1F NOT AND DUP4 ADD SWAP2 PUSH1 0x1 PUSH1 0x1 PUSH1 0x40 SHL SUB DUP4 GT DUP5 DUP5 LT OR PUSH2 0x7A JUMPI DUP1 DUP5 SWAP3 PUSH1 0x20 SWAP5 PUSH1 0x40 MSTORE DUP4 CODECOPY DUP2 ADD SUB SLT PUSH2 0x75 JUMPI MLOAD PUSH1 0x1 PUSH1 0x1 PUSH1 0xA0 SHL SUB DUP2 AND SWAP1 DUP2 SWAP1 SUB PUSH2 0x75 JUMPI PUSH1 0x1 PUSH1 0x0 SSTORE PUSH1 0x1 DUP1 PUSH1 0xA0 SHL SUB NOT PUSH1 0x1 SLOAD AND OR PUSH1 0x1 SSTORE PUSH1 0x40 MLOAD PUSH2 0xFCD SWAP1 DUP2 PUSH2 0x91 DUP3 CODECOPY RETURN JUMPDEST PUSH1 0x0 DUP1 REVERT JUMPDEST PUSH4 0x4E487B71 PUSH1 0xE0 SHL PUSH1 0x0 MSTORE PUSH1 0x41 PUSH1 0x4 MSTORE PUSH1 0x24 PUSH1 0x0 REVERT INVALID PUSH1 0x80 DUP1 PUSH1 0x40 MSTORE PUSH1 0x4 CALLDATASIZE LT ISZERO PUSH2 0x13 JUMPI PUSH1 0x0 DUP1 REVERT JUMPDEST PUSH1 0x0 CALLDATALOAD PUSH1 0xE0 SHR SWAP1 DUP2 PUSH3 0x5B4487 EQ PUSH2 0xCE0 JUMPI POP DUP1 PUSH4 0x716326D EQ PUSH2 0xC43 JUMPI DUP1 PUSH4 0x5FA7B584 EQ PUSH2 0xBCE JUMPI DUP1 PUSH4 0x6660C02E EQ PUSH2 0xB94 JUMPI DUP1 PUSH4 0x68C4AC26 EQ PUSH2 0xB55 JUMPI DUP1 PUSH4 0x8CFEAB35 EQ PUSH2 0xAFD JUMPI DUP1 PUSH4 0x9ABD723A EQ PUSH2 0xAD4 JUMPI DUP1 PUSH4 0x9D7DADEB EQ PUSH2 0xA20 JUMPI DUP1 PUSH4 0xBBE96B00 EQ PUSH2 0x470 JUMPI DUP1 PUSH4 0xDE6A48E5 EQ PUSH2 0x246 JUMPI DUP1 PUSH4 0xE66EEFC8 EQ PUSH2 0x115 JUMPI PUSH4 0xF5DAB711 EQ PUSH2 0xA2 JUMPI PUSH1 0x0 DUP1 REVERT JUMPDEST CALLVALUE PUSH2 0x110 JUMPI PUSH1 0x20 CALLDATASIZE PUSH1 0x3 NOT ADD SLT PUSH2 0x110 JUMPI PUSH1 0x1 PUSH1 0x1 PUSH1 0xA0 SHL SUB PUSH2 0xC3 PUSH2 0xE76 JUMP JUMPDEST AND PUSH1 0x0 MSTORE PUSH1 0x3 PUSH1 0x20 MSTORE PUSH2 0xF8 PUSH1 0x40 PUSH1 0x0 KECCAK256 PUSH1 0x1 PUSH2 0xDF DUP3 PUSH2 0xD90 JUMP JUMPDEST SWAP2 ADD SLOAD PUSH1 0xFF PUSH1 0x40 MLOAD SWAP4 DUP5 SWAP4 PUSH1 0x60 DUP6 MSTORE PUSH1 0x60 DUP6 ADD SWAP1 PUSH2 0xE36 JUMP JUMPDEST SWAP2 DUP2 DUP2 AND PUSH1 0x20 DUP6 ADD MSTORE PUSH1 0x8 SHR AND ISZERO ISZERO PUSH1 0x40 DUP4 ADD MSTORE SUB SWAP1 RETURN JUMPDEST PUSH1 0x0 DUP1 REVERT JUMPDEST CALLVALUE PUSH2 0x110 JUMPI PUSH1 0x20 DUP1 PUSH1 0x3 NOT CALLDATASIZE ADD SLT PUSH2 0x110 JUMPI PUSH1 0x0 PUSH1 0xE0 PUSH1 0x40 MLOAD PUSH2 0x137 DUP2 PUSH2 0xD51 JUMP JUMPDEST DUP3 DUP2 MSTORE DUP3 DUP5 DUP3 ADD MSTORE DUP3 PUSH1 0x40 DUP3 ADD MSTORE DUP3 PUSH1 0x60 DUP3 ADD MSTORE DUP3 PUSH1 0x80 DUP3 ADD MSTORE PUSH1 0x60 PUSH1 0xA0 DUP3 ADD MSTORE DUP3 PUSH1 0xC0 DUP3 ADD MSTORE ADD MSTORE PUSH1 0x4 CALLDATALOAD PUSH1 0x0 MSTORE PUSH1 0x4 DUP2 MSTORE PUSH1 0x40 PUSH1 0x0 KECCAK256 PUSH1 0x40 MLOAD SWAP1 PUSH2 0x17C DUP3 PUSH2 0xD51 JUMP JUMPDEST DUP1 SLOAD DUP3 MSTORE PUSH1 0x1 DUP2 ADD SLOAD PUSH1 0x1 PUSH1 0x1 PUSH1 0xA0 SHL SUB SWAP1 DUP2 AND DUP5 DUP5 ADD SWAP1 DUP2 MSTORE PUSH1 0x2 DUP4 ADD SLOAD DUP3 AND PUSH1 0x40 DUP6 ADD SWAP1 DUP2 MSTORE PUSH1 0x3 DUP5 ADD SLOAD DUP4 AND PUSH1 0x60 DUP7 ADD SWAP1 DUP2 MSTORE PUSH1 0x4 DUP6 ADD SLOAD PUSH1 0x80 DUP8 ADD SWAP1 DUP2 MSTORE SWAP3 SWAP4 SWAP2 SWAP3 SWAP2 SWAP1 DUP2 PUSH2 0x1D1 PUSH1 0x5 DUP9 ADD PUSH2 0xD90 JUMP JUMPDEST SWAP5 PUSH1 0xA0 DUP10 ADD SWAP6 DUP7 MSTORE DUP2 PUSH1 0x7 PUSH1 0x6 DUP11 ADD SLOAD SWAP10 PUSH1 0xC0 DUP13 ADD SWAP11 DUP12 MSTORE ADD SLOAD SWAP8 PUSH1 0xE0 DUP12 ADD SWAP9 DUP10 MSTORE PUSH1 0x40 MLOAD SWAP12 DUP13 SWAP12 DUP2 DUP14 MSTORE MLOAD SWAP1 DUP13 ADD MSTORE MLOAD AND PUSH1 0x40 DUP11 ADD MSTORE MLOAD AND PUSH1 0x60 DUP9 ADD MSTORE MLOAD AND PUSH1 0x80 DUP7 ADD MSTORE MLOAD PUSH1 0xA0 DUP6 ADD MSTORE MLOAD SWAP1 PUSH2 0x236 PUSH2 0x100 SWAP3 DUP4 PUSH1 0xC0 DUP8 ADD MSTORE PUSH2 0x120 DUP7 ADD SWAP1 PUSH2 0xE36 JUMP JUMPDEST SWAP3 MLOAD PUSH1 0xE0 DUP6 ADD MSTORE MLOAD SWAP1 DUP4 ADD MSTORE SUB SWAP1 RETURN JUMPDEST CALLVALUE PUSH2 0x110 JUMPI PUSH1 0x60 CALLDATASIZE PUSH1 0x3 NOT ADD SLT PUSH2 0x110 JUMPI PUSH2 0x25F PUSH2 0xE76 JUMP JUMPDEST PUSH8 0xFFFFFFFFFFFFFFFF SWAP1 PUSH1 0x24 CALLDATALOAD DUP3 DUP2 GT PUSH2 0x110 JUMPI PUSH2 0x281 SWAP1 CALLDATASIZE SWAP1 PUSH1 0x4 ADD PUSH2 0xEBA JUMP JUMPDEST PUSH1 0x44 CALLDATALOAD SWAP3 PUSH1 0xFF DUP5 AND DUP1 SWAP5 SUB PUSH2 0x110 JUMPI PUSH1 0x1 DUP1 PUSH1 0xA0 SHL SUB AND SWAP3 DUP4 PUSH1 0x0 MSTORE PUSH1 0x20 SWAP1 PUSH1 0x2 DUP3 MSTORE PUSH1 0x40 PUSH1 0x0 KECCAK256 SWAP6 PUSH1 0x1 SWAP7 DUP8 PUSH1 0xFF NOT DUP3 SLOAD AND OR SWAP1 SSTORE PUSH1 0x40 MLOAD SWAP1 PUSH2 0x2C4 DUP3 PUSH2 0xD35 JUMP JUMPDEST DUP1 DUP6 GT PUSH2 0x45A JUMPI PUSH1 0x40 MLOAD PUSH1 0x1F NOT SWAP9 SWAP1 PUSH2 0x2E4 PUSH1 0x1F DUP9 ADD DUP12 AND DUP8 ADD DUP3 PUSH2 0xD6E JUMP JUMPDEST DUP7 DUP2 MSTORE CALLDATASIZE DUP8 DUP10 ADD GT PUSH2 0x110 JUMPI DUP7 DUP9 DUP8 DUP4 ADD CALLDATACOPY PUSH1 0x0 DUP7 DUP9 DUP4 ADD ADD MSTORE DUP4 MSTORE DUP5 DUP4 ADD SWAP3 DUP5 DUP5 MSTORE PUSH1 0x40 DUP2 ADD SWAP3 DUP3 DUP5 MSTORE DUP10 PUSH1 0x0 MSTORE PUSH1 0x3 DUP8 MSTORE PUSH1 0x40 PUSH1 0x0 KECCAK256 SWAP2 MLOAD DUP1 MLOAD SWAP2 DUP3 GT PUSH2 0x45A JUMPI PUSH2 0x33B DUP3 PUSH2 0x335 DUP6 SLOAD PUSH2 0xCFB JUMP JUMPDEST DUP6 PUSH2 0xF09 JUMP JUMPDEST DUP8 SWAP12 PUSH1 0x1F DUP4 GT PUSH1 0x1 EQ PUSH2 0x3D5 JUMPI POP SWAP1 DUP1 PUSH32 0x3BE0896D4CD1D645BDAE8ADE25A54BCDBB2C685CE55AC7E7BEAD95D0802B32DE SWAP12 SWAP13 PUSH1 0xFF SWAP6 SWAP5 SWAP4 PUSH1 0x0 SWAP3 PUSH2 0x3CA JUMPI JUMPDEST POP POP PUSH1 0x0 NOT PUSH1 0x3 DUP4 SWAP1 SHL SHR NOT AND SWAP1 DUP4 SHL OR DUP2 SSTORE JUMPDEST ADD SWAP3 MLOAD AND PUSH2 0xFF00 DUP4 SLOAD SWAP3 MLOAD ISZERO ISZERO PUSH1 0x8 SHL AND SWAP2 PUSH2 0xFFFF NOT AND OR OR SWAP1 SSTORE PUSH2 0x3C1 PUSH1 0x40 MLOAD SWAP5 DUP6 SWAP5 PUSH1 0x40 DUP7 MSTORE PUSH1 0x40 DUP7 ADD SWAP2 PUSH2 0xEE8 JUMP JUMPDEST SWAP2 DUP4 ADD MSTORE SUB SWAP1 LOG2 STOP JUMPDEST ADD MLOAD SWAP1 POP DUP14 DUP1 PUSH2 0x37B JUMP JUMPDEST DUP3 AND SWAP1 DUP4 PUSH1 0x0 MSTORE DUP9 PUSH1 0x0 KECCAK256 SWAP2 PUSH1 0x0 JUMPDEST DUP2 DUP2 LT PUSH2 0x445 JUMPI POP SWAP2 PUSH32 0x3BE0896D4CD1D645BDAE8ADE25A54BCDBB2C685CE55AC7E7BEAD95D0802B32DE SWAP13 SWAP14 DUP5 SWAP3 DUP8 SWAP7 SWAP6 PUSH1 0xFF SWAP9 SWAP6 LT PUSH2 0x42C JUMPI JUMPDEST POP POP POP DUP2 SHL ADD DUP2 SSTORE PUSH2 0x38F JUMP JUMPDEST ADD MLOAD PUSH1 0x0 NOT PUSH1 0xF8 DUP5 PUSH1 0x3 SHL AND SHR NOT AND SWAP1 SSTORE DUP14 DUP1 DUP1 PUSH2 0x41F JUMP JUMPDEST DUP3 DUP16 ADD MLOAD DUP5 SSTORE SWAP14 DUP11 ADD SWAP14 SWAP3 DUP7 ADD SWAP3 DUP11 ADD PUSH2 0x3E4 JUMP JUMPDEST PUSH4 0x4E487B71 PUSH1 0xE0 SHL PUSH1 0x0 MSTORE PUSH1 0x41 PUSH1 0x4 MSTORE PUSH1 0x24 PUSH1 0x0 REVERT JUMPDEST CALLVALUE PUSH2 0x110 JUMPI PUSH1 0x80 CALLDATASIZE PUSH1 0x3 NOT ADD SLT PUSH2 0x110 JUMPI PUSH2 0x489 PUSH2 0xE76 JUMP JUMPDEST PUSH1 0x24 CALLDATALOAD PUSH1 0x1 PUSH1 0x1 PUSH1 0xA0 SHL SUB DUP2 AND SWAP1 SUB PUSH2 0x110 JUMPI PUSH1 0x64 CALLDATALOAD PUSH8 0xFFFFFFFFFFFFFFFF DUP2 GT PUSH2 0x110 JUMPI PUSH2 0x4BC SWAP1 CALLDATASIZE SWAP1 PUSH1 0x4 ADD PUSH2 0xEBA JUMP JUMPDEST PUSH1 0x2 PUSH1 0x0 SLOAD EQ PUSH2 0xA0E JUMPI PUSH1 0x2 PUSH1 0x0 SSTORE PUSH1 0x1 PUSH1 0x1 PUSH1 0xA0 SHL SUB DUP4 AND ISZERO PUSH2 0x9D5 JUMPI PUSH1 0x44 CALLDATALOAD ISZERO PUSH2 0x99B JUMPI PUSH1 0x24 CALLDATALOAD PUSH1 0x1 PUSH1 0x1 PUSH1 0xA0 SHL SUB AND PUSH1 0x0 SWAP1 DUP2 MSTORE PUSH1 0x2 PUSH1 0x20 MSTORE PUSH1 0x40 SWAP1 KECCAK256 SLOAD PUSH1 0xFF AND ISZERO PUSH2 0x960 JUMPI PUSH1 0x1 DUP1 PUSH1 0xA0 SHL SUB PUSH1 0x24 CALLDATALOAD AND PUSH1 0x0 MSTORE PUSH1 0x3 PUSH1 0x20 MSTORE PUSH1 0x40 PUSH1 0x0 KECCAK256 SWAP2 PUSH1 0xFF PUSH1 0x1 PUSH1 0x40 MLOAD SWAP5 PUSH2 0x52F DUP7 PUSH2 0xD35 JUMP JUMPDEST PUSH2 0x538 DUP2 PUSH2 0xD90 JUMP JUMPDEST DUP7 MSTORE ADD SLOAD DUP2 DUP2 AND PUSH1 0x20 DUP7 ADD MSTORE PUSH1 0x8 SHR AND ISZERO ISZERO PUSH1 0x40 DUP5 ADD MSTORE PUSH1 0x40 MLOAD PUSH4 0x23B872DD PUSH1 0xE0 SHL PUSH1 0x20 DUP3 ADD MSTORE CALLER PUSH1 0x24 DUP3 ADD MSTORE PUSH1 0x1 DUP1 PUSH1 0xA0 SHL SUB DUP6 AND PUSH1 0x44 DUP3 ADD MSTORE PUSH1 0x44 CALLDATALOAD PUSH1 0x64 DUP3 ADD MSTORE PUSH1 0x64 DUP2 MSTORE DUP1 PUSH1 0xA0 DUP2 ADD LT PUSH8 0xFFFFFFFFFFFFFFFF PUSH1 0xA0 DUP4 ADD GT OR PUSH2 0x45A JUMPI PUSH1 0xA0 DUP2 ADD PUSH1 0x40 MSTORE DUP1 MLOAD PUSH1 0x20 SWAP2 PUSH1 0x0 SWAP2 SWAP1 DUP4 ADD DUP3 PUSH1 0x24 CALLDATALOAD PUSH1 0x1 PUSH1 0x1 PUSH1 0xA0 SHL SUB AND GAS CALL ISZERO PUSH2 0x929 JUMPI PUSH1 0x0 MLOAD RETURNDATASIZE PUSH2 0x957 JUMPI POP PUSH1 0x24 CALLDATALOAD PUSH1 0x1 PUSH1 0x1 PUSH1 0xA0 SHL SUB AND EXTCODESIZE ISZERO JUMPDEST PUSH2 0x935 JUMPI PUSH1 0x6 SLOAD SWAP2 PUSH1 0x40 MLOAD SWAP3 CALLER PUSH1 0x60 SHL PUSH1 0x20 DUP6 ADD MSTORE PUSH1 0x1 PUSH1 0x1 PUSH1 0x60 SHL SUB NOT DUP1 DUP8 PUSH1 0x60 SHL AND PUSH1 0x34 DUP7 ADD MSTORE PUSH1 0x24 CALLDATALOAD PUSH1 0x60 SHL AND PUSH1 0x48 DUP6 ADD MSTORE PUSH1 0x44 CALLDATALOAD PUSH1 0x5C DUP6 ADD MSTORE TIMESTAMP PUSH1 0x7C DUP6 ADD MSTORE PUSH1 0x9C DUP5 ADD MSTORE PUSH1 0x9C DUP4 MSTORE DUP3 PUSH1 0xC0 DUP2 ADD LT PUSH8 0xFFFFFFFFFFFFFFFF PUSH1 0xC0 DUP6 ADD GT OR PUSH2 0x45A JUMPI PUSH1 0xC0 DUP4 ADD PUSH1 0x40 DUP2 SWAP1 MSTORE DUP4 MLOAD PUSH1 0x20 DUP1 DUP7 ADD SWAP2 SWAP1 SWAP2 KECCAK256 PUSH1 0x1 SLOAD DUP8 DUP4 ADD MLOAD SWAP8 MLOAD PUSH4 0x651DCD15 PUSH1 0xE0 SHL SWAP1 SWAP5 MSTORE PUSH1 0xC4 DUP8 ADD DUP3 SWAP1 MSTORE PUSH1 0x1 PUSH1 0x1 PUSH1 0xA0 SHL SUB DUP10 DUP2 AND PUSH1 0xE4 DUP10 ADD MSTORE PUSH1 0x24 CALLDATALOAD DUP2 AND PUSH2 0x104 DUP10 ADD MSTORE PUSH1 0x44 CALLDATALOAD PUSH2 0x124 DUP10 ADD MSTORE PUSH1 0xFF SWAP1 SWAP9 AND PUSH2 0x144 DUP9 ADD MSTORE PUSH1 0xE0 PUSH2 0x164 DUP9 ADD MSTORE SWAP1 SWAP7 SWAP2 SWAP3 SWAP2 AND SWAP1 PUSH2 0x6B7 SWAP1 PUSH2 0x1A4 DUP8 ADD SWAP1 PUSH2 0xE36 JUMP JUMPDEST SWAP1 PUSH1 0xC3 NOT DUP7 DUP4 SUB ADD PUSH2 0x184 DUP8 ADD MSTORE PUSH1 0xC0 DUP7 ADD SWAP2 DUP7 PUSH2 0x6D9 PUSH1 0xBF NOT SWAP3 DUP8 DUP10 PUSH2 0xEE8 JUMP JUMPDEST SUB ADD SWAP1 PUSH1 0x0 PUSH1 0xC0 DUP9 ADD SWAP2 GAS CALL SWAP3 DUP4 ISZERO PUSH2 0x929 JUMPI PUSH1 0x0 SWAP4 PUSH2 0x8EF JUMPI JUMPDEST POP DUP4 PUSH1 0x0 MSTORE PUSH1 0x4 PUSH1 0x20 MSTORE PUSH1 0x40 PUSH1 0x0 KECCAK256 DUP5 DUP2 SSTORE PUSH1 0x1 DUP2 ADD PUSH1 0x1 PUSH1 0x1 PUSH1 0x60 SHL SUB PUSH1 0xA0 SHL SWAP1 CALLER DUP3 DUP3 SLOAD AND OR SWAP1 SSTORE PUSH1 0x2 DUP3 ADD PUSH1 0x1 DUP1 PUSH1 0xA0 SHL SUB DUP9 AND DUP3 DUP3 SLOAD AND OR SWAP1 SSTORE PUSH1 0x3 DUP3 ADD SWAP1 PUSH1 0x1 DUP1 PUSH1 0xA0 SHL SUB PUSH1 0x24 CALLDATALOAD AND SWAP1 DUP3 SLOAD AND OR SWAP1 SSTORE PUSH1 0x44 CALLDATALOAD PUSH1 0x4 DUP3 ADD SSTORE PUSH8 0xFFFFFFFFFFFFFFFF DUP3 GT PUSH2 0x45A JUMPI DUP4 SWAP2 PUSH1 0x5 DUP3 ADD SWAP1 PUSH2 0x77B DUP2 PUSH2 0x775 DUP5 SLOAD PUSH2 0xCFB JUMP JUMPDEST DUP5 PUSH2 0xF09 JUMP JUMPDEST PUSH1 0x0 PUSH1 0x1F DUP3 GT PUSH1 0x1 EQ PUSH2 0x87E JUMPI DUP2 SWAP1 PUSH1 0x7 SWAP6 SWAP7 PUSH1 0x0 SWAP3 PUSH2 0x873 JUMPI JUMPDEST POP POP DUP2 PUSH1 0x1 SHL SWAP2 PUSH1 0x0 NOT SWAP1 PUSH1 0x3 SHL SHR NOT AND OR SWAP1 SSTORE JUMPDEST TIMESTAMP PUSH1 0x6 DUP3 ADD SSTORE ADD SSTORE CALLER PUSH1 0x0 MSTORE PUSH1 0x5 PUSH1 0x20 MSTORE PUSH2 0x7CA DUP3 PUSH1 0x40 PUSH1 0x0 KECCAK256 PUSH2 0xF5D JUMP JUMPDEST PUSH1 0x1 DUP1 PUSH1 0xA0 SHL SUB DUP4 AND PUSH1 0x0 MSTORE PUSH1 0x5 PUSH1 0x20 MSTORE PUSH2 0x7E9 DUP3 PUSH1 0x40 PUSH1 0x0 KECCAK256 PUSH2 0xF5D JUMP JUMPDEST PUSH1 0x6 SLOAD SWAP3 PUSH1 0x0 NOT DUP5 EQ PUSH2 0x85D JUMPI PUSH1 0x1 PUSH1 0x40 SWAP5 ADD PUSH1 0x6 SSTORE DUP4 MLOAD SWAP1 PUSH1 0x1 DUP1 PUSH1 0xA0 SHL SUB PUSH1 0x24 CALLDATALOAD AND DUP3 MSTORE PUSH1 0x44 CALLDATALOAD PUSH1 0x20 DUP4 ADD MSTORE DUP3 DUP6 DUP4 ADD MSTORE PUSH1 0x1 DUP1 PUSH1 0xA0 SHL SUB AND SWAP1 DUP4 PUSH32 0xDDB76E8131A22A8B5FF749AAF0DF2A9943BAEFE29776C5B776BC56893861042E PUSH1 0x60 CALLER SWAP4 LOG4 PUSH1 0x1 PUSH1 0x0 SSTORE DUP3 MLOAD SWAP2 DUP3 MSTORE PUSH1 0x20 DUP3 ADD MSTORE RETURN JUMPDEST PUSH4 0x4E487B71 PUSH1 0xE0 SHL PUSH1 0x0 MSTORE PUSH1 0x11 PUSH1 0x4 MSTORE PUSH1 0x24 PUSH1 0x0 REVERT JUMPDEST ADD CALLDATALOAD SWAP1 POP DUP10 DUP1 PUSH2 0x796 JUMP JUMPDEST SWAP5 DUP3 PUSH1 0x0 MSTORE PUSH1 0x20 PUSH1 0x0 KECCAK256 SWAP6 PUSH1 0x0 JUMPDEST PUSH1 0x1F NOT DUP5 AND DUP2 LT PUSH2 0x8D4 JUMPI POP SWAP6 DUP3 SWAP2 PUSH1 0x7 SWAP7 SWAP8 PUSH1 0x1 SWAP5 PUSH1 0x1F NOT DUP2 AND LT PUSH2 0x8BA JUMPI JUMPDEST POP POP POP DUP2 SHL ADD SWAP1 SSTORE PUSH2 0x7AB JUMP JUMPDEST ADD CALLDATALOAD PUSH1 0x0 NOT PUSH1 0x3 DUP5 SWAP1 SHL PUSH1 0xF8 AND SHR NOT AND SWAP1 SSTORE DUP10 DUP1 DUP1 PUSH2 0x8AD JUMP JUMPDEST DUP2 DUP4 ADD CALLDATALOAD DUP9 SSTORE PUSH1 0x1 SWAP1 SWAP8 ADD SWAP7 DUP9 SWAP7 POP PUSH1 0x20 SWAP2 DUP3 ADD SWAP2 ADD PUSH2 0x88C JUMP JUMPDEST SWAP1 SWAP3 POP PUSH1 0x20 DUP2 RETURNDATASIZE PUSH1 0x20 GT PUSH2 0x921 JUMPI JUMPDEST DUP2 PUSH2 0x90E PUSH1 0x20 SWAP4 PUSH1 0xC0 DUP5 ADD PUSH2 0xD6E JUMP JUMPDEST DUP2 ADD SUB SLT PUSH2 0x110 JUMPI PUSH1 0xC0 ADD MLOAD SWAP2 DUP6 PUSH2 0x6F4 JUMP JUMPDEST RETURNDATASIZE SWAP2 POP PUSH2 0x8FE JUMP JUMPDEST PUSH1 0x40 MLOAD RETURNDATASIZE PUSH1 0x0 DUP3 RETURNDATACOPY RETURNDATASIZE SWAP1 REVERT JUMPDEST PUSH1 0x40 MLOAD PUSH4 0x5274AFE7 PUSH1 0xE0 SHL DUP2 MSTORE PUSH1 0x24 DUP1 CALLDATALOAD PUSH1 0x1 PUSH1 0x1 PUSH1 0xA0 SHL SUB AND PUSH1 0x4 DUP4 ADD MSTORE SWAP1 REVERT JUMPDEST PUSH1 0x1 EQ ISZERO PUSH2 0x5D6 JUMP JUMPDEST PUSH1 0x40 MLOAD PUSH3 0x461BCD PUSH1 0xE5 SHL DUP2 MSTORE PUSH1 0x20 PUSH1 0x4 DUP3 ADD MSTORE PUSH1 0x13 PUSH1 0x24 DUP3 ADD MSTORE PUSH19 0x151BDAD95B881B9BDD081CDD5C1C1BDC9D1959 PUSH1 0x6A SHL PUSH1 0x44 DUP3 ADD MSTORE PUSH1 0x64 SWAP1 REVERT JUMPDEST PUSH1 0x40 MLOAD PUSH3 0x461BCD PUSH1 0xE5 SHL DUP2 MSTORE PUSH1 0x20 PUSH1 0x4 DUP3 ADD MSTORE PUSH1 0x12 PUSH1 0x24 DUP3 ADD MSTORE PUSH18 0x416D6F756E74206D757374206265203E203 PUSH1 0x74 SHL PUSH1 0x44 DUP3 ADD MSTORE PUSH1 0x64 SWAP1 REVERT JUMPDEST PUSH1 0x40 MLOAD PUSH3 0x461BCD PUSH1 0xE5 SHL DUP2 MSTORE PUSH1 0x20 PUSH1 0x4 DUP3 ADD MSTORE PUSH1 0x11 PUSH1 0x24 DUP3 ADD MSTORE PUSH17 0x125B9D985B1A59081C9958DA5C1A595B9D PUSH1 0x7A SHL PUSH1 0x44 DUP3 ADD MSTORE PUSH1 0x64 SWAP1 REVERT JUMPDEST PUSH1 0x40 MLOAD PUSH4 0x3EE5AEB5 PUSH1 0xE0 SHL DUP2 MSTORE PUSH1 0x4 SWAP1 REVERT JUMPDEST CALLVALUE PUSH2 0x110 JUMPI PUSH1 0x20 DUP1 PUSH1 0x3 NOT CALLDATASIZE ADD SLT PUSH2 0x110 JUMPI PUSH1 0x1 PUSH1 0x1 PUSH1 0xA0 SHL SUB PUSH2 0xA42 PUSH2 0xE76 JUMP JUMPDEST AND PUSH1 0x0 MSTORE PUSH1 0x5 DUP2 MSTORE PUSH1 0x40 PUSH1 0x0 KECCAK256 PUSH1 0x40 MLOAD SWAP1 DUP2 DUP4 DUP3 SLOAD SWAP2 DUP3 DUP2 MSTORE ADD SWAP1 DUP2 SWAP3 PUSH1 0x0 MSTORE DUP5 PUSH1 0x0 KECCAK256 SWAP1 PUSH1 0x0 JUMPDEST DUP7 DUP3 DUP3 LT PUSH2 0xAC0 JUMPI DUP7 DUP7 PUSH2 0xA80 DUP3 DUP9 SUB DUP4 PUSH2 0xD6E JUMP JUMPDEST PUSH1 0x40 MLOAD SWAP3 DUP4 SWAP3 DUP2 DUP5 ADD SWAP1 DUP3 DUP6 MSTORE MLOAD DUP1 SWAP2 MSTORE PUSH1 0x40 DUP5 ADD SWAP3 SWAP2 PUSH1 0x0 JUMPDEST DUP3 DUP2 LT PUSH2 0xAA9 JUMPI POP POP POP POP SUB SWAP1 RETURN JUMPDEST DUP4 MLOAD DUP6 MSTORE DUP7 SWAP6 POP SWAP4 DUP2 ADD SWAP4 SWAP3 DUP2 ADD SWAP3 PUSH1 0x1 ADD PUSH2 0xA9A JUMP JUMPDEST DUP4 SLOAD DUP6 MSTORE SWAP1 SWAP4 ADD SWAP3 PUSH1 0x1 SWAP3 DUP4 ADD SWAP3 ADD PUSH2 0xA6A JUMP JUMPDEST CALLVALUE PUSH2 0x110 JUMPI PUSH1 0x0 CALLDATASIZE PUSH1 0x3 NOT ADD SLT PUSH2 0x110 JUMPI PUSH1 0x1 SLOAD PUSH1 0x40 MLOAD PUSH1 0x1 PUSH1 0x1 PUSH1 0xA0 SHL SUB SWAP1 SWAP2 AND DUP2 MSTORE PUSH1 0x20 SWAP1 RETURN JUMPDEST CALLVALUE PUSH2 0x110 JUMPI PUSH1 0x40 CALLDATASIZE PUSH1 0x3 NOT ADD SLT PUSH2 0x110 JUMPI PUSH2 0xB16 PUSH2 0xE76 JUMP JUMPDEST PUSH1 0x1 PUSH1 0x1 PUSH1 0xA0 SHL SUB AND PUSH1 0x0 SWAP1 DUP2 MSTORE PUSH1 0x5 PUSH1 0x20 MSTORE PUSH1 0x40 SWAP1 KECCAK256 DUP1 SLOAD PUSH1 0x24 CALLDATALOAD SWAP2 SWAP1 DUP3 LT ISZERO PUSH2 0x110 JUMPI PUSH1 0x20 SWAP2 PUSH2 0xB47 SWAP2 PUSH2 0xE8C JUMP JUMPDEST SWAP1 SLOAD PUSH1 0x40 MLOAD SWAP2 PUSH1 0x3 SHL SHR DUP2 MSTORE RETURN JUMPDEST CALLVALUE PUSH2 0x110 JUMPI PUSH1 0x20 CALLDATASIZE PUSH1 0x3 NOT ADD SLT PUSH2 0x110 JUMPI PUSH1 0x1 PUSH1 0x1 PUSH1 0xA0 SHL SUB PUSH2 0xB76 PUSH2 0xE76 JUMP JUMPDEST AND PUSH1 0x0 MSTORE PUSH1 0x2 PUSH1 0x20 MSTORE PUSH1 0x20 PUSH1 0xFF PUSH1 0x40 PUSH1 0x0 KECCAK256 SLOAD AND PUSH1 0x40 MLOAD SWAP1 ISZERO ISZERO DUP2 MSTORE RETURN JUMPDEST CALLVALUE PUSH2 0x110 JUMPI PUSH1 0x20 CALLDATASIZE PUSH1 0x3 NOT ADD SLT PUSH2 0x110 JUMPI PUSH1 0x1 PUSH1 0x1 PUSH1 0xA0 SHL SUB PUSH2 0xBB5 PUSH2 0xE76 JUMP JUMPDEST AND PUSH1 0x1 PUSH1 0x1 PUSH1 0x60 SHL SUB PUSH1 0xA0 SHL PUSH1 0x1 SLOAD AND OR PUSH1 0x1 SSTORE PUSH1 0x0 DUP1 RETURN JUMPDEST CALLVALUE PUSH2 0x110 JUMPI PUSH1 0x20 CALLDATASIZE PUSH1 0x3 NOT ADD SLT PUSH2 0x110 JUMPI PUSH1 0x1 PUSH1 0x1 PUSH1 0xA0 SHL SUB PUSH2 0xBEF PUSH2 0xE76 JUMP JUMPDEST AND DUP1 PUSH1 0x0 MSTORE PUSH1 0x2 PUSH1 0x20 MSTORE PUSH1 0x40 PUSH1 0x0 KECCAK256 PUSH1 0xFF NOT DUP2 SLOAD AND SWAP1 SSTORE PUSH1 0x3 PUSH1 0x20 MSTORE PUSH1 0x1 PUSH1 0x40 PUSH1 0x0 KECCAK256 ADD PUSH2 0xFF00 NOT DUP2 SLOAD AND SWAP1 SSTORE PUSH32 0x4C910B69FE65A61F7531B9C5042B2329CA7179C77290AA7E2EB3AFA3C8511FD3 PUSH1 0x0 DUP1 LOG2 STOP JUMPDEST CALLVALUE PUSH2 0x110 JUMPI PUSH1 0x20 CALLDATASIZE PUSH1 0x3 NOT ADD SLT PUSH2 0x110 JUMPI PUSH1 0x4 CALLDATALOAD PUSH1 0x0 MSTORE PUSH1 0x4 PUSH1 0x20 MSTORE PUSH1 0x40 PUSH1 0x0 KECCAK256 DUP1 SLOAD PUSH1 0x1 DUP1 PUSH1 0xA0 SHL SUB SWAP2 DUP3 PUSH1 0x1 DUP3 ADD SLOAD AND SWAP3 PUSH2 0xCD1 DUP2 PUSH1 0x2 DUP5 ADD SLOAD AND SWAP2 PUSH1 0x3 DUP5 ADD SLOAD AND PUSH1 0x4 DUP5 ADD SLOAD PUSH2 0xC98 PUSH1 0x5 DUP7 ADD PUSH2 0xD90 JUMP JUMPDEST SWAP2 PUSH1 0x7 PUSH1 0x6 DUP8 ADD SLOAD SWAP7 ADD SLOAD SWAP5 PUSH1 0x40 MLOAD SWAP9 DUP10 SWAP9 DUP10 MSTORE PUSH1 0x20 DUP10 ADD MSTORE PUSH1 0x40 DUP9 ADD MSTORE PUSH1 0x60 DUP8 ADD MSTORE PUSH1 0x80 DUP7 ADD MSTORE PUSH2 0x100 DUP1 PUSH1 0xA0 DUP8 ADD MSTORE DUP6 ADD SWAP1 PUSH2 0xE36 JUMP JUMPDEST SWAP2 PUSH1 0xC0 DUP5 ADD MSTORE PUSH1 0xE0 DUP4 ADD MSTORE SUB SWAP1 RETURN JUMPDEST CALLVALUE PUSH2 0x110 JUMPI PUSH1 0x0 CALLDATASIZE PUSH1 0x3 NOT ADD SLT PUSH2 0x110 JUMPI PUSH1 0x20 SWAP1 PUSH1 0x6 SLOAD DUP2 MSTORE RETURN JUMPDEST SWAP1 PUSH1 0x1 DUP3 DUP2 SHR SWAP3 AND DUP1 ISZERO PUSH2 0xD2B JUMPI JUMPDEST PUSH1 0x20 DUP4 LT EQ PUSH2 0xD15 JUMPI JUMP JUMPDEST PUSH4 0x4E487B71 PUSH1 0xE0 SHL PUSH1 0x0 MSTORE PUSH1 0x22 PUSH1 0x4 MSTORE PUSH1 0x24 PUSH1 0x0 REVERT JUMPDEST SWAP2 PUSH1 0x7F AND SWAP2 PUSH2 0xD0A JUMP JUMPDEST PUSH1 0x60 DUP2 ADD SWAP1 DUP2 LT PUSH8 0xFFFFFFFFFFFFFFFF DUP3 GT OR PUSH2 0x45A JUMPI PUSH1 0x40 MSTORE JUMP JUMPDEST PUSH2 0x100 DUP2 ADD SWAP1 DUP2 LT PUSH8 0xFFFFFFFFFFFFFFFF DUP3 GT OR PUSH2 0x45A JUMPI PUSH1 0x40 MSTORE JUMP JUMPDEST SWAP1 PUSH1 0x1F DUP1 NOT SWAP2 ADD AND DUP2 ADD SWAP1 DUP2 LT PUSH8 0xFFFFFFFFFFFFFFFF DUP3 GT OR PUSH2 0x45A JUMPI PUSH1 0x40 MSTORE JUMP JUMPDEST SWAP1 PUSH1 0x40 MLOAD SWAP2 DUP3 PUSH1 0x0 DUP3 SLOAD SWAP3 PUSH2 0xDA4 DUP5 PUSH2 0xCFB JUMP JUMPDEST SWAP1 DUP2 DUP5 MSTORE PUSH1 0x1 SWAP5 DUP6 DUP2 AND SWAP1 DUP2 PUSH1 0x0 EQ PUSH2 0xE13 JUMPI POP PUSH1 0x1 EQ PUSH2 0xDD0 JUMPI JUMPDEST POP POP PUSH2 0xDCE SWAP3 POP SUB DUP4 PUSH2 0xD6E JUMP JUMPDEST JUMP JUMPDEST SWAP1 SWAP4 SWAP2 POP PUSH1 0x0 MSTORE PUSH1 0x20 SWAP1 DUP2 PUSH1 0x0 KECCAK256 SWAP4 PUSH1 0x0 SWAP2 JUMPDEST DUP2 DUP4 LT PUSH2 0xDFB JUMPI POP POP PUSH2 0xDCE SWAP4 POP DUP3 ADD ADD CODESIZE DUP1 PUSH2 0xDC0 JUMP JUMPDEST DUP6 SLOAD DUP9 DUP5 ADD DUP6 ADD MSTORE SWAP5 DUP6 ADD SWAP5 DUP8 SWAP5 POP SWAP2 DUP4 ADD SWAP2 PUSH2 0xDE3 JUMP JUMPDEST SWAP2 POP POP PUSH2 0xDCE SWAP5 POP PUSH1 0x20 SWAP3 POP PUSH1 0xFF NOT AND DUP3 DUP5 ADD MSTORE ISZERO ISZERO PUSH1 0x5 SHL DUP3 ADD ADD CODESIZE DUP1 PUSH2 0xDC0 JUMP JUMPDEST SWAP2 SWAP1 DUP3 MLOAD SWAP3 DUP4 DUP3 MSTORE PUSH1 0x0 JUMPDEST DUP5 DUP2 LT PUSH2 0xE62 JUMPI POP POP DUP3 PUSH1 0x0 PUSH1 0x20 DUP1 SWAP5 SWAP6 DUP5 ADD ADD MSTORE PUSH1 0x1F DUP1 NOT SWAP2 ADD AND ADD ADD SWAP1 JUMP JUMPDEST PUSH1 0x20 DUP2 DUP4 ADD DUP2 ADD MLOAD DUP5 DUP4 ADD DUP3 ADD MSTORE ADD PUSH2 0xE41 JUMP JUMPDEST PUSH1 0x4 CALLDATALOAD SWAP1 PUSH1 0x1 PUSH1 0x1 PUSH1 0xA0 SHL SUB DUP3 AND DUP3 SUB PUSH2 0x110 JUMPI JUMP JUMPDEST DUP1 SLOAD DUP3 LT ISZERO PUSH2 0xEA4 JUMPI PUSH1 0x0 MSTORE PUSH1 0x20 PUSH1 0x0 KECCAK256 ADD SWAP1 PUSH1 0x0 SWAP1 JUMP JUMPDEST PUSH4 0x4E487B71 PUSH1 0xE0 SHL PUSH1 0x0 MSTORE PUSH1 0x32 PUSH1 0x4 MSTORE PUSH1 0x24 PUSH1 0x0 REVERT JUMPDEST SWAP2 DUP2 PUSH1 0x1F DUP5 ADD SLT ISZERO PUSH2 0x110 JUMPI DUP3 CALLDATALOAD SWAP2 PUSH8 0xFFFFFFFFFFFFFFFF DUP4 GT PUSH2 0x110 JUMPI PUSH1 0x20 DUP4 DUP2 DUP7 ADD SWAP6 ADD ADD GT PUSH2 0x110 JUMPI JUMP JUMPDEST SWAP1 DUP1 PUSH1 0x20 SWAP4 SWAP3 DUP2 DUP5 MSTORE DUP5 DUP5 ADD CALLDATACOPY PUSH1 0x0 DUP3 DUP3 ADD DUP5 ADD MSTORE PUSH1 0x1F ADD PUSH1 0x1F NOT AND ADD ADD SWAP1 JUMP JUMPDEST SWAP1 PUSH1 0x1F DUP2 GT PUSH2 0xF17 JUMPI POP POP POP JUMP JUMPDEST PUSH1 0x0 SWAP2 DUP3 MSTORE PUSH1 0x20 DUP3 KECCAK256 SWAP1 PUSH1 0x20 PUSH1 0x1F DUP6 ADD PUSH1 0x5 SHR DUP4 ADD SWAP5 LT PUSH2 0xF53 JUMPI JUMPDEST PUSH1 0x1F ADD PUSH1 0x5 SHR ADD SWAP2 JUMPDEST DUP3 DUP2 LT PUSH2 0xF48 JUMPI POP POP POP JUMP JUMPDEST DUP2 DUP2 SSTORE PUSH1 0x1 ADD PUSH2 0xF3C JUMP JUMPDEST SWAP1 SWAP3 POP DUP3 SWAP1 PUSH2 0xF33 JUMP JUMPDEST DUP1 SLOAD PUSH9 0x10000000000000000 DUP2 LT ISZERO PUSH2 0x45A JUMPI PUSH2 0xF7F SWAP2 PUSH1 0x1 DUP3 ADD DUP2 SSTORE PUSH2 0xE8C JUMP JUMPDEST DUP2 SWAP3 SWAP2 SLOAD SWAP1 PUSH1 0x3 SHL SWAP2 DUP3 SHL SWAP2 PUSH1 0x0 NOT SWAP1 SHL NOT AND OR SWAP1 SSTORE JUMP INVALID LOG2 PUSH5 0x6970667358 0x22 SLT KECCAK256 0xBD PC PC DUP5 0xF7 PUSH7 0x667CE512B57474 EXTCODECOPY SWAP7 DELEGATECALL 0xD3 0xF7 0xAC 0x4A PUSH11 0x62F2122F2D311CAD8971C1 PUSH5 0x736F6C6343 STOP ADDMOD EQ STOP CALLER "},"methodIdentifiers":{"addToken(address,string,uint8)":"de6a48e5","flarePayProof()":"9abd723a","getPayment(bytes32)":"e66eefc8","getUserPayments(address)":"9d7dadeb","payments(bytes32)":"0716326d","processPayment(address,address,uint256,string)":"bbe96b00","removeToken(address)":"5fa7b584","setFlarePayProof(address)":"6660c02e","supportedTokens(address)":"68c4ac26","tokenInfo(address)":"f5dab711","totalPayments()":"005b4487","userPayments(address,uint256)":"8cfeab35"}}}}}