{"contracts/SimpleTestToken.sol":{"SimpleTestToken":{"abi":[{"inputs":[{"internalType":"uint256","name":"initialSupply","type":"uint256"}],"stateMutability":"nonpayable","type":"constructor"},{"anonymous":false,"inputs":[{"indexed":true,"internalType":"address","name":"owner","type":"address"},{"indexed":true,"internalType":"address","name":"spender","type":"address"},{"indexed":false,"internalType":"uint256","name":"value","type":"uint256"}],"name":"Approval","type":"event"},{"anonymous":false,"inputs":[{"indexed":true,"internalType":"address","name":"from","type":"address"},{"indexed":true,"internalType":"address","name":"to","type":"address"},{"indexed":false,"internalType":"uint256","name":"value","type":"uint256"}],"name":"Transfer","type":"event"},{"inputs":[{"internalType":"address","name":"","type":"address"},{"internalType":"address","name":"","type":"address"}],"name":"allowance","outputs":[{"internalType":"uint256","name":"","type":"uint256"}],"stateMutability":"view","type":"function"},{"inputs":[{"internalType":"address","name":"spender","type":"address"},{"internalType":"uint256","name":"value","type":"uint256"}],"name":"approve","outputs":[{"internalType":"bool","name":"","type":"bool"}],"stateMutability":"nonpayable","type":"function"},{"inputs":[{"internalType":"address","name":"","type":"address"}],"name":"balanceOf","outputs":[{"internalType":"uint256","name":"","type":"uint256"}],"stateMutability":"view","type":"function"},{"inputs":[],"name":"decimals","outputs":[{"internalType":"uint8","name":"","type":"uint8"}],"stateMutability":"view","type":"function"},{"inputs":[{"internalType":"uint256","name":"amount","type":"uint256"}],"name":"faucet","outputs":[],"stateMutability":"nonpayable","type":"function"},{"inputs":[],"name":"name","outputs":[{"internalType":"string","name":"","type":"string"}],"stateMutability":"view","type":"function"},{"inputs":[],"name":"symbol","outputs":[{"internalType":"string","name":"","type":"string"}],"stateMutability":"view","type":"function"},{"inputs":[],"name":"totalSupply","outputs":[{"internalType":"uint256","name":"","type":"uint256"}],"stateMutability":"view","type":"function"},{"inputs":[{"internalType":"address","name":"to","type":"address"},{"internalType":"uint256","name":"value","type":"uint256"}],"name":"transfer","outputs":[{"internalType":"bool","name":"","type":"bool"}],"stateMutability":"nonpayable","type":"function"},{"inputs":[{"internalType":"address","name":"from","type":"address"},{"internalType":"address","name":"to","type":"address"},{"internalType":"uint256","name":"value","type":"uint256"}],"name":"transferFrom","outputs":[{"internalType":"bool","name":"","type":"bool"}],"stateMutability":"nonpayable","type":"function"}],"evm":{"bytecode":{"linkReferences":{},"object":"60c0604052600960809081526815195cdd081554d11560ba1b60a0526000906200002a9082620001ac565b50604080518082019091526005815264151554d11560da1b6020820152600190620000569082620001ac565b506002805460ff191660061790553480156200007157600080fd5b5060405162000cc338038062000cc3833981016040819052620000949162000278565b600254620000a79060ff16600a620003a7565b620000b39082620003bf565b600381905533600081815260046020908152604080832085905551938452919290917fddf252ad1be2c89b69c2b068fc378daa952ba7f163c4a11628f55a4df523b3ef910160405180910390a350620003d9565b634e487b7160e01b600052604160045260246000fd5b600181811c908216806200013257607f821691505b6020821081036200015357634e487b7160e01b600052602260045260246000fd5b50919050565b601f821115620001a757600081815260208120601f850160051c81016020861015620001825750805b601f850160051c820191505b81811015620001a3578281556001016200018e565b5050505b505050565b81516001600160401b03811115620001c857620001c862000107565b620001e081620001d984546200011d565b8462000159565b602080601f831160018114620002185760008415620001ff5750858301515b600019600386901b1c1916600185901b178555620001a3565b600085815260208120601f198616915b82811015620002495788860151825594840194600190910190840162000228565b5085821015620002685787850151600019600388901b60f8161c191681555b5050505050600190811b01905550565b6000602082840312156200028b57600080fd5b5051919050565b634e487b7160e01b600052601160045260246000fd5b600181815b80851115620002e9578160001904821115620002cd57620002cd62000292565b80851615620002db57918102915b93841c9390800290620002ad565b509250929050565b6000826200030257506001620003a1565b816200031157506000620003a1565b81600181146200032a5760028114620003355762000355565b6001915050620003a1565b60ff84111562000349576200034962000292565b50506001821b620003a1565b5060208310610133831016604e8410600b84101617156200037a575081810a620003a1565b620003868383620002a8565b80600019048211156200039d576200039d62000292565b0290505b92915050565b6000620003b860ff841683620002f1565b9392505050565b8082028115828204841417620003a157620003a162000292565b6108da80620003e96000396000f3fe608060405234801561001057600080fd5b506004361061009e5760003560e01c80635791589711610066578063579158971461012d57806370a082311461014257806395d89b4114610162578063a9059cbb1461016a578063dd62ed3e1461017d57600080fd5b806306fdde03146100a3578063095ea7b3146100c157806318160ddd146100e457806323b872dd146100fb578063313ce5671461010e575b600080fd5b6100ab6101a8565b6040516100b891906105e6565b60405180910390f35b6100d46100cf366004610650565b610236565b60405190151581526020016100b8565b6100ed60035481565b6040519081526020016100b8565b6100d461010936600461067a565b6102a3565b60025461011b9060ff1681565b60405160ff90911681526020016100b8565b61014061013b3660046106b6565b61045e565b005b6100ed6101503660046106cf565b60046020526000908152604090205481565b6100ab6104f5565b6100d4610178366004610650565b610502565b6100ed61018b3660046106f1565b600560209081526000928352604080842090915290825290205481565b600080546101b590610724565b80601f01602080910402602001604051908101604052809291908181526020018280546101e190610724565b801561022e5780601f106102035761010080835404028352916020019161022e565b820191906000526020600020905b81548152906001019060200180831161021157829003601f168201915b505050505081565b3360008181526005602090815260408083206001600160a01b038716808552925280832085905551919290917f8c5be1e5ebec7d5bd14f71427d1e84f3dd0314c0f7b2291e5b200ac8c7c3b925906102919086815260200190565b60405180910390a35060015b92915050565b6001600160a01b0383166000908152600460205260408120548211156103075760405162461bcd60e51b8152602060048201526014602482015273496e73756666696369656e742062616c616e636560601b60448201526064015b60405180910390fd5b6001600160a01b03841660009081526005602090815260408083203384529091529020548211156103735760405162461bcd60e51b8152602060048201526016602482015275496e73756666696369656e7420616c6c6f77616e636560501b60448201526064016102fe565b6001600160a01b0384166000908152600460205260408120805484929061039b908490610774565b90915550506001600160a01b038316600090815260046020526040812080548492906103c8908490610787565b90915550506001600160a01b038416600090815260056020908152604080832033845290915281208054849290610400908490610774565b92505081905550826001600160a01b0316846001600160a01b03167fddf252ad1be2c89b69c2b068fc378daa952ba7f163c4a11628f55a4df523b3ef8460405161044c91815260200190565b60405180910390a35060019392505050565b6002546000906104729060ff16600a61087e565b61047c908361088d565b905080600360008282546104909190610787565b909155505033600090815260046020526040812080548392906104b4908490610787565b909155505060405181815233906000907fddf252ad1be2c89b69c2b068fc378daa952ba7f163c4a11628f55a4df523b3ef9060200160405180910390a35050565b600180546101b590610724565b336000908152600460205260408120548211156105585760405162461bcd60e51b8152602060048201526014602482015273496e73756666696369656e742062616c616e636560601b60448201526064016102fe565b3360009081526004602052604081208054849290610577908490610774565b90915550506001600160a01b038316600090815260046020526040812080548492906105a4908490610787565b90915550506040518281526001600160a01b0384169033907fddf252ad1be2c89b69c2b068fc378daa952ba7f163c4a11628f55a4df523b3ef90602001610291565b600060208083528351808285015260005b81811015610613578581018301518582016040015282016105f7565b506000604082860101526040601f19601f8301168501019250505092915050565b80356001600160a01b038116811461064b57600080fd5b919050565b6000806040838503121561066357600080fd5b61066c83610634565b946020939093013593505050565b60008060006060848603121561068f57600080fd5b61069884610634565b92506106a660208501610634565b9150604084013590509250925092565b6000602082840312156106c857600080fd5b5035919050565b6000602082840312156106e157600080fd5b6106ea82610634565b9392505050565b6000806040838503121561070457600080fd5b61070d83610634565b915061071b60208401610634565b90509250929050565b600181811c9082168061073857607f821691505b60208210810361075857634e487b7160e01b600052602260045260246000fd5b50919050565b634e487b7160e01b600052601160045260246000fd5b8181038181111561029d5761029d61075e565b8082018082111561029d5761029d61075e565b600181815b808511156107d55781600019048211156107bb576107bb61075e565b808516156107c857918102915b93841c939080029061079f565b509250929050565b6000826107ec5750600161029d565b816107f95750600061029d565b816001811461080f576002811461081957610835565b600191505061029d565b60ff84111561082a5761082a61075e565b50506001821b61029d565b5060208310610133831016604e8410600b8410161715610858575081810a61029d565b610862838361079a565b80600019048211156108765761087661075e565b029392505050565b60006106ea60ff8416836107dd565b808202811582820484141761029d5761029d61075e56fea264697066735822122082df82df9ed0150e2833b1c4221d35decd2d0df7ea408696cffd539da144054264736f6c63430008140033","opcodes":"PUSH1 0xC0 PUSH1 0x40 MSTORE PUSH1 0x9 PUSH1 0x80 SWAP1 DUP2 MSTORE PUSH9 0x15195CDD081554D115 PUSH1 0xBA SHL PUSH1 0xA0 MSTORE PUSH1 0x0 SWAP1 PUSH3 0x2A SWAP1 DUP3 PUSH3 0x1AC JUMP JUMPDEST POP PUSH1 0x40 DUP1 MLOAD DUP1 DUP3 ADD SWAP1 SWAP2 MSTORE PUSH1 0x5 DUP2 MSTORE PUSH5 0x151554D115 PUSH1 0xDA SHL PUSH1 0x20 DUP3 ADD MSTORE PUSH1 0x1 SWAP1 PUSH3 0x56 SWAP1 DUP3 PUSH3 0x1AC JUMP JUMPDEST POP PUSH1 0x2 DUP1 SLOAD PUSH1 0xFF NOT AND PUSH1 0x6 OR SWAP1 SSTORE CALLVALUE DUP1 ISZERO PUSH3 0x71 JUMPI PUSH1 0x0 DUP1 REVERT JUMPDEST POP PUSH1 0x40 MLOAD PUSH3 0xCC3 CODESIZE SUB DUP1 PUSH3 0xCC3 DUP4 CODECOPY DUP2 ADD PUSH1 0x40 DUP2 SWAP1 MSTORE PUSH3 0x94 SWAP2 PUSH3 0x278 JUMP JUMPDEST PUSH1 0x2 SLOAD PUSH3 0xA7 SWAP1 PUSH1 0xFF AND PUSH1 0xA PUSH3 0x3A7 JUMP JUMPDEST PUSH3 0xB3 SWAP1 DUP3 PUSH3 0x3BF JUMP JUMPDEST PUSH1 0x3 DUP2 SWAP1 SSTORE CALLER PUSH1 0x0 DUP2 DUP2 MSTORE PUSH1 0x4 PUSH1 0x20 SWAP1 DUP2 MSTORE PUSH1 0x40 DUP1 DUP4 KECCAK256 DUP6 SWAP1 SSTORE MLOAD SWAP4 DUP5 MSTORE SWAP2 SWAP3 SWAP1 SWAP2 PUSH32 0xDDF252AD1BE2C89B69C2B068FC378DAA952BA7F163C4A11628F55A4DF523B3EF SWAP2 ADD PUSH1 0x40 MLOAD DUP1 SWAP2 SUB SWAP1 LOG3 POP PUSH3 0x3D9 JUMP JUMPDEST PUSH4 0x4E487B71 PUSH1 0xE0 SHL PUSH1 0x0 MSTORE PUSH1 0x41 PUSH1 0x4 MSTORE PUSH1 0x24 PUSH1 0x0 REVERT JUMPDEST PUSH1 0x1 DUP2 DUP2 SHR SWAP1 DUP3 AND DUP1 PUSH3 0x132 JUMPI PUSH1 0x7F DUP3 AND SWAP2 POP JUMPDEST PUSH1 0x20 DUP3 LT DUP2 SUB PUSH3 0x153 JUMPI PUSH4 0x4E487B71 PUSH1 0xE0 SHL PUSH1 0x0 MSTORE PUSH1 0x22 PUSH1 0x4 MSTORE PUSH1 0x24 PUSH1 0x0 REVERT JUMPDEST POP SWAP2 SWAP1 POP JUMP JUMPDEST PUSH1 0x1F DUP3 GT ISZERO PUSH3 0x1A7 JUMPI PUSH1 0x0 DUP2 DUP2 MSTORE PUSH1 0x20 DUP2 KECCAK256 PUSH1 0x1F DUP6 ADD PUSH1 0x5 SHR DUP2 ADD PUSH1 0x20 DUP7 LT ISZERO PUSH3 0x182 JUMPI POP DUP1 JUMPDEST PUSH1 0x1F DUP6 ADD PUSH1 0x5 SHR DUP3 ADD SWAP2 POP JUMPDEST DUP2 DUP2 LT ISZERO PUSH3 0x1A3 JUMPI DUP3 DUP2 SSTORE PUSH1 0x1 ADD PUSH3 0x18E JUMP JUMPDEST POP POP POP JUMPDEST POP POP POP JUMP JUMPDEST DUP2 MLOAD PUSH1 0x1 PUSH1 0x1 PUSH1 0x40 SHL SUB DUP2 GT ISZERO PUSH3 0x1C8 JUMPI PUSH3 0x1C8 PUSH3 0x107 JUMP JUMPDEST PUSH3 0x1E0 DUP2 PUSH3 0x1D9 DUP5 SLOAD PUSH3 0x11D JUMP JUMPDEST DUP5 PUSH3 0x159 JUMP JUMPDEST PUSH1 0x20 DUP1 PUSH1 0x1F DUP4 GT PUSH1 0x1 DUP2 EQ PUSH3 0x218 JUMPI PUSH1 0x0 DUP5 ISZERO PUSH3 0x1FF JUMPI POP DUP6 DUP4 ADD MLOAD JUMPDEST PUSH1 0x0 NOT PUSH1 0x3 DUP7 SWAP1 SHL SHR NOT AND PUSH1 0x1 DUP6 SWAP1 SHL OR DUP6 SSTORE PUSH3 0x1A3 JUMP JUMPDEST PUSH1 0x0 DUP6 DUP2 MSTORE PUSH1 0x20 DUP2 KECCAK256 PUSH1 0x1F NOT DUP7 AND SWAP2 JUMPDEST DUP3 DUP2 LT ISZERO PUSH3 0x249 JUMPI DUP9 DUP7 ADD MLOAD DUP3 SSTORE SWAP5 DUP5 ADD SWAP5 PUSH1 0x1 SWAP1 SWAP2 ADD SWAP1 DUP5 ADD PUSH3 0x228 JUMP JUMPDEST POP DUP6 DUP3 LT ISZERO PUSH3 0x268 JUMPI DUP8 DUP6 ADD MLOAD PUSH1 0x0 NOT PUSH1 0x3 DUP9 SWAP1 SHL PUSH1 0xF8 AND SHR NOT AND DUP2 SSTORE JUMPDEST POP POP POP POP POP PUSH1 0x1 SWAP1 DUP2 SHL ADD SWAP1 SSTORE POP JUMP JUMPDEST PUSH1 0x0 PUSH1 0x20 DUP3 DUP5 SUB SLT ISZERO PUSH3 0x28B JUMPI PUSH1 0x0 DUP1 REVERT JUMPDEST POP MLOAD SWAP2 SWAP1 POP JUMP JUMPDEST PUSH4 0x4E487B71 PUSH1 0xE0 SHL PUSH1 0x0 MSTORE PUSH1 0x11 PUSH1 0x4 MSTORE PUSH1 0x24 PUSH1 0x0 REVERT JUMPDEST PUSH1 0x1 DUP2 DUP2 JUMPDEST DUP1 DUP6 GT ISZERO PUSH3 0x2E9 JUMPI DUP2 PUSH1 0x0 NOT DIV DUP3 GT ISZERO PUSH3 0x2CD JUMPI PUSH3 0x2CD PUSH3 0x292 JUMP JUMPDEST DUP1 DUP6 AND ISZERO PUSH3 0x2DB JUMPI SWAP2 DUP2 MUL SWAP2 JUMPDEST SWAP4 DUP5 SHR SWAP4 SWAP1 DUP1 MUL SWAP1 PUSH3 0x2AD JUMP JUMPDEST POP SWAP3 POP SWAP3 SWAP1 POP JUMP JUMPDEST PUSH1 0x0 DUP3 PUSH3 0x302 JUMPI POP PUSH1 0x1 PUSH3 0x3A1 JUMP JUMPDEST DUP2 PUSH3 0x311 JUMPI POP PUSH1 0x0 PUSH3 0x3A1 JUMP JUMPDEST DUP2 PUSH1 0x1 DUP2 EQ PUSH3 0x32A JUMPI PUSH1 0x2 DUP2 EQ PUSH3 0x335 JUMPI PUSH3 0x355 JUMP JUMPDEST PUSH1 0x1 SWAP2 POP POP PUSH3 0x3A1 JUMP JUMPDEST PUSH1 0xFF DUP5 GT ISZERO PUSH3 0x349 JUMPI PUSH3 0x349 PUSH3 0x292 JUMP JUMPDEST POP POP PUSH1 0x1 DUP3 SHL PUSH3 0x3A1 JUMP JUMPDEST POP PUSH1 0x20 DUP4 LT PUSH2 0x133 DUP4 LT AND PUSH1 0x4E DUP5 LT PUSH1 0xB DUP5 LT AND OR ISZERO PUSH3 0x37A JUMPI POP DUP2 DUP2 EXP PUSH3 0x3A1 JUMP JUMPDEST PUSH3 0x386 DUP4 DUP4 PUSH3 0x2A8 JUMP JUMPDEST DUP1 PUSH1 0x0 NOT DIV DUP3 GT ISZERO PUSH3 0x39D JUMPI PUSH3 0x39D PUSH3 0x292 JUMP JUMPDEST MUL SWAP1 POP JUMPDEST SWAP3 SWAP2 POP POP JUMP JUMPDEST PUSH1 0x0 PUSH3 0x3B8 PUSH1 0xFF DUP5 AND DUP4 PUSH3 0x2F1 JUMP JUMPDEST SWAP4 SWAP3 POP POP POP JUMP JUMPDEST DUP1 DUP3 MUL DUP2 ISZERO DUP3 DUP3 DIV DUP5 EQ OR PUSH3 0x3A1 JUMPI PUSH3 0x3A1 PUSH3 0x292 JUMP JUMPDEST PUSH2 0x8DA DUP1 PUSH3 0x3E9 PUSH1 0x0 CODECOPY PUSH1 0x0 RETURN INVALID PUSH1 0x80 PUSH1 0x40 MSTORE CALLVALUE DUP1 ISZERO PUSH2 0x10 JUMPI PUSH1 0x0 DUP1 REVERT JUMPDEST POP PUSH1 0x4 CALLDATASIZE LT PUSH2 0x9E JUMPI PUSH1 0x0 CALLDATALOAD PUSH1 0xE0 SHR DUP1 PUSH4 0x57915897 GT PUSH2 0x66 JUMPI DUP1 PUSH4 0x57915897 EQ PUSH2 0x12D JUMPI DUP1 PUSH4 0x70A08231 EQ PUSH2 0x142 JUMPI DUP1 PUSH4 0x95D89B41 EQ PUSH2 0x162 JUMPI DUP1 PUSH4 0xA9059CBB EQ PUSH2 0x16A JUMPI DUP1 PUSH4 0xDD62ED3E EQ PUSH2 0x17D JUMPI PUSH1 0x0 DUP1 REVERT JUMPDEST DUP1 PUSH4 0x6FDDE03 EQ PUSH2 0xA3 JUMPI DUP1 PUSH4 0x95EA7B3 EQ PUSH2 0xC1 JUMPI DUP1 PUSH4 0x18160DDD EQ PUSH2 0xE4 JUMPI DUP1 PUSH4 0x23B872DD EQ PUSH2 0xFB JUMPI DUP1 PUSH4 0x313CE567 EQ PUSH2 0x10E JUMPI JUMPDEST PUSH1 0x0 DUP1 REVERT JUMPDEST PUSH2 0xAB PUSH2 0x1A8 JUMP JUMPDEST PUSH1 0x40 MLOAD PUSH2 0xB8 SWAP2 SWAP1 PUSH2 0x5E6 JUMP JUMPDEST PUSH1 0x40 MLOAD DUP1 SWAP2 SUB SWAP1 RETURN JUMPDEST PUSH2 0xD4 PUSH2 0xCF CALLDATASIZE PUSH1 0x4 PUSH2 0x650 JUMP JUMPDEST PUSH2 0x236 JUMP JUMPDEST PUSH1 0x40 MLOAD SWAP1 ISZERO ISZERO DUP2 MSTORE PUSH1 0x20 ADD PUSH2 0xB8 JUMP JUMPDEST PUSH2 0xED PUSH1 0x3 SLOAD DUP2 JUMP JUMPDEST PUSH1 0x40 MLOAD SWAP1 DUP2 MSTORE PUSH1 0x20 ADD PUSH2 0xB8 JUMP JUMPDEST PUSH2 0xD4 PUSH2 0x109 CALLDATASIZE PUSH1 0x4 PUSH2 0x67A JUMP JUMPDEST PUSH2 0x2A3 JUMP JUMPDEST PUSH1 0x2 SLOAD PUSH2 0x11B SWAP1 PUSH1 0xFF AND DUP2 JUMP JUMPDEST PUSH1 0x40 MLOAD PUSH1 0xFF SWAP1 SWAP2 AND DUP2 MSTORE PUSH1 0x20 ADD PUSH2 0xB8 JUMP JUMPDEST PUSH2 0x140 PUSH2 0x13B CALLDATASIZE PUSH1 0x4 PUSH2 0x6B6 JUMP JUMPDEST PUSH2 0x45E JUMP JUMPDEST STOP JUMPDEST PUSH2 0xED PUSH2 0x150 CALLDATASIZE PUSH1 0x4 PUSH2 0x6CF JUMP JUMPDEST PUSH1 0x4 PUSH1 0x20 MSTORE PUSH1 0x0 SWAP1 DUP2 MSTORE PUSH1 0x40 SWAP1 KECCAK256 SLOAD DUP2 JUMP JUMPDEST PUSH2 0xAB PUSH2 0x4F5 JUMP JUMPDEST PUSH2 0xD4 PUSH2 0x178 CALLDATASIZE PUSH1 0x4 PUSH2 0x650 JUMP JUMPDEST PUSH2 0x502 JUMP JUMPDEST PUSH2 0xED PUSH2 0x18B CALLDATASIZE PUSH1 0x4 PUSH2 0x6F1 JUMP JUMPDEST PUSH1 0x5 PUSH1 0x20 SWAP1 DUP2 MSTORE PUSH1 0x0 SWAP3 DUP4 MSTORE PUSH1 0x40 DUP1 DUP5 KECCAK256 SWAP1 SWAP2 MSTORE SWAP1 DUP3 MSTORE SWAP1 KECCAK256 SLOAD DUP2 JUMP JUMPDEST PUSH1 0x0 DUP1 SLOAD PUSH2 0x1B5 SWAP1 PUSH2 0x724 JUMP JUMPDEST DUP1 PUSH1 0x1F ADD PUSH1 0x20 DUP1 SWAP2 DIV MUL PUSH1 0x20 ADD PUSH1 0x40 MLOAD SWAP1 DUP2 ADD PUSH1 0x40 MSTORE DUP1 SWAP3 SWAP2 SWAP1 DUP2 DUP2 MSTORE PUSH1 0x20 ADD DUP3 DUP1 SLOAD PUSH2 0x1E1 SWAP1 PUSH2 0x724 JUMP JUMPDEST DUP1 ISZERO PUSH2 0x22E JUMPI DUP1 PUSH1 0x1F LT PUSH2 0x203 JUMPI PUSH2 0x100 DUP1 DUP4 SLOAD DIV MUL DUP4 MSTORE SWAP2 PUSH1 0x20 ADD SWAP2 PUSH2 0x22E JUMP JUMPDEST DUP3 ADD SWAP2 SWAP1 PUSH1 0x0 MSTORE PUSH1 0x20 PUSH1 0x0 KECCAK256 SWAP1 JUMPDEST DUP2 SLOAD DUP2 MSTORE SWAP1 PUSH1 0x1 ADD SWAP1 PUSH1 0x20 ADD DUP1 DUP4 GT PUSH2 0x211 JUMPI DUP3 SWAP1 SUB PUSH1 0x1F AND DUP3 ADD SWAP2 JUMPDEST POP POP POP POP POP DUP2 JUMP JUMPDEST CALLER PUSH1 0x0 DUP2 DUP2 MSTORE PUSH1 0x5 PUSH1 0x20 SWAP1 DUP2 MSTORE PUSH1 0x40 DUP1 DUP4 KECCAK256 PUSH1 0x1 PUSH1 0x1 PUSH1 0xA0 SHL SUB DUP8 AND DUP1 DUP6 MSTORE SWAP3 MSTORE DUP1 DUP4 KECCAK256 DUP6 SWAP1 SSTORE MLOAD SWAP2 SWAP3 SWAP1 SWAP2 PUSH32 0x8C5BE1E5EBEC7D5BD14F71427D1E84F3DD0314C0F7B2291E5B200AC8C7C3B925 SWAP1 PUSH2 0x291 SWAP1 DUP7 DUP2 MSTORE PUSH1 0x20 ADD SWAP1 JUMP JUMPDEST PUSH1 0x40 MLOAD DUP1 SWAP2 SUB SWAP1 LOG3 POP PUSH1 0x1 JUMPDEST SWAP3 SWAP2 POP POP JUMP JUMPDEST PUSH1 0x1 PUSH1 0x1 PUSH1 0xA0 SHL SUB DUP4 AND PUSH1 0x0 SWAP1 DUP2 MSTORE PUSH1 0x4 PUSH1 0x20 MSTORE PUSH1 0x40 DUP2 KECCAK256 SLOAD DUP3 GT ISZERO PUSH2 0x307 JUMPI PUSH1 0x40 MLOAD PUSH3 0x461BCD PUSH1 0xE5 SHL DUP2 MSTORE PUSH1 0x20 PUSH1 0x4 DUP3 ADD MSTORE PUSH1 0x14 PUSH1 0x24 DUP3 ADD MSTORE PUSH20 0x496E73756666696369656E742062616C616E6365 PUSH1 0x60 SHL PUSH1 0x44 DUP3 ADD MSTORE PUSH1 0x64 ADD JUMPDEST PUSH1 0x40 MLOAD DUP1 SWAP2 SUB SWAP1 REVERT JUMPDEST PUSH1 0x1 PUSH1 0x1 PUSH1 0xA0 SHL SUB DUP5 AND PUSH1 0x0 SWAP1 DUP2 MSTORE PUSH1 0x5 PUSH1 0x20 SWAP1 DUP2 MSTORE PUSH1 0x40 DUP1 DUP4 KECCAK256 CALLER DUP5 MSTORE SWAP1 SWAP2 MSTORE SWAP1 KECCAK256 SLOAD DUP3 GT ISZERO PUSH2 0x373 JUMPI PUSH1 0x40 MLOAD PUSH3 0x461BCD PUSH1 0xE5 SHL DUP2 MSTORE PUSH1 0x20 PUSH1 0x4 DUP3 ADD MSTORE PUSH1 0x16 PUSH1 0x24 DUP3 ADD MSTORE PUSH22 0x496E73756666696369656E7420616C6C6F77616E6365 PUSH1 0x50 SHL PUSH1 0x44 DUP3 ADD MSTORE PUSH1 0x64 ADD PUSH2 0x2FE JUMP JUMPDEST PUSH1 0x1 PUSH1 0x1 PUSH1 0xA0 SHL SUB DUP5 AND PUSH1 0x0 SWAP1 DUP2 MSTORE PUSH1 0x4 PUSH1 0x20 MSTORE PUSH1 0x40 DUP2 KECCAK256 DUP1 SLOAD DUP5 SWAP3 SWAP1 PUSH2 0x39B SWAP1 DUP5 SWAP1 PUSH2 0x774 JUMP JUMPDEST SWAP1 SWAP2 SSTORE POP POP PUSH1 0x1 PUSH1 0x1 PUSH1 0xA0 SHL SUB DUP4 AND PUSH1 0x0 SWAP1 DUP2 MSTORE PUSH1 0x4 PUSH1 0x20 MSTORE PUSH1 0x40 DUP2 KECCAK256 DUP1 SLOAD DUP5 SWAP3 SWAP1 PUSH2 0x3C8 SWAP1 DUP5 SWAP1 PUSH2 0x787 JUMP JUMPDEST SWAP1 SWAP2 SSTORE POP POP PUSH1 0x1 PUSH1 0x1 PUSH1 0xA0 SHL SUB DUP5 AND PUSH1 0x0 SWAP1 DUP2 MSTORE PUSH1 0x5 PUSH1 0x20 SWAP1 DUP2 MSTORE PUSH1 0x40 DUP1 DUP4 KECCAK256 CALLER DUP5 MSTORE SWAP1 SWAP2 MSTORE DUP2 KECCAK256 DUP1 SLOAD DUP5 SWAP3 SWAP1 PUSH2 0x400 SWAP1 DUP5 SWAP1 PUSH2 0x774 JUMP JUMPDEST SWAP3 POP POP DUP2 SWAP1 SSTORE POP DUP3 PUSH1 0x1 PUSH1 0x1 PUSH1 0xA0 SHL SUB AND DUP5 PUSH1 0x1 PUSH1 0x1 PUSH1 0xA0 SHL SUB AND PUSH32 0xDDF252AD1BE2C89B69C2B068FC378DAA952BA7F163C4A11628F55A4DF523B3EF DUP5 PUSH1 0x40 MLOAD PUSH2 0x44C SWAP2 DUP2 MSTORE PUSH1 0x20 ADD SWAP1 JUMP JUMPDEST PUSH1 0x40 MLOAD DUP1 SWAP2 SUB SWAP1 LOG3 POP PUSH1 0x1 SWAP4 SWAP3 POP POP POP JUMP JUMPDEST PUSH1 0x2 SLOAD PUSH1 0x0 SWAP1 PUSH2 0x472 SWAP1 PUSH1 0xFF AND PUSH1 0xA PUSH2 0x87E JUMP JUMPDEST PUSH2 0x47C SWAP1 DUP4 PUSH2 0x88D JUMP JUMPDEST SWAP1 POP DUP1 PUSH1 0x3 PUSH1 0x0 DUP3 DUP3 SLOAD PUSH2 0x490 SWAP2 SWAP1 PUSH2 0x787 JUMP JUMPDEST SWAP1 SWAP2 SSTORE POP POP CALLER PUSH1 0x0 SWAP1 DUP2 MSTORE PUSH1 0x4 PUSH1 0x20 MSTORE PUSH1 0x40 DUP2 KECCAK256 DUP1 SLOAD DUP4 SWAP3 SWAP1 PUSH2 0x4B4 SWAP1 DUP5 SWAP1 PUSH2 0x787 JUMP JUMPDEST SWAP1 SWAP2 SSTORE POP POP PUSH1 0x40 MLOAD DUP2 DUP2 MSTORE CALLER SWAP1 PUSH1 0x0 SWAP1 PUSH32 0xDDF252AD1BE2C89B69C2B068FC378DAA952BA7F163C4A11628F55A4DF523B3EF SWAP1 PUSH1 0x20 ADD PUSH1 0x40 MLOAD DUP1 SWAP2 SUB SWAP1 LOG3 POP POP JUMP JUMPDEST PUSH1 0x1 DUP1 SLOAD PUSH2 0x1B5 SWAP1 PUSH2 0x724 JUMP JUMPDEST CALLER PUSH1 0x0 SWAP1 DUP2 MSTORE PUSH1 0x4 PUSH1 0x20 MSTORE PUSH1 0x40 DUP2 KECCAK256 SLOAD DUP3 GT ISZERO PUSH2 0x558 JUMPI PUSH1 0x40 MLOAD PUSH3 0x461BCD PUSH1 0xE5 SHL DUP2 MSTORE PUSH1 0x20 PUSH1 0x4 DUP3 ADD MSTORE PUSH1 0x14 PUSH1 0x24 DUP3 ADD MSTORE PUSH20 0x496E73756666696369656E742062616C616E6365 PUSH1 0x60 SHL PUSH1 0x44 DUP3 ADD MSTORE PUSH1 0x64 ADD PUSH2 0x2FE JUMP JUMPDEST CALLER PUSH1 0x0 SWAP1 DUP2 MSTORE PUSH1 0x4 PUSH1 0x20 MSTORE PUSH1 0x40 DUP2 KECCAK256 DUP1 SLOAD DUP5 SWAP3 SWAP1 PUSH2 0x577 SWAP1 DUP5 SWAP1 PUSH2 0x774 JUMP JUMPDEST SWAP1 SWAP2 SSTORE POP POP PUSH1 0x1 PUSH1 0x1 PUSH1 0xA0 SHL SUB DUP4 AND PUSH1 0x0 SWAP1 DUP2 MSTORE PUSH1 0x4 PUSH1 0x20 MSTORE PUSH1 0x40 DUP2 KECCAK256 DUP1 SLOAD DUP5 SWAP3 SWAP1 PUSH2 0x5A4 SWAP1 DUP5 SWAP1 PUSH2 0x787 JUMP JUMPDEST SWAP1 SWAP2 SSTORE POP POP PUSH1 0x40 MLOAD DUP3 DUP2 MSTORE PUSH1 0x1 PUSH1 0x1 PUSH1 0xA0 SHL SUB DUP5 AND SWAP1 CALLER SWAP1 PUSH32 0xDDF252AD1BE2C89B69C2B068FC378DAA952BA7F163C4A11628F55A4DF523B3EF SWAP1 PUSH1 0x20 ADD PUSH2 0x291 JUMP JUMPDEST PUSH1 0x0 PUSH1 0x20 DUP1 DUP4 MSTORE DUP4 MLOAD DUP1 DUP3 DUP6 ADD MSTORE PUSH1 0x0 JUMPDEST DUP2 DUP2 LT ISZERO PUSH2 0x613 JUMPI DUP6 DUP2 ADD DUP4 ADD MLOAD DUP6 DUP3 ADD PUSH1 0x40 ADD MSTORE DUP3 ADD PUSH2 0x5F7 JUMP JUMPDEST POP PUSH1 0x0 PUSH1 0x40 DUP3 DUP7 ADD ADD MSTORE PUSH1 0x40 PUSH1 0x1F NOT PUSH1 0x1F DUP4 ADD AND DUP6 ADD ADD SWAP3 POP POP POP SWAP3 SWAP2 POP POP JUMP JUMPDEST DUP1 CALLDATALOAD PUSH1 0x1 PUSH1 0x1 PUSH1 0xA0 SHL SUB DUP2 AND DUP2 EQ PUSH2 0x64B JUMPI PUSH1 0x0 DUP1 REVERT JUMPDEST SWAP2 SWAP1 POP JUMP JUMPDEST PUSH1 0x0 DUP1 PUSH1 0x40 DUP4 DUP6 SUB SLT ISZERO PUSH2 0x663 JUMPI PUSH1 0x0 DUP1 REVERT JUMPDEST PUSH2 0x66C DUP4 PUSH2 0x634 JUMP JUMPDEST SWAP5 PUSH1 0x20 SWAP4 SWAP1 SWAP4 ADD CALLDATALOAD SWAP4 POP POP POP JUMP JUMPDEST PUSH1 0x0 DUP1 PUSH1 0x0 PUSH1 0x60 DUP5 DUP7 SUB SLT ISZERO PUSH2 0x68F JUMPI PUSH1 0x0 DUP1 REVERT JUMPDEST PUSH2 0x698 DUP5 PUSH2 0x634 JUMP JUMPDEST SWAP3 POP PUSH2 0x6A6 PUSH1 0x20 DUP6 ADD PUSH2 0x634 JUMP JUMPDEST SWAP2 POP PUSH1 0x40 DUP5 ADD CALLDATALOAD SWAP1 POP SWAP3 POP SWAP3 POP SWAP3 JUMP JUMPDEST PUSH1 0x0 PUSH1 0x20 DUP3 DUP5 SUB SLT ISZERO PUSH2 0x6C8 JUMPI PUSH1 0x0 DUP1 REVERT JUMPDEST POP CALLDATALOAD SWAP2 SWAP1 POP JUMP JUMPDEST PUSH1 0x0 PUSH1 0x20 DUP3 DUP5 SUB SLT ISZERO PUSH2 0x6E1 JUMPI PUSH1 0x0 DUP1 REVERT JUMPDEST PUSH2 0x6EA DUP3 PUSH2 0x634 JUMP JUMPDEST SWAP4 SWAP3 POP POP POP JUMP JUMPDEST PUSH1 0x0 DUP1 PUSH1 0x40 DUP4 DUP6 SUB SLT ISZERO PUSH2 0x704 JUMPI PUSH1 0x0 DUP1 REVERT JUMPDEST PUSH2 0x70D DUP4 PUSH2 0x634 JUMP JUMPDEST SWAP2 POP PUSH2 0x71B PUSH1 0x20 DUP5 ADD PUSH2 0x634 JUMP JUMPDEST SWAP1 POP SWAP3 POP SWAP3 SWAP1 POP JUMP JUMPDEST PUSH1 0x1 DUP2 DUP2 SHR SWAP1 DUP3 AND DUP1 PUSH2 0x738 JUMPI PUSH1 0x7F DUP3 AND SWAP2 POP JUMPDEST PUSH1 0x20 DUP3 LT DUP2 SUB PUSH2 0x758 JUMPI PUSH4 0x4E487B71 PUSH1 0xE0 SHL PUSH1 0x0 MSTORE PUSH1 0x22 PUSH1 0x4 MSTORE PUSH1 0x24 PUSH1 0x0 REVERT JUMPDEST POP SWAP2 SWAP1 POP JUMP JUMPDEST PUSH4 0x4E487B71 PUSH1 0xE0 SHL PUSH1 0x0 MSTORE PUSH1 0x11 PUSH1 0x4 MSTORE PUSH1 0x24 PUSH1 0x0 REVERT JUMPDEST DUP2 DUP2 SUB DUP2 DUP2 GT ISZERO PUSH2 0x29D JUMPI PUSH2 0x29D PUSH2 0x75E JUMP JUMPDEST DUP1 DUP3 ADD DUP1 DUP3 GT ISZERO PUSH2 0x29D JUMPI PUSH2 0x29D PUSH2 0x75E JUMP JUMPDEST PUSH1 0x1 DUP2 DUP2 JUMPDEST DUP1 DUP6 GT ISZERO PUSH2 0x7D5 JUMPI DUP2 PUSH1 0x0 NOT DIV DUP3 GT ISZERO PUSH2 0x7BB JUMPI PUSH2 0x7BB PUSH2 0x75E JUMP JUMPDEST DUP1 DUP6 AND ISZERO PUSH2 0x7C8 JUMPI SWAP2 DUP2 MUL SWAP2 JUMPDEST SWAP4 DUP5 SHR SWAP4 SWAP1 DUP1 MUL SWAP1 PUSH2 0x79F JUMP JUMPDEST POP SWAP3 POP SWAP3 SWAP1 POP JUMP JUMPDEST PUSH1 0x0 DUP3 PUSH2 0x7EC JUMPI POP PUSH1 0x1 PUSH2 0x29D JUMP JUMPDEST DUP2 PUSH2 0x7F9 JUMPI POP PUSH1 0x0 PUSH2 0x29D JUMP JUMPDEST DUP2 PUSH1 0x1 DUP2 EQ PUSH2 0x80F JUMPI PUSH1 0x2 DUP2 EQ PUSH2 0x819 JUMPI PUSH2 0x835 JUMP JUMPDEST PUSH1 0x1 SWAP2 POP POP PUSH2 0x29D JUMP JUMPDEST PUSH1 0xFF DUP5 GT ISZERO PUSH2 0x82A JUMPI PUSH2 0x82A PUSH2 0x75E JUMP JUMPDEST POP POP PUSH1 0x1 DUP3 SHL PUSH2 0x29D JUMP JUMPDEST POP PUSH1 0x20 DUP4 LT PUSH2 0x133 DUP4 LT AND PUSH1 0x4E DUP5 LT PUSH1 0xB DUP5 LT AND OR ISZERO PUSH2 0x858 JUMPI POP DUP2 DUP2 EXP PUSH2 0x29D JUMP JUMPDEST PUSH2 0x862 DUP4 DUP4 PUSH2 0x79A JUMP JUMPDEST DUP1 PUSH1 0x0 NOT DIV DUP3 GT ISZERO PUSH2 0x876 JUMPI PUSH2 0x876 PUSH2 0x75E JUMP JUMPDEST MUL SWAP4 SWAP3 POP POP POP JUMP JUMPDEST PUSH1 0x0 PUSH2 0x6EA PUSH1 0xFF DUP5 AND DUP4 PUSH2 0x7DD JUMP JUMPDEST DUP1 DUP3 MUL DUP2 ISZERO DUP3 DUP3 DIV DUP5 EQ OR PUSH2 0x29D JUMPI PUSH2 0x29D PUSH2 0x75E JUMP INVALID LOG2 PUSH5 0x6970667358 0x22 SLT KECCAK256 DUP3 0xDF DUP3 0xDF SWAP15 0xD0 ISZERO 0xE 0x28 CALLER 0xB1 0xC4 0x22 SAR CALLDATALOAD 0xDE 0xCD 0x2D 0xD 0xF7 0xEA BLOCKHASH DUP7 SWAP7 0xCF REVERT MSTORE8 SWAP14 LOG1 PREVRANDAO SDIV TIMESTAMP PUSH5 0x736F6C6343 STOP ADDMOD EQ STOP CALLER "},"methodIdentifiers":{"allowance(address,address)":"dd62ed3e","approve(address,uint256)":"095ea7b3","balanceOf(address)":"70a08231","decimals()":"313ce567","faucet(uint256)":"57915897","name()":"06fdde03","symbol()":"95d89b41","totalSupply()":"18160ddd","transfer(address,uint256)":"a9059cbb","transferFrom(address,address,uint256)":"23b872dd"}}}}}