{
  "_format": "hh-sol-artifact-1",
  "contractName": "PaymentProcessor",
  "sourceName": "contracts/PaymentProcessor.sol",
  "abi": [
    {
      "inputs": [
        {
          "internalType": "address",
          "name": "_flarePayProof",
          "type": "address"
        }
      ],
      "stateMutability": "nonpayable",
      "type": "constructor"
    },
    {
      "inputs": [],
      "name": "ReentrancyGuardReentrantCall",
      "type": "error"
    },
    {
      "inputs": [
        {
          "internalType": "address",
          "name": "token",
          "type": "address"
        }
      ],
      "name": "SafeERC20FailedOperation",
      "type": "error"
    },
    {
      "anonymous": false,
      "inputs": [
        {
          "indexed": true,
          "internalType": "bytes32",
          "name": "paymentId",
          "type": "bytes32"
        },
        {
          "indexed": true,
          "internalType": "address",
          "name": "sender",
          "type": "address"
        },
        {
          "indexed": true,
          "internalType": "address",
          "name": "recipient",
          "type": "address"
        },
        {
          "indexed": false,
          "internalType": "address",
          "name": "tokenContract",
          "type": "address"
        },
        {
          "indexed": false,
          "internalType": "uint256",
          "name": "amount",
          "type": "uint256"
        },
        {
          "indexed": false,
          "internalType": "bytes32",
          "name": "proofId",
          "type": "bytes32"
        }
      ],
      "name": "PaymentProcessed",
      "type": "event"
    },
    {
      "anonymous": false,
      "inputs": [
        {
          "indexed": true,
          "internalType": "address",
          "name": "token",
          "type": "address"
        },
        {
          "indexed": false,
          "internalType": "string",
          "name": "symbol",
          "type": "string"
        },
        {
          "indexed": false,
          "internalType": "uint8",
          "name": "decimals",
          "type": "uint8"
        }
      ],
      "name": "TokenAdded",
      "type": "event"
    },
    {
      "anonymous": false,
      "inputs": [
        {
          "indexed": true,
          "internalType": "address",
          "name": "token",
          "type": "address"
        }
      ],
      "name": "TokenRemoved",
      "type": "event"
    },
    {
      "inputs": [
        {
          "internalType": "address",
          "name": "_token",
          "type": "address"
        },
        {
          "internalType": "string",
          "name": "_symbol",
          "type": "string"
        },
        {
          "internalType": "uint8",
          "name": "_decimals",
          "type": "uint8"
        }
      ],
      "name": "addToken",
      "outputs": [],
      "stateMutability": "nonpayable",
      "type": "function"
    },
    {
      "inputs": [],
      "name": "flarePayProof",
      "outputs": [
        {
          "internalType": "contract IFlarePayProof",
          "name": "",
          "type": "address"
        }
      ],
      "stateMutability": "view",
      "type": "function"
    },
    {
      "inputs": [
        {
          "internalType": "bytes32",
          "name": "_paymentId",
          "type": "bytes32"
        }
      ],
      "name": "getPayment",
      "outputs": [
        {
          "components": [
            {
              "internalType": "bytes32",
              "name": "paymentId",
              "type": "bytes32"
            },
            {
              "internalType": "address",
              "name": "sender",
              "type": "address"
            },
            {
              "internalType": "address",
              "name": "recipient",
              "type": "address"
            },
            {
              "internalType": "address",
              "name": "tokenContract",
              "type": "address"
            },
            {
              "internalType": "uint256",
              "name": "amount",
              "type": "uint256"
            },
            {
              "internalType": "string",
              "name": "memo",
              "type": "string"
            },
            {
              "internalType": "uint256",
              "name": "timestamp",
              "type": "uint256"
            },
            {
              "internalType": "bytes32",
              "name": "proofId",
              "type": "bytes32"
            }
          ],
          "internalType": "struct PaymentProcessor.Payment",
          "name": "",
          "type": "tuple"
        }
      ],
      "stateMutability": "view",
      "type": "function"
    },
    {
      "inputs": [
        {
          "internalType": "address",
          "name": "_user",
          "type": "address"
        }
      ],
      "name": "getUserPayments",
      "outputs": [
        {
          "internalType": "bytes32[]",
          "name": "",
          "type": "bytes32[]"
        }
      ],
      "stateMutability": "view",
      "type": "function"
    },
    {
      "inputs": [
        {
          "internalType": "bytes32",
          "name": "",
          "type": "bytes32"
        }
      ],
      "name": "payments",
      "outputs": [
        {
          "internalType": "bytes32",
          "name": "paymentId",
          "type": "bytes32"
        },
        {
          "internalType": "address",
          "name": "sender",
          "type": "address"
        },
        {
          "internalType": "address",
          "name": "recipient",
          "type": "address"
        },
        {
          "internalType": "address",
          "name": "tokenContract",
          "type": "address"
        },
        {
          "internalType": "uint256",
          "name": "amount",
          "type": "uint256"
        },
        {
          "internalType": "string",
          "name": "memo",
          "type": "string"
        },
        {
          "internalType": "uint256",
          "name": "timestamp",
          "type": "uint256"
        },
        {
          "internalType": "bytes32",
          "name": "proofId",
          "type": "bytes32"
        }
      ],
      "stateMutability": "view",
      "type": "function"
    },
    {
      "inputs": [
        {
          "internalType": "address",
          "name": "_recipient",
          "type": "address"
        },
        {
          "internalType": "address",
          "name": "_tokenContract",
          "type": "address"
        },
        {
          "internalType": "uint256",
          "name": "_amount",
          "type": "uint256"
        },
        {
          "internalType": "string",
          "name": "_memo",
          "type": "string"
        }
      ],
      "name": "processPayment",
      "outputs": [
        {
          "internalType": "bytes32",
          "name": "paymentId",
          "type": "bytes32"
        },
        {
          "internalType": "bytes32",
          "name": "proofId",
          "type": "bytes32"
        }
      ],
      "stateMutability": "nonpayable",
      "type": "function"
    },
    {
      "inputs": [
        {
          "internalType": "address",
          "name": "_token",
          "type": "address"
        }
      ],
      "name": "removeToken",
      "outputs": [],
      "stateMutability": "nonpayable",
      "type": "function"
    },
    {
      "inputs": [
        {
          "internalType": "address",
          "name": "_flarePayProof",
          "type": "address"
        }
      ],
      "name": "setFlarePayProof",
      "outputs": [],
      "stateMutability": "nonpayable",
      "type": "function"
    },
    {
      "inputs": [
        {
          "internalType": "address",
          "name": "",
          "type": "address"
        }
      ],
      "name": "supportedTokens",
      "outputs": [
        {
          "internalType": "bool",
          "name": "",
          "type": "bool"
        }
      ],
      "stateMutability": "view",
      "type": "function"
    },
    {
      "inputs": [
        {
          "internalType": "address",
          "name": "",
          "type": "address"
        }
      ],
      "name": "tokenInfo",
      "outputs": [
        {
          "internalType": "string",
          "name": "symbol",
          "type": "string"
        },
        {
          "internalType": "uint8",
          "name": "decimals",
          "type": "uint8"
        },
        {
          "internalType": "bool",
          "name": "active",
          "type": "bool"
        }
      ],
      "stateMutability": "view",
      "type": "function"
    },
    {
      "inputs": [],
      "name": "totalPayments",
      "outputs": [
        {
          "internalType": "uint256",
          "name": "",
          "type": "uint256"
        }
      ],
      "stateMutability": "view",
      "type": "function"
    },
    {
      "inputs": [
        {
          "internalType": "address",
          "name": "",
          "type": "address"
        },
        {
          "internalType": "uint256",
          "name": "",
          "type": "uint256"
        }
      ],
      "name": "userPayments",
      "outputs": [
        {
          "internalType": "bytes32",
          "name": "",
          "type": "bytes32"
        }
      ],
      "stateMutability": "view",
      "type": "function"
    }
  ],
  "bytecode": "0x60803461007557601f61105e38819003918201601f19168301916001600160401b0383118484101761007a5780849260209460405283398101031261007557516001600160a01b0381169081900361007557600160005560018060a01b03196001541617600155604051610fcd90816100918239f35b600080fd5b634e487b7160e01b600052604160045260246000fdfe608080604052600436101561001357600080fd5b60003560e01c9081625b448714610ce0575080630716326d14610c435780635fa7b58414610bce5780636660c02e14610b9457806368c4ac2614610b555780638cfeab3514610afd5780639abd723a14610ad45780639d7dadeb14610a20578063bbe96b0014610470578063de6a48e514610246578063e66eefc8146101155763f5dab711146100a257600080fd5b34610110576020366003190112610110576001600160a01b036100c3610e76565b1660005260036020526100f8604060002060016100df82610d90565b91015460ff604051938493606085526060850190610e36565b91818116602085015260081c16151560408301520390f35b600080fd5b346101105760208060031936011261011057600060e060405161013781610d51565b8281528284820152826040820152826060820152826080820152606060a08201528260c082015201526004356000526004815260406000206040519061017c82610d51565b8054825260018101546001600160a01b0390811684840190815260028301548216604085019081526003840154831660608601908152600485015460808701908152929391929190816101d160058801610d90565b9460a0890195865281600760068a01549960c08c019a8b5201549760e08b019889526040519b8c9b818d5251908c0152511660408a015251166060880152511660808601525160a08501525190610236610100928360c0870152610120860190610e36565b925160e085015251908301520390f35b346101105760603660031901126101105761025f610e76565b67ffffffffffffffff9060243582811161011057610281903690600401610eba565b6044359260ff84168094036101105760018060a01b03169283600052602090600282526040600020956001968760ff19825416179055604051906102c482610d35565b80851161045a57604051601f1998906102e4601f88018b16870182610d6e565b86815236878901116101105786888783013760008688830101528352848301928484526040810192828452896000526003875260406000209151805191821161045a5761033b826103358554610cfb565b85610f09565b879b601f83116001146103d5575090807f3be0896d4cd1d645bdae8ade25a54bcdbb2c685ce55ac7e7bead95d0802b32de9b9c60ff9594936000926103ca575b5050600019600383901b1c191690831b1781555b0192511661ff0083549251151560081b169161ffff1916171790556103c1604051948594604086526040860191610ee8565b918301520390a2005b015190508d8061037b565b82169083600052886000209160005b8181106104455750917f3be0896d4cd1d645bdae8ade25a54bcdbb2c685ce55ac7e7bead95d0802b32de9c9d849287969560ff98951061042c575b505050811b01815561038f565b015160001960f88460031b161c191690558d808061041f565b828f015184559d8a019d928601928a016103e4565b634e487b7160e01b600052604160045260246000fd5b3461011057608036600319011261011057610489610e76565b6024356001600160a01b03811690036101105760643567ffffffffffffffff8111610110576104bc903690600401610eba565b600260005414610a0e5760026000556001600160a01b038316156109d5576044351561099b576024356001600160a01b031660009081526002602052604090205460ff16156109605760018060a01b0360243516600052600360205260406000209160ff60016040519461052f86610d35565b61053881610d90565b86520154818116602086015260081c16151560408401526040516323b872dd60e01b602082015233602482015260018060a01b03851660448201526044356064820152606481528060a081011067ffffffffffffffff60a08301111761045a5760a081016040528051602091600091908301826024356001600160a01b03165af115610929576000513d61095757506024356001600160a01b03163b155b6109355760065491604051923360601b60208501526001600160601b0319808760601b16603486015260243560601b166048850152604435605c85015242607c850152609c840152609c83528260c081011067ffffffffffffffff60c08501111761045a5760c083016040819052835160208086019190912060015487830151975163651dcd1560e01b90945260c487018290526001600160a01b0389811660e4890152602435811661010489015260443561012489015260ff90981661014488015260e0610164880152909691929116906106b7906101a4870190610e36565b9060c3198683030161018487015260c0860191866106d960bf19928789610ee8565b030190600060c08801915af1928315610929576000936108ef575b508360005260046020526040600020848155600181016001600160601b0360a01b9033828254161790556002820160018060a01b03881682825416179055600382019060018060a01b036024351690825416179055604435600482015567ffffffffffffffff821161045a578391600582019061077b816107758454610cfb565b84610f09565b6000601f821160011461087e57819060079596600092610873575b50508160011b916000199060031b1c19161790555b42600682015501553360005260056020526107ca826040600020610f5d565b60018060a01b03831660005260056020526107e9826040600020610f5d565b60065492600019841461085d5760016040940160065583519060018060a01b036024351682526044356020830152828583015260018060a01b031690837fddb76e8131a22a8b5ff749aaf0df2a9943baefe29776c5b776bc56893861042e60603393a4600160005582519182526020820152f35b634e487b7160e01b600052601160045260246000fd5b013590508980610796565b948260005260206000209560005b601f19841681106108d4575095829160079697600194601f198116106108ba575b505050811b0190556107ab565b0135600019600384901b60f8161c191690558980806108ad565b8183013588556001909701968896506020918201910161088c565b9092506020813d602011610921575b8161090e60209360c08401610d6e565b810103126101105760c0015191856106f4565b3d91506108fe565b6040513d6000823e3d90fd5b604051635274afe760e01b8152602480356001600160a01b0316600483015290fd5b600114156105d6565b60405162461bcd60e51b8152602060048201526013602482015272151bdad95b881b9bdd081cdd5c1c1bdc9d1959606a1b6044820152606490fd5b60405162461bcd60e51b81526020600482015260126024820152710416d6f756e74206d757374206265203e20360741b6044820152606490fd5b60405162461bcd60e51b8152602060048201526011602482015270125b9d985b1a59081c9958da5c1a595b9d607a1b6044820152606490fd5b604051633ee5aeb560e01b8152600490fd5b3461011057602080600319360112610110576001600160a01b03610a42610e76565b1660005260058152604060002060405190818382549182815201908192600052846000209060005b86828210610ac0578686610a8082880383610d6e565b604051928392818401908285525180915260408401929160005b828110610aa957505050500390f35b835185528695509381019392810192600101610a9a565b835485529093019260019283019201610a6a565b34610110576000366003190112610110576001546040516001600160a01b039091168152602090f35b3461011057604036600319011261011057610b16610e76565b6001600160a01b031660009081526005602052604090208054602435919082101561011057602091610b4791610e8c565b90546040519160031b1c8152f35b34610110576020366003190112610110576001600160a01b03610b76610e76565b166000526002602052602060ff604060002054166040519015158152f35b34610110576020366003190112610110576001600160a01b03610bb5610e76565b166001600160601b0360a01b6001541617600155600080f35b34610110576020366003190112610110576001600160a01b03610bef610e76565b16806000526002602052604060002060ff1981541690556003602052600160406000200161ff001981541690557f4c910b69fe65a61f7531b9c5042b2329ca7179c77290aa7e2eb3afa3c8511fd3600080a2005b346101105760203660031901126101105760043560005260046020526040600020805460018060a01b03918260018201541692610cd181600284015416916003840154166004840154610c9860058601610d90565b916007600687015496015494604051988998895260208901526040880152606087015260808601526101008060a0870152850190610e36565b9160c084015260e08301520390f35b34610110576000366003190112610110576020906006548152f35b90600182811c92168015610d2b575b6020831014610d1557565b634e487b7160e01b600052602260045260246000fd5b91607f1691610d0a565b6060810190811067ffffffffffffffff82111761045a57604052565b610100810190811067ffffffffffffffff82111761045a57604052565b90601f8019910116810190811067ffffffffffffffff82111761045a57604052565b9060405191826000825492610da484610cfb565b908184526001948581169081600014610e135750600114610dd0575b5050610dce92500383610d6e565b565b9093915060005260209081600020936000915b818310610dfb575050610dce93508201013880610dc0565b85548884018501529485019487945091830191610de3565b915050610dce94506020925060ff191682840152151560051b8201013880610dc0565b919082519283825260005b848110610e62575050826000602080949584010152601f8019910116010190565b602081830181015184830182015201610e41565b600435906001600160a01b038216820361011057565b8054821015610ea45760005260206000200190600090565b634e487b7160e01b600052603260045260246000fd5b9181601f840112156101105782359167ffffffffffffffff8311610110576020838186019501011161011057565b908060209392818452848401376000828201840152601f01601f1916010190565b90601f8111610f1757505050565b600091825260208220906020601f850160051c83019410610f53575b601f0160051c01915b828110610f4857505050565b818155600101610f3c565b9092508290610f33565b80546801000000000000000081101561045a57610f7f91600182018155610e8c565b819291549060031b91821b91600019901b191617905556fea2646970667358221220bd585884f766667ce512b574743c96f4d3f7ac4a6a62f2122f2d311cad8971c164736f6c63430008140033",
  "linkReferences": {},
  "deployedLinkReferences": {}
}