{
  "_format": "hh-sol-artifact-1",
  "contractName": "SimpleTestToken",
  "sourceName": "contracts/SimpleTestToken.sol",
  "abi": [
    {
      "inputs": [
        {
          "internalType": "uint256",
          "name": "initialSupply",
          "type": "uint256"
        }
      ],
      "stateMutability": "nonpayable",
      "type": "constructor"
    },
    {
      "anonymous": false,
      "inputs": [
        {
          "indexed": true,
          "internalType": "address",
          "name": "owner",
          "type": "address"
        },
        {
          "indexed": true,
          "internalType": "address",
          "name": "spender",
          "type": "address"
        },
        {
          "indexed": false,
          "internalType": "uint256",
          "name": "value",
          "type": "uint256"
        }
      ],
      "name": "Approval",
      "type": "event"
    },
    {
      "anonymous": false,
      "inputs": [
        {
          "indexed": true,
          "internalType": "address",
          "name": "from",
          "type": "address"
        },
        {
          "indexed": true,
          "internalType": "address",
          "name": "to",
          "type": "address"
        },
        {
          "indexed": false,
          "internalType": "uint256",
          "name": "value",
          "type": "uint256"
        }
      ],
      "name": "Transfer",
      "type": "event"
    },
    {
      "inputs": [
        {
          "internalType": "address",
          "name": "",
          "type": "address"
        },
        {
          "internalType": "address",
          "name": "",
          "type": "address"
        }
      ],
      "name": "allowance",
      "outputs": [
        {
          "internalType": "uint256",
          "name": "",
          "type": "uint256"
        }
      ],
      "stateMutability": "view",
      "type": "function"
    },
    {
      "inputs": [
        {
          "internalType": "address",
          "name": "spender",
          "type": "address"
        },
        {
          "internalType": "uint256",
          "name": "value",
          "type": "uint256"
        }
      ],
      "name": "approve",
      "outputs": [
        {
          "internalType": "bool",
          "name": "",
          "type": "bool"
        }
      ],
      "stateMutability": "nonpayable",
      "type": "function"
    },
    {
      "inputs": [
        {
          "internalType": "address",
          "name": "",
          "type": "address"
        }
      ],
      "name": "balanceOf",
      "outputs": [
        {
          "internalType": "uint256",
          "name": "",
          "type": "uint256"
        }
      ],
      "stateMutability": "view",
      "type": "function"
    },
    {
      "inputs": [],
      "name": "decimals",
      "outputs": [
        {
          "internalType": "uint8",
          "name": "",
          "type": "uint8"
        }
      ],
      "stateMutability": "view",
      "type": "function"
    },
    {
      "inputs": [
        {
          "internalType": "uint256",
          "name": "amount",
          "type": "uint256"
        }
      ],
      "name": "faucet",
      "outputs": [],
      "stateMutability": "nonpayable",
      "type": "function"
    },
    {
      "inputs": [],
      "name": "name",
      "outputs": [
        {
          "internalType": "string",
          "name": "",
          "type": "string"
        }
      ],
      "stateMutability": "view",
      "type": "function"
    },
    {
      "inputs": [],
      "name": "symbol",
      "outputs": [
        {
          "internalType": "string",
          "name": "",
          "type": "string"
        }
      ],
      "stateMutability": "view",
      "type": "function"
    },
    {
      "inputs": [],
      "name": "totalSupply",
      "outputs": [
        {
          "internalType": "uint256",
          "name": "",
          "type": "uint256"
        }
      ],
      "stateMutability": "view",
      "type": "function"
    },
    {
      "inputs": [
        {
          "internalType": "address",
          "name": "to",
          "type": "address"
        },
        {
          "internalType": "uint256",
          "name": "value",
          "type": "uint256"
        }
      ],
      "name": "transfer",
      "outputs": [
        {
          "internalType": "bool",
          "name": "",
          "type": "bool"
        }
      ],
      "stateMutability": "nonpayable",
      "type": "function"
    },
    {
      "inputs": [
        {
          "internalType": "address",
          "name": "from",
          "type": "address"
        },
        {
          "internalType": "address",
          "name": "to",
          "type": "address"
        },
        {
          "internalType": "uint256",
          "name": "value",
          "type": "uint256"
        }
      ],
      "name": "transferFrom",
      "outputs": [
        {
          "internalType": "bool",
          "name": "",
          "type": "bool"
        }
      ],
      "stateMutability": "nonpayable",
      "type": "function"
    }
  ],
  "bytecode": "0x60c0604052600960809081526815195cdd081554d11560ba1b60a0526000906200002a9082620001ac565b50604080518082019091526005815264151554d11560da1b6020820152600190620000569082620001ac565b506002805460ff191660061790553480156200007157600080fd5b5060405162000cc338038062000cc3833981016040819052620000949162000278565b600254620000a79060ff16600a620003a7565b620000b39082620003bf565b600381905533600081815260046020908152604080832085905551938452919290917fddf252ad1be2c89b69c2b068fc378daa952ba7f163c4a11628f55a4df523b3ef910160405180910390a350620003d9565b634e487b7160e01b600052604160045260246000fd5b600181811c908216806200013257607f821691505b6020821081036200015357634e487b7160e01b600052602260045260246000fd5b50919050565b601f821115620001a757600081815260208120601f850160051c81016020861015620001825750805b601f850160051c820191505b81811015620001a3578281556001016200018e565b5050505b505050565b81516001600160401b03811115620001c857620001c862000107565b620001e081620001d984546200011d565b8462000159565b602080601f831160018114620002185760008415620001ff5750858301515b600019600386901b1c1916600185901b178555620001a3565b600085815260208120601f198616915b82811015620002495788860151825594840194600190910190840162000228565b5085821015620002685787850151600019600388901b60f8161c191681555b5050505050600190811b01905550565b6000602082840312156200028b57600080fd5b5051919050565b634e487b7160e01b600052601160045260246000fd5b600181815b80851115620002e9578160001904821115620002cd57620002cd62000292565b80851615620002db57918102915b93841c9390800290620002ad565b509250929050565b6000826200030257506001620003a1565b816200031157506000620003a1565b81600181146200032a5760028114620003355762000355565b6001915050620003a1565b60ff84111562000349576200034962000292565b50506001821b620003a1565b5060208310610133831016604e8410600b84101617156200037a575081810a620003a1565b620003868383620002a8565b80600019048211156200039d576200039d62000292565b0290505b92915050565b6000620003b860ff841683620002f1565b9392505050565b8082028115828204841417620003a157620003a162000292565b6108da80620003e96000396000f3fe608060405234801561001057600080fd5b506004361061009e5760003560e01c80635791589711610066578063579158971461012d57806370a082311461014257806395d89b4114610162578063a9059cbb1461016a578063dd62ed3e1461017d57600080fd5b806306fdde03146100a3578063095ea7b3146100c157806318160ddd146100e457806323b872dd146100fb578063313ce5671461010e575b600080fd5b6100ab6101a8565b6040516100b891906105e6565b60405180910390f35b6100d46100cf366004610650565b610236565b60405190151581526020016100b8565b6100ed60035481565b6040519081526020016100b8565b6100d461010936600461067a565b6102a3565b60025461011b9060ff1681565b60405160ff90911681526020016100b8565b61014061013b3660046106b6565b61045e565b005b6100ed6101503660046106cf565b60046020526000908152604090205481565b6100ab6104f5565b6100d4610178366004610650565b610502565b6100ed61018b3660046106f1565b600560209081526000928352604080842090915290825290205481565b600080546101b590610724565b80601f01602080910402602001604051908101604052809291908181526020018280546101e190610724565b801561022e5780601f106102035761010080835404028352916020019161022e565b820191906000526020600020905b81548152906001019060200180831161021157829003601f168201915b505050505081565b3360008181526005602090815260408083206001600160a01b038716808552925280832085905551919290917f8c5be1e5ebec7d5bd14f71427d1e84f3dd0314c0f7b2291e5b200ac8c7c3b925906102919086815260200190565b60405180910390a35060015b92915050565b6001600160a01b0383166000908152600460205260408120548211156103075760405162461bcd60e51b8152602060048201526014602482015273496e73756666696369656e742062616c616e636560601b60448201526064015b60405180910390fd5b6001600160a01b03841660009081526005602090815260408083203384529091529020548211156103735760405162461bcd60e51b8152602060048201526016602482015275496e73756666696369656e7420616c6c6f77616e636560501b60448201526064016102fe565b6001600160a01b0384166000908152600460205260408120805484929061039b908490610774565b90915550506001600160a01b038316600090815260046020526040812080548492906103c8908490610787565b90915550506001600160a01b038416600090815260056020908152604080832033845290915281208054849290610400908490610774565b92505081905550826001600160a01b0316846001600160a01b03167fddf252ad1be2c89b69c2b068fc378daa952ba7f163c4a11628f55a4df523b3ef8460405161044c91815260200190565b60405180910390a35060019392505050565b6002546000906104729060ff16600a61087e565b61047c908361088d565b905080600360008282546104909190610787565b909155505033600090815260046020526040812080548392906104b4908490610787565b909155505060405181815233906000907fddf252ad1be2c89b69c2b068fc378daa952ba7f163c4a11628f55a4df523b3ef9060200160405180910390a35050565b600180546101b590610724565b336000908152600460205260408120548211156105585760405162461bcd60e51b8152602060048201526014602482015273496e73756666696369656e742062616c616e636560601b60448201526064016102fe565b3360009081526004602052604081208054849290610577908490610774565b90915550506001600160a01b038316600090815260046020526040812080548492906105a4908490610787565b90915550506040518281526001600160a01b0384169033907fddf252ad1be2c89b69c2b068fc378daa952ba7f163c4a11628f55a4df523b3ef90602001610291565b600060208083528351808285015260005b81811015610613578581018301518582016040015282016105f7565b506000604082860101526040601f19601f8301168501019250505092915050565b80356001600160a01b038116811461064b57600080fd5b919050565b6000806040838503121561066357600080fd5b61066c83610634565b946020939093013593505050565b60008060006060848603121561068f57600080fd5b61069884610634565b92506106a660208501610634565b9150604084013590509250925092565b6000602082840312156106c857600080fd5b5035919050565b6000602082840312156106e157600080fd5b6106ea82610634565b9392505050565b6000806040838503121561070457600080fd5b61070d83610634565b915061071b60208401610634565b90509250929050565b600181811c9082168061073857607f821691505b60208210810361075857634e487b7160e01b600052602260045260246000fd5b50919050565b634e487b7160e01b600052601160045260246000fd5b8181038181111561029d5761029d61075e565b8082018082111561029d5761029d61075e565b600181815b808511156107d55781600019048211156107bb576107bb61075e565b808516156107c857918102915b93841c939080029061079f565b509250929050565b6000826107ec5750600161029d565b816107f95750600061029d565b816001811461080f576002811461081957610835565b600191505061029d565b60ff84111561082a5761082a61075e565b50506001821b61029d565b5060208310610133831016604e8410600b8410161715610858575081810a61029d565b610862838361079a565b80600019048211156108765761087661075e565b029392505050565b60006106ea60ff8416836107dd565b808202811582820484141761029d5761029d61075e56fea264697066735822122082df82df9ed0150e2833b1c4221d35decd2d0df7ea408696cffd539da144054264736f6c63430008140033",
  "linkReferences": {},
  "deployedLinkReferences": {}
}