{
  "_format": "hh-sol-artifact-1",
  "contractName": "SimpleTestToken",
  "sourceName": "contracts/SimpleTestToken.sol",
  "abi": [
    {
      "inputs": [
        {
          "internalType": "uint256",
          "name": "initialSupply",
          "type": "uint256"
        }
      ],
      "stateMutability": "nonpayable",
      "type": "constructor"
    },
    {
      "anonymous": false,
      "inputs": [
        {
          "indexed": true,
          "internalType": "address",
          "name": "owner",
          "type": "address"
        },
        {
          "indexed": true,
          "internalType": "address",
          "name": "spender",
          "type": "address"
        },
        {
          "indexed": false,
          "internalType": "uint256",
          "name": "value",
          "type": "uint256"
        }
      ],
      "name": "Approval",
      "type": "event"
    },
    {
      "anonymous": false,
      "inputs": [
        {
          "indexed": true,
          "internalType": "address",
          "name": "from",
          "type": "address"
        },
        {
          "indexed": true,
          "internalType": "address",
          "name": "to",
          "type": "address"
        },
        {
          "indexed": false,
          "internalType": "uint256",
          "name": "value",
          "type": "uint256"
        }
      ],
      "name": "Transfer",
      "type": "event"
    },
    {
      "inputs": [
        {
          "internalType": "address",
          "name": "",
          "type": "address"
        },
        {
          "internalType": "address",
          "name": "",
          "type": "address"
        }
      ],
      "name": "allowance",
      "outputs": [
        {
          "internalType": "uint256",
          "name": "",
          "type": "uint256"
        }
      ],
      "stateMutability": "view",
      "type": "function"
    },
    {
      "inputs": [
        {
          "internalType": "address",
          "name": "spender",
          "type": "address"
        },
        {
          "internalType": "uint256",
          "name": "value",
          "type": "uint256"
        }
      ],
      "name": "approve",
      "outputs": [
        {
          "internalType": "bool",
          "name": "",
          "type": "bool"
        }
      ],
      "stateMutability": "nonpayable",
      "type": "function"
    },
    {
      "inputs": [
        {
          "internalType": "address",
          "name": "",
          "type": "address"
        }
      ],
      "name": "balanceOf",
      "outputs": [
        {
          "internalType": "uint256",
          "name": "",
          "type": "uint256"
        }
      ],
      "stateMutability": "view",
      "type": "function"
    },
    {
      "inputs": [],
      "name": "decimals",
      "outputs": [
        {
          "internalType": "uint8",
          "name": "",
          "type": "uint8"
        }
      ],
      "stateMutability": "view",
      "type": "function"
    },
    {
      "inputs": [
        {
          "internalType": "uint256",
          "name": "amount",
          "type": "uint256"
        }
      ],
      "name": "faucet",
      "outputs": [],
      "stateMutability": "nonpayable",
      "type": "function"
    },
    {
      "inputs": [],
      "name": "name",
      "outputs": [
        {
          "internalType": "string",
          "name": "",
          "type": "string"
        }
      ],
      "stateMutability": "view",
      "type": "function"
    },
    {
      "inputs": [],
      "name": "symbol",
      "outputs": [
        {
          "internalType": "string",
          "name": "",
          "type": "string"
        }
      ],
      "stateMutability": "view",
      "type": "function"
    },
    {
      "inputs": [],
      "name": "totalSupply",
      "outputs": [
        {
          "internalType": "uint256",
          "name": "",
          "type": "uint256"
        }
      ],
      "stateMutability": "view",
      "type": "function"
    },
    {
      "inputs": [
        {
          "internalType": "address",
          "name": "to",
          "type": "address"
        },
        {
          "internalType": "uint256",
          "name": "value",
          "type": "uint256"
        }
      ],
      "name": "transfer",
      "outputs": [
        {
          "internalType": "bool",
          "name": "",
          "type": "bool"
        }
      ],
      "stateMutability": "nonpayable",
      "type": "function"
    },
    {
      "inputs": [
        {
          "internalType": "address",
          "name": "from",
          "type": "address"
        },
        {
          "internalType": "address",
          "name": "to",
          "type": "address"
        },
        {
          "internalType": "uint256",
          "name": "value",
          "type": "uint256"
        }
      ],
      "name": "transferFrom",
      "outputs": [
        {
          "internalType": "bool",
          "name": "",
          "type": "bool"
        }
      ],
      "stateMutability": "nonpayable",
      "type": "function"
    }
  ],
  "bytecode": "0x60803461017757601f61091e38819003918201601f19168301916001600160401b0383118484101761017c578084926020946040528339810103126101775751600061004b8154610192565b601f811161014d575b507f546573742055534454000000000000000000000000000000000000000000001281556001805461008590610192565b601f8111610121575b50600a64151554d11560da1b0190556002805460ff19166006179055620f4240828102928015908404909114171561010d578160035533815260046020528160408220556040519182527fddf252ad1be2c89b69c2b068fc378daa952ba7f163c4a11628f55a4df523b3ef60203393a360405161075190816101cd8239f35b634e487b7160e01b81526011600452602490fd5b81835281601f60208520920160051c8201915b82811061014257505061008e565b848155018290610134565b818052601f60208320910160051c8101905b81811061016c5750610054565b82815560010161015f565b600080fd5b634e487b7160e01b600052604160045260246000fd5b90600182811c921680156101c2575b60208310146101ac57565b634e487b7160e01b600052602260045260246000fd5b91607f16916101a156fe608060408181526004918236101561001657600080fd5b600092833560e01c91826306fdde031461055857508163095ea7b3146104e757816318160ddd146104c857816323b872dd146103aa578163313ce5671461038857816357915897146102d657816370a08231146102a057816395d89b4114610180578163a9059cbb146100de575063dd62ed3e1461009357600080fd5b346100da57806003193601126100da57806020926100af610677565b6100b7610692565b6001600160a01b0391821683526005865283832091168252845220549051908152f35b5080fd5b90503461017c578160031936011261017c57602092826100fc610677565b9160243592338252848752610116848484205410156106a8565b33825284875282822061012a8582546106eb565b90556001600160a01b031680825293865220805461014990839061070e565b905582519081527fddf252ad1be2c89b69c2b068fc378daa952ba7f163c4a11628f55a4df523b3ef843392a35160018152f35b8280fd5b8383346100da57816003193601126100da5780519082600180549081811c90808316928315610296575b6020938484108114610283578388529081156102675750600114610212575b505050829003601f01601f191682019267ffffffffffffffff8411838510176101ff57508291826101fb92528261062e565b0390f35b634e487b7160e01b815260418552602490fd5b8087529192508591837fb10e2d527612073b26eecdfd717e6a320cf44b4afac2b0732d9fcbe2b7fa0cf65b83851061025357505050508301018580806101c9565b80548886018301529301928490820161023d565b60ff1916878501525050151560051b84010190508580806101c9565b634e487b7160e01b895260228a52602489fd5b91607f16916101aa565b90503461017c57602036600319011261017c5760209282916001600160a01b036102c8610677565b168252845220549051908152f35b9190503461017c57602036600319011261017c5781359160ff60025416604d811161037557600a0a928381029381850414901517156103625761031b8360035461070e565b60035533845260205280832061033283825461070e565b905551908152817fddf252ad1be2c89b69c2b068fc378daa952ba7f163c4a11628f55a4df523b3ef60203393a380f35b634e487b7160e01b845260119052602483fd5b634e487b7160e01b855260118252602485fd5b5050346100da57816003193601126100da5760209060ff600254169051908152f35b90503461017c57606036600319011261017c576103c5610677565b6103cd610692565b936044359060018060a01b03809316928382526020968588526103f5848885205410156106a8565b84835260058852868320338452885283878420541061048c57827fddf252ad1be2c89b69c2b068fc378daa952ba7f163c4a11628f55a4df523b3ef94928892878b96528886528383206104498682546106eb565b90551696878252845281812061046084825461070e565b90558581526005845281812033825284522061047d8282546106eb565b90558551908152a35160018152f35b865162461bcd60e51b81528087018990526016602482015275496e73756666696369656e7420616c6c6f77616e636560501b6044820152606490fd5b5050346100da57816003193601126100da576020906003549051908152f35b5050346100da57806003193601126100da5760209181610505610677565b91602435918291338152600587528181209460018060a01b0316948582528752205582519081527f8c5be1e5ebec7d5bd14f71427d1e84f3dd0314c0f7b2291e5b200ac8c7c3b925843392a35160018152f35b8490843461017c578260031936011261017c57828354600181811c90808316928315610624575b60209384841081146102835783885290811561026757506001146105cf57505050829003601f01601f191682019267ffffffffffffffff8411838510176101ff57508291826101fb92528261062e565b8680529192508591837f290decd9548b62a8d60345a988386fc84ba6bc95484008f6362f93160ef3e5635b83851061061057505050508301018580806101c9565b8054888601830152930192849082016105fa565b91607f169161057f565b6020808252825181830181905290939260005b82811061066357505060409293506000838284010152601f8019910116010190565b818101860151848201604001528501610641565b600435906001600160a01b038216820361068d57565b600080fd5b602435906001600160a01b038216820361068d57565b156106af57565b60405162461bcd60e51b8152602060048201526014602482015273496e73756666696369656e742062616c616e636560601b6044820152606490fd5b919082039182116106f857565b634e487b7160e01b600052601160045260246000fd5b919082018092116106f85756fea26469706673582212204b5e62717552a811819cf5ba4b4cb7fc7201ccd7fdc1c3581836817fb190b37d64736f6c63430008140033",
  "linkReferences": {},
  "deployedLinkReferences": {}
}